:020000040800F2
:100000006806002019240008950D0008A10D0008BD
:10001000A90D0008B10D0008B90D0008000000008E
:10002000000000000000000000000000C10D0008FA
:10003000CD0D000800000000D90D0008E50D0008F6
:10004000792400087924000879240008792400081C
:10005000792400087924000879240008792400080C
:1000600079240008792400087924000879240008FC
:1000700079240008792400087924000879240008EC
:1000800079240008792400087924000879240008DC
:1000900079240008F50D0008792400087924000867
:1000A00079240008792400087924000879240008BC
:1000B00079240008792400087924000879240008AC
:1000C000792400087924000879240008792400089C
:1000D000792400087924000879240008792400088C
:1000E0007924000879240008792400080000000021
:1000F0000000000000000000000000000000000000
:1001000000000000000000005FF808F180B586B034
:1001100000AF786000237B610023FB6000233B611C
:100120007B68002B01D10123CDE07B6893F8393047
:10013000DBB2002B06D17B68002283F83820786878
:1001400002F098FF7B68022283F839207B681B68E5
:100150007A681268126822F002021A607B681B68D3
:100160007A681268126842F001021A6000F0F2FD2B
:10017000F86010E000F0EEFD0246FB68D31A0A2B8F
:1001800009D97B68032283F839207B68002283F831
:100190003820032397E07B681B685B6803F001034A
:1001A000002BE7D07B681B685B6803F00103002B22
:1001B00078D07B689B69012B03D13B6943F08003B6
:1001C0003B617B68DB69012B03D13B6943F0400352
:1001D0003B617B681B6A012B03D13B6943F0200321
:1001E0003B617B685B6A012B03D13B6943F01003E1
:1001F0003B617B689B6A012B03D13B6943F0080399
:100200003B617B68DB6A012B03D13B6943F004034C
:100210003B617B681B687A681268126822F0FC01F7
:100220003A690A431A607B681B687A6891687A6841
:10023000D26811437A68126911437A68526911438E
:100240007A685268013A0A43DA617B681B687A6807
:100250001268126822F001021A6000F07BFDF8605B
:1002600010E000F077FD0246FB68D31A0A2B09D98B
:100270007B68032283F839207B68002283F83820CA
:10028000032320E07B681B685B6803F00103002BFD
:10029000E7D07B681B685B6803F00103002B01D08B
:1002A00001237B617B69012B08D17B680022DA6323
:1002B0007B68012283F83920002304E07B68042254
:1002C00083F83920012318461837BD4680BD00BF8A
:1002D00080B485B000AF786039600023FB603B6874
:1002E0005B69012202FA03F3FB607B681B687A6892
:1002F0001268D2F8002222F47C513A68526A120243
:100300000A4342F00102C3F800227B681B687A6846
:100310001268D2F81C12FA68D2430A40C3F81C22B1
:100320003B68DB69002B27D17B681B687A68126801
:10033000D2F80C12FA68D2430A40C3F80C227B6848
:100340001B683A6852693968C9680804396849689D
:1003500089B20143483243F832107B6819683B6820
:100360005B693A68926810043A68126892B2024374
:100370004833DB000B445A603B68DB69012B26D114
:100380007B681B687A681268D2F80C12FA680A4314
:10039000C3F80C227B681B683A685269396809689F
:1003A00008043968496889B20143483243F8321079
:1003B0007B6819683B685B693A68926810043A6820
:1003C000D26892B202434833DB000B445A603B6868
:1003D0009B69002B0BD17B681B687A681268D2F886
:1003E0000412FA68D2430A40C3F8042209E07B6889
:1003F0001B687A681268D2F80412FA680A43C3F8D4
:1004000004223B681B69002B0BD17B681B687A6850
:100410001268D2F81412FA68D2430A40C3F81422C0
:1004200009E07B681B687A681268D2F81412FA68CF
:100430000A43C3F814223B681B6A012B09D17B686D
:100440001B687A681268D2F81C12FA680A43C3F86B
:100450001C227B681B687A681268D2F8002222F09E
:100460000102C3F80022002318461437BD4680BCA1
:10047000704700BF80B584B000AF78603960042356
:10048000FB600023BB607B6893F83830012B01D1FF
:1004900002235AE17B68012283F838207B6893F8B5
:1004A0003930DBB2222B04D17B68322283F8392029
:1004B00003E07B68122283F839207B681B689B6805
:1004C00003F08063002B02D00023FB6015E07B6803
:1004D0001B689B6803F00063002B02D00123FB60C4
:1004E0000BE07B681B689B6803F08053002B02D0F5
:1004F0000223FB6001E00423FB60FB68042B00F097
:100500001B817B6819687B681A68FB6818331B01BC
:1005100013441B6803F00102FB6818331B010B44F2
:100520001A607B681B6B9B68002B17D17B6819686E
:100530007B681A68FB6818331B0113441A687B68D0
:100540001B6B1B6858057B681B6BDB6803431A43F6
:10055000FB6818331B010B441A601AE07B681968AA
:100560007B681A68FB6818331B0113441A687B68A0
:100570001B6B5B68D8007B681B6B9B6818437B68B0
:100580001B6BDB6803431A43FB6818331B010B44E6
:100590001A607B681B6B7A68126B126902F00F029B
:1005A0001A617B6819687B681A68FB6818331B013D
:1005B000134404331B6823F00F02FB6818331B013C
:1005C0000B4404331A607B6819687B681A68FB68FF
:1005D00018331B01134404331A687B681B6B1B69B7
:1005E0001A43FB6818331B010B4404331A607B6801
:1005F00019687B681B6BDB7D1A067B681B6B9B7D18
:100600001B041A437B681B6B5B7D1B0213437A68D8
:10061000126B127D1A43FB681B010B4403F5C47374
:100620001A607B6819687B681B6BDB7E1A067B6827
:100630001B6B9B7E1B041A437B681B6B5B7E1B0240
:1006400013437A68126B127E1A43FB681B010B443A
:1006500003F5C6731A607B6819687B681A68FB68C3
:1006600018331B0113441B6843F00102FB68183365
:100670001B010B441A6000F06DFBB86018E03B688A
:10068000B3F1FF3F14D03B68002B07D000F062FBB2
:100690000246BB68D21A3B689A4209D97B6803229A
:1006A00083F839207B68002283F8382003234CE04C
:1006B000FB68002B0BD17B681B689A68254B1340A5
:1006C000244A934214BF01230023DBB219E0FB68E4
:1006D000012B0BD17B681B689A681F4B13401E4A85
:1006E000934214BF01230023DBB20AE07B681B683E
:1006F0009A681A4B1340194A934214BF01230023EE
:10070000DBB2002BBBD17B6893F83930DBB2322BE4
:1007100008D17B68222283F839207B68002283F885
:10072000382003E07B68012283F839207B680022AF
:1007300083F83820002308E07B68042283F83920FE
:100740007B68002283F83820012318461037BD4605
:1007500080BD00BF03000004000300080000031078
:1007600080B483B000AF78600B46FB707B6893F871
:100770003930DBB2012B05D07B6893F83930DBB21E
:10078000122B3FD17B6893F83830012B01D1022323
:100790003BE07B68012283F838207B6893F839308E
:1007A000DBB2122B04D17B68322283F8392003E0BC
:1007B0007B68222283F839207B680022DA637B6819
:1007C0001A687B681B685B6943F40F4343F00103BD
:1007D00053617B68002283F83820FB78002B08D116
:1007E0007B681B687A681268526942F002025A619B
:1007F0000AE07B681B687A681268526942F010024E
:100800005A6101E0022300E0002318460C37BD4680
:1008100080BC704780B582B000AF78607B681B6891
:100820005B6903F00103002B1AD07B681B689A6890
:10083000804B13407F4A93420FD07B681B689A68B5
:100840007D4B13407C4A934207D07B681B689A68B3
:100850007A4B1340794A934202D1786800F004F948
:100860007B681B685B6903F00203002B0BD07B687D
:100870001B68DB68DBB203F00303002B03D000210D
:10088000786800F023F97B681B685B6903F010034C
:10089000002B0BD07B681B681B69DBB203F00303E2
:1008A000002B03D00121786800F010F97B681B68E9
:1008B0009B6903F00103002B13D07B681B685B6905
:1008C00003F48073002B0CD07B681B685B6903F416
:1008D0000043002B05D07B68DB6B43F001027B6893
:1008E000DA637B681B689B6903F00203002B13D05B
:1008F0007B681B685B6903F40073002B0CD07B687A
:100900001B685B6903F40043002B05D07B68DB6B3D
:1009100043F002027B68DA637B681B689B6903F023
:100920000403002B13D07B681B685B6903F48063AE
:10093000002B0CD07B681B685B6903F40043002B21
:1009400005D07B68DB6B43F004027B68DA637B686D
:100950001B689B6903F07003002B54D07B681B68F5
:100960005B6903F40063002B4DD07B681B685B69F7
:1009700003F40043002B46D07B681B689B6903F09F
:100980007003302B1BD0302B04D8102B09D0202B18
:100990000ED030E0502B20D0602B25D0402B15D02E
:1009A00029E07B68DB6B43F008027B68DA6322E0B6
:1009B0007B68DB6B43F010027B68DA631BE07B68CB
:1009C000DB6B43F020027B68DA6314E07B68DB6B4F
:1009D00043F040027B68DA630DE07B68DB6B43F039
:1009E00080027B68DA6306E07B68DB6B43F480722D
:1009F0007B68DA6300BF7B681B687A68126892695B
:100A000022F070029A617B68DB6B002B0ED07B6852
:100A10001B687A681268526842F004025A607B6868
:100A2000012283F83920786800F014F800BF0837F5
:100A3000BD4680BD03000004000300080000031051
:100A400080B483B000AF786000BF0C37BD4680BC77
:100A5000704700BF80B483B000AF786000BF0C3730
:100A6000BD4680BC704700BF80B582B000AF7860E3
:100A70007B681B687A681268526922F001025A6129
:100A80007B6893F83930DBB2122B07D17B681B6887
:100A90007A681268526922F40F425A617B6893F8AF
:100AA0003930DBB2322B04D17B68222283F8392023
:100AB00003E07B68012283F839207868FFF7C0FFE4
:100AC000002318460837BD4680BD00BF80B582B000
:100AD00000AF78600B46FB707B685B6B7A681168CF
:100AE000FA781B3212010A44126802F004029A607A
:100AF0007B685B6B9B68002B0BD17B685B6B7A68B8
:100B00001168FA781B3212010A441268520D1A60F9
:100B10000AE07B685B6B7A681168FA781B32120115
:100B20000A441268D2085A607B685B6B7A68116865
:100B3000FA781B3212010A44126802F00202DA60EB
:100B40007B685B6B7A681168FA781B3212010A4481
:100B50000432126802F00F021A617B685B6B7A68DC
:100B60001168FA781B3212010A4404321268120A20
:100B7000D2B2DA617B685B6B7A681168FA7812012D
:100B80000A4402F5DC721268D2B21A757B685B6B9C
:100B90007A681168FA7812010A4402F5DC72126868
:100BA000120AD2B25A757B685B6B7A681168FA7860
:100BB00012010A4402F5DC721268120CD2B29A7564
:100BC0007B685B6B7A681168FA7812010A4402F557
:100BD000DC721268120ED2B2DA757B685B6B7A68CF
:100BE0001168FA7812010A4402F5DE721268D2B274
:100BF0001A767B685B6B7A681168FA7812010A448E
:100C000002F5DE721268120AD2B25A767B685B6B0A
:100C10007A681168FA7812010A4402F5DE721268E5
:100C2000120CD2B29A767B685B6B7A681168FA789C
:100C300012010A4402F5DE721268120ED2B2DA769E
:100C4000FB78002B10D17B681B687A681268D26829
:100C500042F02002DA607B681B687A681268526989
:100C600022F002025A610FE07B681B687A68126802
:100C7000126942F020021A617B681B687A68126868
:100C8000526922F010025A617B6893F83930DBB266
:100C9000222B07D17B681B687A681268526922F49C
:100CA0000F425A617B6893F83930DBB2322B04D1A2
:100CB0007B68122283F8392003E07B68012283F8E5
:100CC0003920786801F0F8FF002318460837BD4640
:100CD00080BD00BF80B500AF084A084B1B6843F0D9
:100CE00010031360032000F055F9002000F008F80D
:100CF00002F074F90023184680BD00BF00200240B6
:100D000080B582B000AF786001F038FB0246094B35
:100D1000A3FB02239B09184600F072F900227968B0
:100D20004FF0FF3000F042F9002318460837BD4667
:100D300080BD00BFD34D621080B400AF044B1B6870
:100D40000133034A136000BFBD4680BC704700BF3B
:100D50000400002080B400AF024B1B681846BD465B
:100D600080BC70470400002080B584B000AF78607C
:100D70000023FB60FFF7EEFFF86000BFFFF7EAFF1C
:100D80000246FB68D21A7B689A42F7D300BF10373D
:100D9000BD4680BD80B400AF00BFBD4680BC70477B
:100DA00080B400AFFEE700BF80B400AFFEE700BF35
:100DB00080B400AFFEE700BF80B400AFFEE700BF25
:100DC00080B400AF00BFBD4680BC704780B400AFA8
:100DD00000BFBD4680BC704780B400AF00BFBD46B9
:100DE00080BC704780B500AFFFF7A6FF00F030F978
:100DF00000BF80BD80B500AF0248FFF70BFD00BF0C
:100E000080BD00BF5400002080B485B000AF786082
:100E10007B6803F00703FB600C4BDB68BB60BA68C0
:100E20004FF6FF031340BB60FB681A02BB68134315
:100E300043F0BF6343F40033BB60044ABB68D36034
:100E400000BF1437BD4680BC704700BF00ED00E016
:100E500080B400AF044BDB6803F4E0631B0A184660
:100E6000BD4680BC704700BF00ED00E080B483B099
:100E700000AF0346FB71084997F907305B09FA791F
:100E800002F01F02012000FA02F241F8232000BF05
:100E90000C37BD4680BC704700E100E080B483B0F1
:100EA00000AF03463960FB7197F90730002B0BDA6E
:100EB0000D49FB7903F00F03043B3A68D2B21201EB
:100EC000D2B20B441A7609E0084997F907303A681C
:100ED000D2B21201D2B20B4483F8002300BF0C3708
:100EE000BD4680BC704700BF00ED00E000E100E0BF
:100EF00080B489B000AFF860B9607A60FB6803F035
:100F00000703FB61FB69C3F10703042B28BF04231C
:100F1000BB61FB690433062B02D9FB69033B00E08C
:100F200000237B610122BB6902FA03F35A1EBB68EE
:100F30001A407B699A4001217B6901FA03F3591E2B
:100F40007B680B40134318462437BD4680BC70476E
:100F500080B582B000AF78607B68013BB3F1807FE1
:100F600001D301230FE00A4A7B68013B53600F2144
:100F70004FF0FF30FFF792FF054B00229A60044BC1
:100F800007221A60002318460837BD4680BD00BFFF
:100F900010E000E080B582B000AF78607868FFF7BD
:100FA00033FF00BF0837BD4680BD00BF80B586B0A7
:100FB00000AF0346B9607A60FB7300237B61FFF7E3
:100FC00047FF78617A68B9687869FFF791FF024650
:100FD00097F90F3011461846FFF760FF00BF18372A
:100FE000BD4680BD80B582B000AF0346FB7197F966
:100FF00007301846FFF73AFF00BF0837BD4680BDEF
:1010000080B582B000AF78607868FFF7A1FF034633
:1010100018460837BD4680BD80B483B000AF786005
:101020007B68042B06D1094A084B1B6843F0040374
:10103000136005E0054A054B1B6823F004031360A9
:1010400000BF0C37BD4680BC704700BF10E000E019
:1010500080B500AF00F002F800BF80BD80B400AFE3
:1010600000BFBD4680BC704780B400AF154A154B29
:101070001B6843F0010313601249124B5A68124B6C
:1010800013404B600F4A0F4B1B6823F0847323F40B
:10109000803313600B4A0B4B1B6823F480231360CF
:1010A000084A084B5B6823F4FE035360054B4FF47A
:1010B0001F029A60054B4FF000629A6000BFBD4668
:1010C00080BC7047001002400000FFF800ED00E017
:1010D00090B5E5B000AF3B1D18600023C7F88C3118
:1010E0003B1D1B681B6803F00103002B00F075819A
:1010F000B84B5B6803F00C03042B0BD0B54B5B685B
:1011000003F00C03082B5FD1B24B5B6803F4803310
:10111000002B59D04FF40033C7F8CC30D7F8CC307F
:1011200093FAA3F3C7F8C830D7F8C830B3FA83F3FB
:101130005BB243F020035BB2DBB25B09DBB2012B95
:1011400002D1A44B1B681BE04FF40033C7F8703189
:10115000D7F8703193FAA3F3C7F8C430D7F8C43086
:10116000B3FA83F35BB243F020035BB2DBB25B09FB
:10117000DBB2022B02D1974B1B6A01E0954B5B6AF5
:101180004FF40032C7F86C21D7F86C2192FAA2F222
:10119000C7F8C020D7F8C020B2FA82F252B242F0AB
:1011A000200252B2D2B202F01F02D34003F0010378
:1011B000002B00F011813B1D1B685B68002B40F089
:1011C0000B81012300F09DBE3B1D1B685B68B3F5DE
:1011D000803F06D17F4A7F4B1B6843F48033136006
:1011E00030E03B1D1B685B68002B0CD1794A794BC2
:1011F0001B6823F480331360764A764B1B6823F414
:10120000802313601EE03B1D1B685B68B3F5A02FB5
:101210000CD1704A6F4B1B6843F4802313606D4AF6
:101220006C4B1B6843F4803313600BE0694A694BD5
:101230001B6823F480331360664A664B1B6823F4F3
:10124000802313603B1D1B685B68002B60D0FFF799
:1012500081FDC7F88C010AE0FFF77CFD0246D7F854
:101260008C31D31A642B02D9032300F04ABE4FF409
:101270000033C7F86831D7F8683193FAA3F3C7F899
:10128000BC30D7F8BC30B3FA83F35BB243F0200331
:101290005BB2DBB25B09DBB2012B02D14D4B1B68A9
:1012A0001BE04FF40033C7F88831D7F8883193FA40
:1012B000A3F3C7F8B830D7F8B830B3FA83F35BB20A
:1012C00043F020035BB2DBB25B09DBB2022B02D13D
:1012D000404B1B6A01E03F4B5B6A4FF40032C7F89A
:1012E0008421D7F8842192FAA2F2C7F8B420D7F863
:1012F000B420B2FA82F252B242F0200252B2D2B21A
:1013000002F01F02D34003F00103002BA4D064E0DD
:10131000FFF720FDC7F88C010AE0FFF71BFD02462E
:10132000D7F88C31D31A642B02D9032300F0E9BD1E
:101330004FF40033C7F88031D7F8803193FAA3F324
:10134000C7F8B030D7F8B030B3FA83F35BB243F0EC
:1013500020035BB2DBB25B09DBB2012B02D11D4B78
:101360001B681BE04FF40033C7F87C31D7F87C31A1
:1013700093FAA3F3C7F8AC30D7F8AC30B3FA83F3E1
:101380005BB243F020035BB2DBB25B09DBB2022B42
:1013900002D1104B1B6A01E00E4B5B6A4FF4003226
:1013A000C7F87821D7F8782192FAA2F2C7F8A820D6
:1013B000D7F8A820B2FA82F252B242F0200252B21A
:1013C000D2B202F01F02D34003F00103002BA4D1DC
:1013D00003E000BF0010024000BF3B1D1B681B68FC
:1013E00003F00203002B00F09881BC4B5B6803F014
:1013F0000C03002B0BD0B94B5B6803F00C03082BDC
:1014000074D1B64B5B6803F48033002B6ED102239A
:10141000C7F87431D7F8743193FAA3F3C7F8A4303E
:10142000D7F8A430B3FA83F35BB243F020035BB286
:10143000DBB25B09DBB2012B02D1A84B1B681AE0BF
:101440000223C7F84031D7F8403193FAA3F3C7F825
:10145000A030D7F8A030B3FA83F35BB243F0200397
:101460005BB2DBB25B09DBB2022B02D19B4B1B6A86
:1014700001E09A4B5B6A0222C7F83C21D7F83C2175
:1014800092FAA2F2C7F89C20D7F89C20B2FA82F216
:1014900052B242F0200252B2D2B202F01F02D34046
:1014A00003F00103002B07D03B1D1B681B69012BB8
:1014B00002D0012300F025BD8848884B1B6823F02B
:1014C000F8023B1D1B685969F823C7F83831D7F873
:1014D000383193FAA3F3C7F89830D7F89830B3FAB5
:1014E00083F301FA03F31343036016E13B1D1B680A
:1014F0001B69002B00F094800123C7F83431D7F822
:10150000343193FAA3F3C7F89430D7F89430B3FA90
:1015100083F39B0003F1844303F584031A460123FC
:101520001360FFF717FCC7F88C010AE0FFF712FC05
:101530000246D7F88C31D31A022B02D9032300F0CC
:10154000E0BC0223C7F86431D7F8643193FAA3F200
:1015500007F190031A6007F190031B68B3FA83F355
:101560005BB243F020035BB2DBB25B09DBB2012B61
:1015700002D15A4B1B681CE00223C7F86031D7F830
:10158000603193FAA3F207F18C031A6007F18C0320
:101590001B68B3FA83F35BB243F020035BB2DBB2A8
:1015A0005B09DBB2022B02D14C4B1B6A01E04B4BB7
:1015B0005B6A0222C7F85C21D7F85C2192FAA2F19B
:1015C00007F18802116007F188021268B2FA82F20C
:1015D00052B242F0200252B2D2B202F01F02D34005
:1015E00003F00103002BA1D03C4C3C4B1B6823F0C3
:1015F000F8023B1D1B685969F823C7F85831D7F822
:10160000583193FAA3F007F18403186007F18403BB
:101610001B68B3FA83F301FA03F3134323607CE0FE
:101620000123C7F85431D7F8543193FAA3F207F1E4
:1016300080031A6007F180031B68B3FA83F39B00F1
:1016400003F1844303F584031A4600231360FFF774
:1016500081FBC7F88C010AE0FFF77CFB0246D7F854
:101660008C31D31A022B02D9032300F04ABC022387
:10167000C7F85031D7F8503193FAA3F207F17C0341
:101680001A6007F17C031B68B3FA83F35BB243F083
:1016900020035BB2DBB25B09DBB2012B02D10F4B43
:1016A0001B681FE00223C7F84C31D7F84C3193FA7E
:1016B000A3F207F178031A6007F178031B68B3FA05
:1016C00083F35BB243F020035BB2DBB25B09DBB2B6
:1016D000022B05D1014B1B6A04E000BF0010024041
:1016E000B74B5B6A0222C7F84821D7F8482192FA23
:1016F000A2F107F17402116007F174021268B2FAE4
:1017000082F252B242F0200252B2D2B202F01F0272
:10171000D34003F00103002B9ED13B1D1B681B68C7
:1017200003F00803002B00F0F9803B1D1B689B6948
:10173000002B7BD00123C7F84431D7F8443193FA0A
:10174000A3F207F170031A6007F170031B68B3FA84
:1017500083F39B001A469B4B13441A4601231360E4
:10176000FFF7F8FAC7F88C0109E0FFF7F3FA024631
:10177000D7F88C31D31A022B01D90323C1E30223FA
:10178000C7F83031D7F8303193FAA3F207F16C0380
:101790001A6007F16C031B68B3FA83F35BB243F082
:1017A00060035BB2DBB25B09DBB2012B02D1844B7D
:1017B0001B681CE00223C7F82C31D7F82C3193FAB0
:1017C000A3F207F168031A6007F168031B68B3FA14
:1017D00083F35BB243F060035BB2DBB25B09DBB265
:1017E000022B02D1764B1B6A01E0754B5B6A022229
:1017F000C7F82821D7F8282192FAA2F107F164024C
:10180000116007F164021268B2FA82F252B242F039
:10181000600252B2D2B202F01F02D34003F00103C1
:10182000002BA2D00120FFF79FFA77E00123C7F831
:101830002431D7F8243193FAA3F207F160031A6038
:1018400007F160031B68B3FA83F39B001A465D4BF4
:1018500013441A4600231360FFF77CFAC7F88C0183
:1018600009E0FFF777FA0246D7F88C31D31A022B3A
:1018700001D9032345E30223C7F82031D7F82031EB
:1018800093FAA3F207F15C031A6007F15C031B688B
:10189000B3FA83F35BB243F060035BB2DBB25B0984
:1018A000DBB2012B02D1464B1B681CE00223C7F8B8
:1018B0001C31D7F81C3193FAA3F207F158031A60D0
:1018C00007F158031B68B3FA83F35BB243F060037C
:1018D0005BB2DBB25B09DBB2022B02D1384B1B6A75
:1018E00001E0374B5B6A0222C7F81821D7F81821AC
:1018F00092FAA2F107F15402116007F15402126842
:10190000B2FA82F252B242F0600252B2D2B202F0A5
:101910001F02D34003F00103002BA2D13B1D1B6823
:101920001B6803F00403002B00F03C81244A244B85
:10193000DB6943F08053D361214BDB6903F08052B4
:1019400007F108031A6007F108031B681E4A1E4BC3
:101950001B6843F480731360FFF7FCF9C7F88C0130
:1019600009E0FFF7F7F90246D7F88C31D31A642B58
:1019700001D90323C5E2144B1B6803F48073002BC9
:10198000EFD03B1D1B68DB68012B06D10C4A0C4BCA
:101990001B6A43F00103136236E03B1D1B68DB68E2
:1019A000002B13D1064A064B1B6A23F00103136276
:1019B000034A034B1B6A23F00403136224E000BFB5
:1019C0000010024080044242007000403B1D1B6832
:1019D000DB68052B0CD1AC4AAB4B1B6A43F004030C
:1019E0001362A94AA84B1B6A43F0010313620BE080
:1019F000A54AA54B1B6A23F001031362A24AA24B1E
:101A00001B6A23F0040313623B1D1B68DB68002B79
:101A100064D0FFF79FF9C7F88C010BE0FFF79AF944
:101A20000246D7F88C31D31A41F28832934201D959
:101A3000032366E20223C7F81431D7F8143193FA6E
:101A4000A3F207F150031A6007F150031B68B3FAC1
:101A500083F35BB243F040035BB2DBB25B09DBB202
:101A6000012B02D1884B1B681CE00223C7F8103100
:101A7000D7F8103193FAA3F207F14C031A6007F17B
:101A80004C031B68B3FA83F35BB243F040035BB2D1
:101A9000DBB25B09DBB2022B02D17B4B1B6A01E09C
:101AA000794B5B6A0222C7F80C21D7F80C2192FA15
:101AB000A2F107F14802116007F148021268B2FA78
:101AC00082F252B242F0400252B2D2B202F01F028F
:101AD000D34003F00103002BA0D063E0FFF73AF9F5
:101AE000C7F88C010BE0FFF735F90246D7F88C31C7
:101AF000D31A41F28832934201D9032301E202232F
:101B0000C7F80831D7F8083193FAA3F207F1440374
:101B10001A6007F144031B68B3FA83F35BB243F026
:101B200040035BB2DBB25B09DBB2012B02D1564B47
:101B30001B681CE00223C7F80431D7F8043193FA7C
:101B4000A3F207F140031A6007F140031B68B3FAE0
:101B500083F35BB243F040035BB2DBB25B09DBB201
:101B6000022B02D1484B1B6A01E0474B5B6A022201
:101B7000C7F80021D7F8002192FAA2F107F13C0240
:101B8000116007F13C021268B2FA82F252B242F0DE
:101B9000400252B2D2B202F01F02D34003F001035E
:101BA000002BA0D13B1D1B68DB69002B00F0A88136
:101BB000354B5B6803F00C03082B00F09F813B1D45
:101BC0001B68DB69022B40F01B814FF08073C7F864
:101BD000FC30D7F8FC3093FAA3F207F138031A600F
:101BE00007F138031B68B3FA83F39B0003F18443C6
:101BF00003F584031A4600231360FFF7ABF8C7F818
:101C00008C0109E0FFF7A6F80246D7F88C31D31A09
:101C1000022B01D9032374E14FF00073C7F8F830A9
:101C2000D7F8F83093FAA3F207F134031A6007F1FA
:101C300034031B68B3FA83F35BB243F020035BB257
:101C4000DBB25B09DBB2012B02D10F4B1B681FE03B
:101C50004FF00073C7F8F430D7F8F43093FAA3F2DA
:101C600007F130031A6007F130031B68B3FA83F3FE
:101C70005BB243F020035BB2DBB25B09DBB2022B49
:101C800004D1014B1B6A03E0001002409F4B5B6ACA
:101C90004FF00072C7F8F020D7F8F02092FAA2F1C6
:101CA00007F12C02116007F12C021268B2FA82F2DD
:101CB00052B242F0200252B2D2B202F01F02D3401E
:101CC00003F00103002B9DD13B1D1B681B6AB3F57C
:101CD000803F09D18D498D4B5B6823F400323B1D59
:101CE0001B689B6813434B608848884B5B6823F4F0
:101CF00074123B1D1B68196A3B1D1B685B6A0B4312
:101D0000134343604FF08073C7F8EC30D7F8EC30E2
:101D100093FAA3F207F128031A6007F128031B685E
:101D2000B3FA83F39B0003F1844303F584031A465B
:101D300001231360FFF70EF8C7F88C0109E0FFF7E5
:101D400009F80246D7F88C31D31A022B01D90323A4
:101D5000D7E04FF00073C7F8E830D7F8E83093FACF
:101D6000A3F207F124031A6007F124031B68B3FAF6
:101D700083F35BB243F020035BB2DBB25B09DBB2FF
:101D8000012B02D1614B1B681DE04FF00073C7F8B7
:101D9000E430D7F8E43093FAA3F207F120031A6095
:101DA00007F120031B68B3FA83F35BB243F020030F
:101DB0005BB2DBB25B09DBB2022B02D1534B1B6A75
:101DC00001E0524B5B6A4FF00072C7F8E020D7F891
:101DD000E02092FAA2F107F11C02116007F11C0247
:101DE0001268B2FA82F252B242F0200252B2D2B279
:101DF00002F01F02D34003F00103002B9FD07FE0CD
:101E00004FF08073C7F8DC30D7F8DC3093FAA3F2D8
:101E100007F118031A6007F118031B68B3FA83F37C
:101E20009B0003F1844303F584031A4600231360E7
:101E3000FEF790FFC7F88C0109E0FEF78BFF024622
:101E4000D7F88C31D31A022B01D9032359E04FF074
:101E50000073C7F8D830D7F8D83093FAA3F207F157
:101E600014031A6007F114031B68B3FA83F35BB21F
:101E700043F020035BB2DBB25B09DBB2012B02D182
:101E8000224B1B681DE04FF00073C7F8D430D7F821
:101E9000D43093FAA3F207F110031A6007F110038C
:101EA0001B68B3FA83F35BB243F020035BB2DBB28F
:101EB0005B09DBB2022B02D1144B1B6A01E0134B0E
:101EC0005B6A4FF00072C7F8D020D7F8D02092FAA2
:101ED000A2F107F10C02116007F10C021268B2FACC
:101EE00082F252B242F0200252B2D2B202F01F028B
:101EF000D34003F00103002B9FD101E0012300E058
:101F00000023184607F5CA77BD4690BD0010024071
:101F100080B598B000AF786039600023FB65A54BB1
:101F20001B6803F007023B689A4210D2A149A14BFB
:101F30001B6823F007023B6813430B609D4B1B6833
:101F400003F007023B689A4201D001238FE17B68CE
:101F50001B6803F00203002B08D09749964B5B687F
:101F600023F0F0027B689B6813434B607B681B681F
:101F700003F00103002B00F027817B685B68012BD5
:101F800046D14FF400337B637B6B93FAA3F33B633F
:101F90003B6BB3FA83F35BB243F020035BB2DBB27B
:101FA0005B09DBB2012B02D1834B1B6817E04FF4B6
:101FB0000033BB65BB6D93FAA3F3FB62FB6AB3FA14
:101FC00083F35BB243F020035BB2DBB25B09DBB2AD
:101FD000022B02D1784B1B6A01E0774B5B6A4FF40E
:101FE00000327A657A6D92FAA2F2BA62BA6AB2FAED
:101FF00082F252B242F0200252B2D2B202F01F027A
:10200000D34003F00103002B40F08F8001232EE129
:102010007B685B68022B45D14FF000733B653B6DDD
:1020200093FAA3F37B627B6AB3FA83F35BB243F068
:1020300020035BB2DBB25B09DBB2012B02D15E4B4A
:102040001B6817E04FF00073FB64FB6C93FAA3F37B
:102050003B623B6AB3FA83F35BB243F020035BB2AB
:10206000DBB25B09DBB2022B02D1534B1B6A01E0EE
:10207000514B5B6A4FF00072BA64BA6C92FAA2F2EA
:10208000FA61FA69B2FA82F252B242F0200252B216
:10209000D2B202F01F02D34003F00103002B44D15F
:1020A0000123E4E002237B647B6C93FAA3F3BB611E
:1020B000BB69B3FA83F35BB243F020035BB2DBB2DC
:1020C0005B09DBB2012B02D13B4B1B6816E00223FC
:1020D0003B643B6C93FAA3F37B617B69B3FA83F3B4
:1020E0005BB243F020035BB2DBB25B09DBB2022BD5
:1020F00002D1314B1B6A01E02F4B5B6A0222FA636B
:10210000FA6B92FAA2F23A613A69B2FA82F252B2E8
:1021100042F0200252B2D2B202F01F02D34003F0CA
:102120000103002B01D10123A1E02349224B5B686D
:1021300023F003027B685B6813434B60FEF70AFEE3
:10214000F8657B685B68012B12D10AE0FEF702FE9E
:102150000246FB6DD31A41F28832934201D9032320
:1021600085E0154B5B6803F00C03042BEED12BE0EC
:102170007B685B68022B21D10AE0FEF7EBFD02468B
:10218000FB6DD31A41F28832934201D903236EE0EA
:10219000094B5B6803F00C03082BEED114E0FEF74B
:1021A000D9FD0246FB6DD31A41F28832934205D91C
:1021B00003235CE000200240001002402E4B5B68CD
:1021C00003F00C03002BEAD12C4B1B6803F0070231
:1021D0003B689A4210D92949284B1B6823F0070213
:1021E0003B6813430B60254B1B6803F007023B68F9
:1021F0009A4201D001233AE07B681B6803F0040394
:10220000002B08D01C491C4B5B6823F4E0627B6800
:10221000DB6813434B607B681B6803F00803002BEB
:1022200009D01549144B5B6823F460527B681B6925
:10223000DB0013434B6000F027F801460E4B5B6850
:1022400003F0F002F023BB63BB6B93FAA3F3FB60D4
:10225000FB68B3FA83F322FA03F3094AD35C21FA49
:1022600003F3084A13600020FEF74AFD00231846D6
:102270006037BD4680BD00BF001002400020024014
:102280006C3100080000002090B48EB000AF364BD7
:102290003C1D186859689A68DB680FC4334A3B468E
:1022A00012881A800023FB620023BB6200237B6339
:1022B00000237B6200233B632D4B5B68FB62FB6A60
:1022C00003F00C03042B02D0082B03D043E0294B6E
:1022D0003B6343E0FB6A03F470124FF47013FB613D
:1022E000FB6993FAA3F3BB61BB69B3FA83F322FAE8
:1022F00003F307F13802134413F8343C7B62FB6AA2
:1023000003F48033002B1ED0194B5B6803F40032BA
:102310004FF400333B623B6A93FAA3F37B617B6922
:10232000B3FA83F322FA03F307F13802134413F8E4
:10233000383CBB620F4ABB6AB2FBF3F37A6A02FB1A
:1023400003F37B6304E07B6A0B4A02FB03F37B63CA
:102350007B6B3B6302E0074B3B6300BF3B6B184664
:102360003837BD4690BC704784310008943100086E
:102370000010024000127A0000093D0080B400AF56
:10238000024B1B681846BD4680BC70470000002009
:1023900080B582B000AFFFF7F1FF01460B4B5B68E1
:1023A00003F4E0624FF4E0637B607B6893FAA3F38D
:1023B0003B603B68B3FA83F322FA03F3044AD35C2D
:1023C00021FA03F318460837BD4680BD00100240CD
:1023D0007C31000880B582B000AFFFF7CFFF014627
:1023E0000B4B5B6803F460524FF460537B607B6877
:1023F00093FAA3F33B603B68B3FA83F322FA03F347
:10240000044AD35C21FA03F318460837BD4680BD61
:10241000001002407C31000880B582B000AF114B43
:102420007B60114B3B6007E03B681A1D3A607A689D
:10243000111D796012681A603B680C4A9342F3D30D
:102440000B480C494FF000028842B8BF40F8042BFB
:10245000FADBFEF709FE00F0B5FA00BF0837BD460B
:1024600080BD00BFD2310008000000200400002021
:10247000040000206802002080B400AFFEE700BF27
:1024800080B582B000AF78607B68002B01D101235A
:102490003BE07B6893F83930DBB2002B06D17B68D8
:1024A000002283F83820786800F026FE7B6802223C
:1024B00083F839207B681B687A681268D26822F436
:1024C0000052DA60786800F067F97B681B687A6808
:1024D0001268126922F490421A617B681B687A685C
:1024E0001268526922F02A025A617B681B687A6876
:1024F0001268D26842F40052DA607B680022DA6324
:102500007B68012283F83920002318460837BD462E
:1025100080BD00BF80B586B000AFF860B9603B6099
:102520001346FB8000237B61FB6893F83930DBB2F4
:102530007B617B69012B03D07B69222B40F08D806E
:10254000BB68002B02D0FB88002B01D1012385E062
:10255000FB6893F83830012B01D102237EE0FB6841
:10256000012283F83820FB680022DA63FB6893F8C5
:102570003930DBB2222B04D1FB68322283F83920B8
:1025800003E0FB68122283F83920FB68FA889A84FA
:10259000FB68FA88DA843CE0FB68DB8C013B9AB28A
:1025A000FB68DA84FB689B68B3F5805F1FD13B68EA
:1025B00000228021F86800F055F80346002B01D076
:1025C00003234BE0BB683B61FB681B683A691288D8
:1025D000C2F308025A60FB681B69002B03D1BB6879
:1025E0000233BB6015E0BB680133BB6011E03B68A0
:1025F00000228021F86800F035F80346002B01D056
:1026000003232BE0FB681A68BB68591CB9601B7870
:102610005360FB68DB8C002BBED13B68002240215D
:10262000F86800F01FF80346002B01D0032315E0E3
:10263000FB6893F83930DBB2322B04D1FB682222DD
:1026400083F8392003E0FB68012283F83920FB6816
:10265000002283F83820002300E0022318461837B0
:10266000BD4680BD80B586B000AFF860B9603B6004
:102670001346FB7100237B61FEF76CFB7861FB79ED
:10268000002B7BD138E03B68B3F1FF3F34D03B688F
:10269000002B07D0FEF75EFB02467B69D21A3B682F
:1026A0009A4229D9FB681B68FA681268D26822F03E
:1026B0008002DA60FB681B68FA681268D26822F050
:1026C0002002DA60FB681B68FA681268D26822F49C
:1026D0008072DA60FB681B68FA681268526922F03F
:1026E00001025A61FB68012283F83920FB6800224D
:1026F00083F8382003234AE0FB681B681A68BB682C
:102700001A40BB689A42BED140E03B68B3F1FF3F3C
:1027100034D03B68002B07D0FEF71CFB02467B69D8
:10272000D21A3B689A4229D9FB681B68FA6812687A
:10273000D26822F08002DA60FB681B68FA681268CF
:10274000D26822F02002DA60FB681B68FA6812681F
:10275000D26822F48072DA60FB681B68FA6812683B
:10276000526922F001025A61FB68012283F8392084
:10277000FB68002283F83820032308E0FB681B680D
:102780001A68BB681A40BB689A42BED0002318463C
:102790001837BD4680BD00BFF0B585B000AF78608A
:1027A0000023FB607B681B687A681268126922F458
:1027B00040517A68D2680A431A617B689A687B68DC
:1027C0001B691A437B685B691343FB607B681A686B
:1027D0007B681B68DB6823F4B05323F00C03F968B3
:1027E0000B43D3607B681B687A681268526922F4D5
:1027F00040717A6892690A435A617B681B686F4A24
:1028000093426BD17B681C68FFF7E4FD02461346D8
:102810009B0013449A001A447B685B689B00B2FBE0
:10282000F3F3674AA2FB03235B091D01FFF7D2FD07
:10283000024613469B0013449A001A447B685B6867
:102840009B00B2FBF3F6FFF7C5FD024613469B0063
:1028500013449A001A447B685B689B00B2FBF3F355
:10286000574AA2FB03235B09642202FB03F3F31A1A
:102870001B013233524AA2FB03235B0903F0F0032E
:102880001D44FFF7A7FD024613469B0013449A0020
:102890001A447B685B689B00B2FBF3F6FFF79AFD76
:1028A000024613469B0013449A001A447B685B68F7
:1028B0009B00B2FBF3F3424AA2FB03235B096422B1
:1028C00002FB03F3F31A1B0132333D4AA2FB03233D
:1028D0005B0903F00F032B44A3606AE07B681C686C
:1028E000FFF756FD024613469B0013449A001A4414
:1028F0007B685B689B00B2FBF3F3314AA2FB0323C6
:102900005B091D01FFF744FD024613469B0013447B
:102910009A001A447B685B689B00B2FBF3F6FFF7F2
:1029200037FD024613469B0013449A001A447B6805
:102930005B689B00B2FBF3F3214AA2FB03235B0914
:10294000642202FB03F3F31A1B0132331C4AA2FB7D
:1029500003235B0903F0F0031D44FFF719FD024652
:1029600013469B0013449A001A447B685B689B00E3
:10297000B2FBF3F6FFF70CFD024613469B0013442F
:102980009A001A447B685B689B00B2FBF3F30C4A25
:10299000A2FB03235B09642202FB03F3F31A1B016E
:1029A0003233074AA2FB03235B0903F00F032B44D6
:1029B000A36000BF1437BD46F0BD00BF0038014022
:1029C0001F85EB5180B58AB000AFFEF783F900F0A8
:1029D0006BF800F023F900F0B9F800F0F1F82C4B97
:1029E0002C4A1A632A4B2C4A5A6300237B61012329
:1029F000BB610023FB614AF240733B604AF68013DF
:102A00007B604AF2A073BB604AF6E013FB600023D0
:102A10003B6101233B6201237B623B4619461C4814
:102A2000FDF756FC01237B614FF4A0733B604FF42C
:102A3000CC637B604FF4A073BB604FF4CC63FB604E
:102A40003B4619461248FDF743FC00211048FDF7AC
:102A500087FE4FF4FA70FEF787F900224FF4005119
:102A60000E4800F0A3FA4FF4FA70FEF77DF96421E6
:102A70000748FDF7FFFC03461A46094B1A70084B3E
:102A80001B78194664230A220648FFF743FDE0E756
:102A90005400002008000020240000200010014005
:102AA000500000205C01002080B590B000AF0123F1
:102AB000BB614FF48033FB6100233B620123BB62A7
:102AC00002237B634FF48033BB634FF4E013FB635B
:102AD00007F118031846FEF7FBFA0346002B03D054
:102AE000CF21184800F0FEF80F237B600223BB6063
:102AF0000023FB604FF4E0633B6100237B613B1DDF
:102B000002211846FFF704FA0346002B03D0DD210B
:102B10000C4800F0E7F8FFF731FC02460A4BA3FB34
:102B200002239B091846FEF76BFA0420FEF774FA9D
:102B3000002200214FF0FF30FEF738FA00BF403787
:102B4000BD4680BD98310008D34D621080B500AFFE
:102B5000184B194A1A60174B10225A60154B4FF048
:102B600040429A60134B0022DA60124B00221A6135
:102B7000104B00225A610F4B00229A610D4B00222C
:102B8000DA610C4B00221A620A4B00225A62094B8E
:102B900000229A62074B0022DA620648FDF7B6FA75
:102BA0000346002B03D0FE21044800F09BF800BF31
:102BB00080BD00BF54000020006400409831000830
:102BC00080B500AF124B134A1A60114B4FF4E1323B
:102BD0005A600F4B00229A600D4B0022DA600C4BBA
:102BE00000221A610A4B0C225A61094B00229A6199
:102BF000074B0022DA610648FFF742FC0346002B30
:102C000004D040F21111044800F06CF800BF80BD00
:102C10005C010020003801409831000880B588B080
:102C200000AF234A224B9B6943F010039361204B72
:102C30009B6903F01003FB60FB681D4A1C4B9B69FA
:102C400043F0200393611A4B9B6903F02003BB60A0
:102C5000BB68174A164B9B6943F004039361144BFE
:102C60009B6903F004037B607B68114A104B9B69EE
:102C700043F0080393610E4B9B6903F008033B602C
:102C80003B6800224FF400510A4800F08FF94FF4DE
:102C900000533B6101237B610223FB6107F11003B9
:102CA0001946044800F024F800BF2037BD4680BD17
:102CB000001002400010014080B582B000AF786083
:102CC00001224FF40051054800F070F9002104483A
:102CD000FDF746FD00BF0837BD4680BD001001402E
:102CE0005400002080B483B000AF78603960FEE704
:102CF00080B48BB000AF786039600023FB610023A3
:102D0000BB6100237B6100233B6200233B61002306
:102D10007B6227E101227B6A02FA03F3FB613B68D5
:102D20001A68FB691340BB61BA69FB699A4240F0BB
:102D300016813B685B68122B34D0122B0DD8022B06
:102D40002BD0022B04D8002B31D0012B1CD048E013
:102D5000032B43D0112B1BD043E0874A934226D04C
:102D6000854A934206D8854A934220D0844A9342AA
:102D70001DD036E0834A934219D0834A934216D03D
:102D8000824A934213D02CE03B68DB683B6228E028
:102D90003B68DB6804333B6223E03B68DB68083355
:102DA0003B621EE03B68DB680C333B6219E03B682A
:102DB0009B68002B02D104233B6212E03B689B68B6
:102DC000012B05D108233B627B68FA691A6108E090
:102DD00008233B627B68FA695A6102E000233B6288
:102DE00000BFBB69FF2B01D87B6801E07B6804331F
:102DF000FB60BB69FF2B02D87B6A9B0002E07B6A09
:102E0000083B9B003B61FB681A680F213B6901FA94
:102E100003F3DB431A40396A3B6901FA03F31A43AF
:102E2000FB681A603B685B6803F08053002B00F07E
:102E30009680574A564B9B6943F001039361544B6C
:102E40009B6903F00103BB60BB68524A7B6A9B0825
:102E5000023352F823307B617B6A03F003039B004B
:102E60000F2202FA03F3DB437A6913407B617B682C
:102E7000494A934213D07B68484A93420DD07B68FD
:102E8000474A934207D07B68464A934201D10323C5
:102E900006E0042304E0022302E0012300E0002313
:102EA0007A6A02F00302920093407A6913437B61CD
:102EB00038497B6A9B0802337A6941F823203B68D2
:102EC0005B6803F48033002B06D03749364B1A6811
:102ED000BB6913430B6006E03349334B1A68BB6987
:102EE000DB4313400B603B685B6803F40033002B4B
:102EF00006D02D492C4B5A68BB6913434B6006E042
:102F00002949294B5A68BB69DB4313404B603B6836
:102F10005B6803F48013002B06D02349224B9A6888
:102F2000BB6913438B6006E01F491F4B9A68BB695E
:102F3000DB4313408B603B685B6803F40013002B9A
:102F400006D01949184BDA68BB691343CB6006E019
:102F50001549154BDA68BB69DB431340CB607B6ACC
:102F600001337B627B6A0F2B7FF6D4AE00BF2C3718
:102F7000BD4680BC704700BF00002110000011104A
:102F8000000012100000311000003210000022106A
:102F9000001002400000014000080140000C014008
:102FA00000100140001401400004014080B483B0CF
:102FB00000AF78600B467B8013467B707B78002BDC
:102FC00003D07A887B681A6103E07B881A047B68E7
:102FD0001A6100BF0C37BD4680BC704780B582B017
:102FE00000AF224A214B9B6943F0010393611F4BC1
:102FF0009B6903F001037B607B680320FDF7CAFF38
:10300000002200216FF00B00FDF7D0FF002200210D
:103010006FF00A00FDF7CAFF002200216FF00900DF
:10302000FDF7C4FF002200216FF00400FDF7BEFF92
:10303000002200216FF00300FDF7B8FF00220021FD
:103040006FF00100FDF7B2FF002200214FF0FF30CA
:10305000FDF7ACFF064A064B5B6823F0E06343F0E4
:103060008073536000BF0837BD4680BD001002402A
:103070000000014080B588B000AF78607B681B68B5
:103080001A4A93422DD11A4A194BDB6943F0007357
:10309000D361174BDB6903F00073FB60FB684FF4EF
:1030A00000633B6100237B610023BB6107F11003D8
:1030B00019461048FFF71CFE4FF480533B61022372
:1030C0007B610323FB6107F1100319460948FFF7F1
:1030D0000FFE002200211520FDF768FF1520FDF7E7
:1030E00081FF00BF2037BD4680BD00BF00640040A7
:1030F000001002400008014080B588B000AF786041
:103100007B681B68164A934225D1164A154B9B696A
:1031100043F480439361134B9B6903F48043FB604A
:10312000FB684FF400733B6102237B610323FB6167
:1031300007F1100319460C48FFF7DAFD4FF48063DE
:103140003B6100237B610023BB6107F1100319463B
:103150000548FFF7CDFD00BF2037BD4680BD00BF4D
:10316000003801400010024000080140000000004B
:103170000000000001020304060708090000000027
:103180000102030402030405060708090A0B0C0DDB
:103190000E0F101001020000433A5C53544D5C7056
:1031A000726F6A656374735C436F6F436F785F43DC
:1031B000414E5F4C697374656E5C43414E5F54725F
:1031C000616E736D69745C5372635C6D61696E2EC0
:0231D00063009A
:0431D20000A24A0409
:0400000508000000EF
:00000001FF
