:020000040800F2
:1000000078060020450E0008A1030008AD03000893
:10001000B5030008BD030008C50300080000000088
:10002000000000000000000000000000CD030008F8
:10003000D903000800000000E5030008F1030008F0
:10004000A50E0008A50E0008A50E0008A50E0008C4
:10005000A50E0008A50E0008A50E0008A50E0008B4
:10006000A50E0008A50E0008A50E0008A50E0008A4
:10007000A50E0008A50E0008A50E0008A50E000894
:10008000A50E0008A50E0008A50E0008A50E000884
:10009000A50E0008A50E0008A50E0008A50E000874
:1000A000A50E0008A50E0008A50E0008A50E000864
:1000B000A50E0008A50E0008A50E0008A50E000854
:1000C000A50E0008A50E0008A50E0008A50E000844
:1000D000A50E0008A50E0008A50E0008A50E000834
:1000E000A50E0008A50E0008A50E000800000000DF
:1000F0000000000000000000000000000000000000
:1001000000000000000000005FF808F180B586B034
:1001100000AF786000237B610023FB6000233B611C
:100120007B68002B01D10123ECE07B6893F83C3025
:10013000DBB2002B06D17B68002283F83D20786873
:1001400001F04AFC7B68022283F83C207B681B6834
:100150007A681268126822F002021A607B681B68D3
:100160007A681268126842F001021A6000F00EF913
:10017000F86010E000F00AF90246FB68D31A0A2B77
:1001800009D97B68032283F83C207B68002283F82E
:100190003D200323B6E07B681B685B6803F0010326
:1001A000002BE7D07B681B685B6803F00103002B22
:1001B00000F097807B689B69012B04D13B6943F079
:1001C00080033B6103E03B6923F080033B617B6874
:1001D000DB69012B04D13B6943F040033B6103E041
:1001E0003B6923F040033B617B681B6A012B04D110
:1001F0003B6943F020033B6103E03B6923F02003AC
:100200003B617B685B6A012B04D13B6943F01003BF
:100210003B6103E03B6923F010033B617B689B6A11
:10022000012B04D13B6943F008033B6103E03B69C8
:1002300023F008033B617B68DB6A012B04D13B6937
:1002400043F004033B6103E03B6923F004033B619B
:100250007B681B687A681268126822F0FC013A69B0
:100260000A431A607B681B687A6891687A68D2686A
:1002700011437A68126911437A68526911437A68A6
:100280005268013A0A43DA617B681B687A6812682F
:10029000126822F001021A6000F078F8F86010E0AD
:1002A00000F074F80246FB68D31A0A2B09D97B6860
:1002B000032283F83C207B68002283F83D2003233F
:1002C00020E07B681B685B6803F00103002BE7D12B
:1002D0007B681B685B6803F00103002B01D10123DD
:1002E0007B617B69012B08D17B6800221A647B68E3
:1002F000012283F83C20002304E07B68042283F879
:100300003C20012318461837BD4680BD80B500AF9C
:10031000084A084B1B6843F010031360032000F0E9
:100320001DF9002000F008F801F006FB0023184634
:1003300080BD00BF0020024080B582B000AF786071
:10034000094B1B68094AA2FB03239B09184600F0CE
:100350002DF9002279684FF0FF3000F00BF90023EF
:1003600018460837BD4680BD00000020D34D6210FE
:1003700080B400AF044B1B680133034A136000BF15
:10038000BD4680BC704700BF2400002080B400AF91
:10039000024B1B681846BD4680BC704724000020F5
:1003A00080B400AF00BFBD4680BC704780B400AFD2
:1003B000FEE700BF80B400AFFEE700BF80B400AF2F
:1003C000FEE700BF80B400AFFEE700BF80B400AF1F
:1003D00000BFBD4680BC704780B400AF00BFBD46C3
:1003E00080BC704780B400AF00BFBD4680BC704782
:1003F00080B500AFFFF7BCFF00F000F900BF80BD83
:1004000080B485B000AF78607B6803F00703FB60C1
:100410000C4BDB68BB60BA684FF6FF031340BB6050
:10042000FB681A02BB68134343F0BF6343F4003315
:10043000BB60044ABB68D36000BF1437BD4680BCB4
:10044000704700BF00ED00E080B400AF044BDB68F4
:1004500003F4E0631B0A1846BD4680BC704700BF2A
:1004600000ED00E080B483B000AF03463960FB715B
:1004700097F90730002B0BDA0D49FB7903F00F03D6
:10048000043B3A68D2B21201D2B20B441A7609E0A8
:10049000084997F907303A68D2B21201D2B20B4438
:1004A00083F8002300BF0C37BD4680BC704700BFF7
:1004B00000ED00E000E100E080B489B000AFF8603A
:1004C000B9607A60FB6803F00703FB61FB69C3F165
:1004D0000703042B28BF0423BB61FB690433062BED
:1004E00002D9FB69033B00E000237B610122BB6969
:1004F00002FA03F35A1EBB681A407B699A40012135
:100500007B6901FA03F3591E7B680B4013431846BD
:100510002437BD4680BC704780B582B000AF78609C
:100520007B68013BB3F1807F01D301230FE00A4ACE
:100530007B68013B53600F214FF0FF30FFF792FFC4
:10054000054B00229A60044B07221A6000231846CC
:100550000837BD4680BD00BF10E000E080B582B026
:1005600000AF78607868FFF74BFF00BF0837BD46E3
:1005700080BD00BF80B586B000AF0346B9607A6029
:10058000FB7300237B61FFF75FFF78617A68B968CE
:100590007869FFF791FF024697F90F301146184628
:1005A000FFF760FF00BF1837BD4680BD80B582B041
:1005B00000AF78607868FFF7AFFF0346184608374A
:1005C000BD4680BD80B483B000AF78607B68042BEB
:1005D00006D1094A084B1B6843F00403136005E089
:1005E000054A054B1B6823F00403136000BF0C375A
:1005F000BD4680BC704700BF10E000E080B500AF92
:1006000000F002F800BF80BD80B400AF00BFBD465F
:1006100080BC704780B400AF154A154B1B6843F08F
:10062000010313601249124B5A68124B13404B607E
:100630000F4A0F4B1B6823F0847323F4803313603D
:100640000B4A0B4B1B6823F480231360084A084BAA
:100650005B6823F4FE035360054B4FF41F029A605E
:10066000054B4FF000629A6000BFBD4680BC7047EA
:10067000001002400000FFF800ED00E080B586B0F9
:1006800000AF786000233B617B681B6803F00103C7
:10069000002B00F08680924B5B6803F00C03042B68
:1006A0000BD08F4B5B6803F00C03082B11D18C4BE4
:1006B0005B6803F48033002B0BD0894B1B6803F479
:1006C0000033002B6CD07B685B68002B68D1012362
:1006D0002EE27B685B68B3F5803F06D1804A804B91
:1006E0001B6843F4803313602EE07B685B68002B4B
:1006F0000CD17B4A7A4B1B6823F480331360784A11
:10070000774B1B6823F4802313601DE07B685B68D4
:10071000B3F5A02F0CD1724A714B1B6843F48023B0
:1007200013606F4A6E4B1B6843F4803313600BE019
:100730006B4A6B4B1B6823F480331360684A684B29
:100740001B6823F4802313607B685B68002B13D045
:10075000FFF71CFE386108E0FFF718FE02463B6910
:10076000D31A642B01D90323E2E15D4B1B6803F428
:100770000033002BF0D014E0FFF708FE386108E0EA
:10078000FFF704FE02463B69D31A642B01D9032309
:10079000CEE1534B1B6803F40033002BF0D100E093
:1007A00000BF7B681B6803F00203002B63D04C4B37
:1007B0005B6803F00C03002B0BD0494B5B6803F024
:1007C0000C03082B1CD1464B5B6803F48033002BD1
:1007D00016D1434B1B6803F00203002B05D07B6846
:1007E0001B69012B01D00123A2E13D493C4B1B6851
:1007F00023F0F8027B685B69DB0013430B603AE08F
:100800007B681B69002B20D0364B01221A60FFF752
:10081000BDFD386108E0FFF7B9FD02463B69D31A18
:10082000022B01D9032383E12D4B1B6803F0020344
:10083000002BF0D02A492A4B1B6823F0F8027B6872
:100840005B69DB0013430B6015E0264B00221A6046
:10085000FFF79CFD386108E0FFF798FD02463B6911
:10086000D31A022B01D9032362E11D4B1B6803F04D
:100870000203002BF0D17B681B6803F00803002BF8
:100880003AD07B689B69002B19D0174B01221A6064
:10089000FFF77CFD386108E0FFF778FD02463B6911
:1008A000D31A022B01D9032342E10D4B5B6A03F0FB
:1008B0000203002BF0D0012000F0A6FA1CE00A4B46
:1008C00000221A60FFF762FD38610FE0FFF75EFD5E
:1008D00002463B69D31A022B08D9032328E100BF43
:1008E000001002400000424280044242924B5B6A88
:1008F00003F00203002BE9D17B681B6803F00403BB
:10090000002B00F0A6800023FB758B4BDB6903F006
:100910008053002B0DD1884A874BDB6943F080530D
:10092000D361854BDB6903F08053FB60FB680123D7
:10093000FB75824B1B6803F48073002B18D17F4A30
:100940007E4B1B6843F480731360FFF71FFD386113
:1009500008E0FFF71BFD02463B69D31A642B01D95F
:100960000323E5E0754B1B6803F48073002BF0D084
:100970007B68DB68012B06D16F4A6F4B1B6A43F023
:10098000010313622DE07B68DB68002B0CD16A4AFF
:10099000694B1B6A23F001031362674A664B1B6AAB
:1009A00023F0040313621CE07B68DB68052B0CD189
:1009B000614A614B1B6A43F0040313625E4A5E4B5B
:1009C0001B6A43F0010313620BE05B4A5A4B1B6A3C
:1009D00023F001031362584A574B1B6A23F00403A8
:1009E00013627B68DB68002B15D0FFF7CFFC386102
:1009F0000AE0FFF7CBFC02463B69D31A41F288328A
:100A0000934201D9032393E04B4B1B6A03F002038B
:100A1000002BEED014E0FFF7B9FC38610AE0FFF7D5
:100A2000B5FC02463B69D31A41F28832934201D9A0
:100A300003237DE0404B1B6A03F00203002BEED141
:100A4000FB7D012B05D13C4A3B4BDB6923F08053F6
:100A5000D3617B68DB69002B69D0374B5B6803F09F
:100A60000C03082B61D07B68DB69022B46D1344B29
:100A700000221A60FFF78AFC386108E0FFF786FC65
:100A800002463B69D31A022B01D9032350E02A4BBB
:100A90001B6803F00073002BF0D17B681B6AB3F571
:100AA000803F08D12449244B5B6823F400327B68E3
:100AB0009B6813434B6020481F4B5B6823F4741200
:100AC0007B68196A7B685B6A0B43134343601C4B6A
:100AD00001221A60FFF75AFC386108E0FFF756FC64
:100AE00002463B69D31A022B01D9032320E0124BA3
:100AF0001B6803F00073002BF0D018E0104B0022AD
:100B00001A60FFF743FC386108E0FFF73FFC02463C
:100B10003B69D31A022B01D9032309E0064B1B685A
:100B200003F00073002BF0D101E0012300E000236B
:100B300018461837BD4680BD0010024000700040C6
:100B40006000424280B584B000AF78603960002315
:100B5000FB60724B1B6803F007023B689A4210D29D
:100B60006E496E4B1B6823F007023B6813430B6012
:100B70006A4B1B6803F007023B689A4201D00123CD
:100B8000C8E07B681B6803F00203002B08D06449AF
:100B9000634B5B6823F0F0027B689B6813434B60F8
:100BA0007B681B6803F00103002B6AD07B685B68DD
:100BB000012B07D15A4B1B6803F40033002B15D1CE
:100BC0000123A7E07B685B68022B07D1544B1B68AD
:100BD00003F00073002B09D101239BE0504B1B68ED
:100BE00003F00203002B01D1012393E04C494C4B4D
:100BF0005B6823F003027B685B6813434B60FFF77D
:100C0000C5FBF8607B685B68012B12D10AE0FFF737
:100C1000BDFB0246FB68D31A41F28832934201D9E8
:100C2000032377E03E4B5B6803F00C03042BEED10B
:100C300027E07B685B68022B1DD10AE0FFF7A6FB6B
:100C40000246FB68D31A41F28832934201D903234A
:100C500060E0334B5B6803F00C03082BEED110E02F
:100C6000FFF794FB0246FB68D31A41F288329342A5
:100C700001D903234EE02A4B5B6803F00C03002BE1
:100C8000EED1264B1B6803F007023B689A4210D94D
:100C90002249224B1B6823F007023B6813430B6079
:100CA0001E4B1B6803F007023B689A4201D00123E8
:100CB00030E07B681B6803F00403002B08D0184960
:100CC000174B5B6823F4E0627B68DB6813434B607F
:100CD0007B681B6803F00803002B09D01049104BF8
:100CE0005B6823F460527B681B69DB0013434B6035
:100CF00000F01CF801460A4B5B6803F0F0031B0987
:100D0000084AD35C21FA03F3074A13600020FFF777
:100D100013FB002318461037BD4680BD002002405B
:100D200000100240BC1A00080000002090B48AB0F5
:100D300000AF2B4B3C1D186859689A68DB680FC4DC
:100D4000284A3B4612881A800023FB610023BB61BE
:100D500000237B6200237B6100233B62224B5B68A4
:100D6000FB61FB6903F00C03042B02D0082B03D0BA
:100D70002DE01E4B3B622DE0FB699B0C03F00F0343
:100D800007F12802134413F8243C7B61FB6903F448
:100D90008033002B13D0144B5B6803F400335B0CDF
:100DA00007F12802134413F8283CBB610F4ABB69C2
:100DB000B2FBF3F37A6902FB03F37B6204E07B6925
:100DC0000B4A02FB03F37B627B6A3B6202E0074B48
:100DD0003B6200BF3B6A18462837BD4690BC70474F
:100DE000D41A0008E41A00080010024000127A0029
:100DF00000093D0080B400AF024B1B681846BD4699
:100E000080BC70470000002080B485B000AF7860DF
:100E10000A4B1B680A4AA2FB03235B0A7A6802FB9F
:100E200003F3FB6000BFFB685A1EFA60002BF9D188
:100E300000BF1437BD4680BC704700BF00000020D3
:100E4000D34D621080B582B000AF114B7B60114B67
:100E50003B6007E03B681A1D3A607A68111D7960B3
:100E600012681A603B680C4A9342F3D30B480C4952
:100E70004FF000028842B8BF40F8042BFADBFFF7BE
:100E8000C9FB00F013F800BF0837BD4680BD00BFA6
:100E9000241B000800000020240000202400002063
:100EA0007402002080B400AFFEE700BF80B58CB0B4
:100EB00002AFFFF72BFA00F01FF800F0E1F800F0A6
:100EC0006DF800F0A3F8FF237B604FF40051064853
:100ED00000F0F8FA4FF47A7300930823034A0449A8
:100EE000044800F001FBF0E7001001408C010020F5
:100EF000040000203401002080B590B000AF012331
:100F0000BB614FF48033FB6100233B620123BB6272
:100F100002237B634FF48033BB634FF48013FB6386
:100F200007F118031846FFF7A9FB0346002B03D06F
:100F3000A021184800F0E6F80F237B600223BB6075
:100F40009023FB6000233B6100237B613B1D01215B
:100F50001846FFF7F7FD0346002B03D0AE210D48DE
:100F600000F0D0F8FFF746FF02460B4BA3FB02232D
:100F70009B091846FFF71AFB0420FFF723FB00220A
:100F800000214FF0FF30FFF7F5FA00BF4037BD46B4
:100F900080BD00BFE81A0008D34D621080B500AFD5
:100FA000174B184A1A60164B10225A60144B002235
:100FB0009A60134B0022DA60114B00221A61104B29
:100FC00000225A610E4B00229A610D4B0022DA6119
:100FD0000B4B00221A620A4B00225A62084B002275
:100FE0009A62074B0022DA620548FFF78FF8034642
:100FF000002B03D0CF21044800F084F800BF80BD4F
:101000002800002000640040E81A000880B500AF06
:10101000184B194A1A60174B4FF482725A60154BDD
:1010200000229A60134B0022DA60124B00221A61F0
:10103000104B00225A610F4B4FF400729A610D4B16
:101040000022DA610B4B00221A620A4B00225A621C
:10105000084B00229A62074B0A22DA62054800F028
:1010600057F80346002B03D0E721044800F04AF864
:1010700000BF80BD3401002000300140E81A0008A4
:1010800080B588B000AF1D4A1C4B9B6943F010032C
:1010900093611A4B9B6903F01003FB60FB68174ACE
:1010A000164B9B6943F020039361144B9B6903F03B
:1010B0002003BB60BB68114A104B9B6943F00403DB
:1010C00093610E4B9B6903F004037B607B680022F5
:1010D0004FF400510A4800F0DDF94FF400533B6132
:1010E00001237B610223FB6107F1100319460448C9
:1010F00000F072F800BF2037BD4680BD00100240EE
:101100000010014080B483B000AF78603960FEE722
:1011100080B582B000AF78607B68002B01D10123DD
:1011200056E07B6800229A627B6893F85130DBB20C
:10113000002B02D1786800F089FC7B68022283F8DA
:1011400051207B681B687A681268126822F040029E
:101150001A607B681B687A6851687A6892681143E4
:101160007A68D26811437A68126911437A685269C1
:1011700011437A68926902F4007211437A68D26965
:1011800011437A68126A11437A68926A0A431A60B4
:101190007B681B687A689269120C02F004017A6815
:1011A000526A0A435A607B681B687A68D26A1A617D
:1011B0007B681B687A681268D26922F40062DA617F
:1011C0007B6800225A657B68012283F85120002346
:1011D00018460837BD4680BD80B48BB000AF78603C
:1011E00039600023FB610023BB6100237B61002386
:1011F0003B6200233B6100237B6227E101227B6A83
:1012000002FA03F3FB613B681A68FB691340BB6198
:10121000BA69FB699A4240F016813B685B68122B01
:1012200034D0122B0DD8022B2BD0022B04D8002B3C
:1012300031D0012B1CD048E0032B43D0112B1BD005
:1012400043E0874A934226D0854A934206D8854A8E
:10125000934220D0844A93421DD036E0834A934281
:1012600019D0834A934216D0824A934213D02CE07D
:101270003B68DB683B6228E03B68DB6804333B6229
:1012800023E03B68DB6808333B621EE03B68DB68B9
:101290000C333B6219E03B689B68002B02D10423AE
:1012A0003B6212E03B689B68012B05D108233B623F
:1012B0007B68FA691A6108E008233B627B68FA6977
:1012C0005A6102E000233B6200BFBB69FF2B01D8DB
:1012D0007B6801E07B680433FB60BB69FF2B02D8AD
:1012E0007B6A9B0002E07B6A083B9B003B61FB68DA
:1012F0001A680F213B6901FA03F3DB431A40396A8C
:101300003B6901FA03F31A43FB681A603B685B68A8
:1013100003F08053002B00F09680574A564B9B6990
:1013200043F001039361544B9B6903F00103BB60DD
:10133000BB68524A7B6A9B08023352F823307B61B8
:101340007B6A03F003039B000F2202FA03F3DB43E3
:101350007A6913407B617B68494A934213D07B686A
:10136000484A93420DD07B68474A934207D07B6836
:10137000464A934201D1032306E0042304E00223FA
:1013800002E0012300E000237A6A02F003029200E7
:1013900093407A6913437B6138497B6A9B08023327
:1013A0007A6941F823203B685B6803F48033002BA3
:1013B00006D03749364B1A68BB6913430B6006E009
:1013C0003349334B1A68BB69DB4313400B603B68FE
:1013D0005B6803F40033002B06D02D492C4B5A6870
:1013E000BB6913434B6006E02949294B5A68BB6926
:1013F000DB4313404B603B685B6803F48013002BB6
:1014000006D02349224B9A68BB6913438B6006E0E0
:101410001F491F4B9A68BB69DB4313408B603B68D5
:101420005B6803F40013002B06D01949184BDA68E7
:10143000BB691343CB6006E01549154BDA68BB69FD
:10144000DB431340CB607B6A01337B627B6A0F2BEB
:101450007FF6D4AE00BF2C37BD4680BC704700BFBE
:1014600000002110000011100000121000003110C7
:101470000000321000002210001002400000014065
:1014800000080140000C0140001001400014014020
:101490000004014080B483B000AF78600B467B80CD
:1014A00013467B707B78002B03D07A887B681A61A7
:1014B00003E07B881A047B681A6100BF0C37BD46C5
:1014C00080BC704780B483B000AF78600B467B80EF
:1014D0007B68DA687B885A407B68DA6000BF0C372B
:1014E000BD4680BC704700BF80B58CB002AFF860CD
:1014F000B9607A607B800023FB610023BB6100231D
:101500007B6101237B62002387F82330FB6893F81B
:101510005030012B01D1022381E1FB68012283F8C5
:101520005020FEF733FF7861FB6893F85130DBB24F
:10153000FB61FB685B68BB61FB69012B0ED0BB697B
:10154000B3F5827F06D1FB689B68002B02D1FB6953
:10155000042B03D0022387F8233056E1BB68002B0D
:1015600005D07B68002B02D07B88002B03D10123A0
:1015700087F8233049E1FB6893F85130DBB2012B47
:1015800003D1FB68052283F85120FB6800225A65CD
:10159000FB687A689A63FB687A88DA87FB687A88DE
:1015A0009A87FB68BA681A63FB687A88DA86FB68F0
:1015B0007A889A86FB6800221A64FB6800225A64C3
:1015C000FB681B681B6803F04003002B07D1FB6816
:1015D0001B68FA681268126842F040021A60FB68E1
:1015E000DB68B3F5006F71D1FB685B68002B04D03A
:1015F000FB68DB8E9BB2012B5DD1FB681B68BA6870
:101600001288DA60BB680233BB60FB68DB8E9BB27A
:10161000013B9AB2FB68DA864DE07B6A002B1CD056
:10162000FB68DB8E9BB2002B17D0FB681B689B68A6
:1016300003F00203002B10D0FB681B68BA68128805
:10164000DA60BB680233BB60FB68DB8E9BB2013B98
:101650009AB2FB68DA8600237B62FB68DB8F9BB261
:10166000002B18D0FB681B689B6803F00103002B5C
:1016700011D0FB681B68DB689AB27B681A807B68B4
:1016800002337B60FB68DB8F9BB2013B9AB2FB6845
:10169000DA8701237B623B6BB3F1FF3F0BD0FEF790
:1016A00075FE02467B69D21A3B6B9A4203D3032331
:1016B00087F82330A9E0FB68DB8E9BB2002BACD10E
:1016C000FB68DB8F9BB2002BA7D171E0FB685B68E6
:1016D000002B04D0FB68DB8E9BB2012B5ED1FB6834
:1016E0001B680C33BA6812781A70BB680133BB6090
:1016F000FB68DB8E9BB2013B9AB2FB68DA864DE059
:101700007B6A002B1DD0FB68DB8E9BB2002B18D0B0
:10171000FB681B689B6803F00203002B11D0FB6879
:101720001B6803F10C02BB68591CB9601B7813706D
:10173000FB68DB8E9BB2013B9AB2FB68DA86002322
:101740007B62FB68DB8F9BB2002B17D0FB681B68AA
:101750009B6803F00103002B10D07B685A1C7A6051
:10176000FA681268D268D2B21A70FB68DB8F9BB23B
:10177000013B9AB2FB68DA8701237B623B6BB3F1D2
:10178000FF3F0BD0FEF702FE02467B69D21A3B6B8D
:101790009A4203D3032387F8233036E0FB68DB8EBD
:1017A0009BB2002BACD1FB68DB8F9BB2002BA7D187
:1017B0007B6900933B6B01220221F86800F034F84A
:1017C0000346002B03D0032387F823301DE07A69FA
:1017D000396BF86800F092F80346002B06D001231D
:1017E00087F82330FB6820225A650EE0FB689B686F
:1017F000002B0AD100233B61FB681B68DB683B615F
:10180000FB681B689B683B613B69FB68012283F8AE
:101810005120FB68002283F8502097F823301846A7
:101820002837BD4680BD00BF80B584B000AFF860EA
:10183000B9607A603B604DE03B68B3F1FF3F49D04F
:101840003B68002B07D0FEF7A1FD0246BB69D21A08
:101850003B689A423ED3FB681B68FA68126852687C
:1018600022F0E0025A60FB685B68B3F5827F11D119
:10187000FB689B68B3F5004F04D0FB689B68B3F529
:10188000806F07D1FB681B68FA681268126822F043
:1018900040021A60FB689B6AB3F5005F10D1FB68D9
:1018A0001A68FB681B6819684DF6FF730B401360DC
:1018B000FB681B68FA681268126842F400521A60EA
:1018C000FB68012283F85120FB68002283F8502036
:1018D00003230EE0FB681B689A68BB681A40BB686C
:1018E0009A4201D1012200E000227B689A42A3D1F2
:1018F000002318461037BD4680BD00BF80B586B0B6
:1019000002AFF860B9607A607B680093BB68002220
:101910008021F868FFF788FF0346002B07D0FB689B
:101920005B6D43F02002FB685A65032300E000234F
:1019300018461037BD4680BD80B582B000AF244A3E
:10194000234B9B6943F001039361214B9B6903F097
:1019500001037B607B680320FEF700FE002200216C
:101960006FF00B00FEF706FE002200216FF00A0068
:10197000FEF700FE002200216FF00900FEF7FAFDDD
:10198000002200216FF00400FEF7F4FD0022002188
:101990006FF00300FEF7EEFD002200216FF0010062
:1019A000FEF7E8FD002200214FF0FF30FEF7E2FDD8
:1019B000084A084B5B6823F0E0635360054A054B17
:1019C0005B6843F08063536000BF0837BD4680BD4D
:1019D000001002400000014080B588B000AF786080
:1019E0007B681B68164A934225D1164A154BDB6962
:1019F00043F00073D361134BDB6903F00073FB60AA
:101A0000FB684FF400633B6100237B610023BB61F3
:101A100007F1100319460C48FFF7DEFB4FF4805323
:101A20003B6102237B610323FB6107F1100319462D
:101A30000548FFF7D1FB00BF2037BD4680BD00BF82
:101A400000640040001002400008014080B588B0EA
:101A500000AF78607B681B68154A934223D1154A12
:101A6000144B9B6943F480539361124B9B6903F4BD
:101A70008053FB60FB68A0233B6102237B6103234F
:101A8000FB6107F1100319460B48FFF7A5FB402344
:101A90003B6100237B610023BB6107F11003194602
:101AA0000548FFF799FB00BF2037BD4680BD00BF4A
:101AB000003001400010024000080140000000001A
:101AC00000000000010203040607080900000000EE
:101AD0000102030402030405060708090A0B0C0DA2
:101AE0000E0F101001020000433A5C53544D5C701D
:101AF000726F6A656374735C436F6F436F785F43A3
:101B0000414E5F4C697374656E5C43414E5F535048
:101B1000495F4D61737465725C5372635C6D61699A
:041B20006E2E6300C2
:101B240000A24A040807060504030201000000009D
:101B340000000000000000000000000000000000A1
:041B4400000000009D
:0400000508000000EF
:00000001FF
