:020000040800F2
:10000000C8200020750E00084903000855030008A9
:100010005D030008650300086D0300080000000090
:100020000000000000000000000000007503000850
:1000300081030008000000008D03000899030008F8
:10004000D50E0008D50E0008D50E0008D50E000804
:10005000D50E0008D50E0008D50E0008D50E0008F4
:10006000D50E0008D50E0008D50E0008D50E0008E4
:10007000D50E0008D50E0008D50E0008D50E0008D4
:10008000D50E0008D50E0008D50E0008D50E0008C4
:10009000A9030008D50E0008D50E0008D50E0008EB
:1000A000D50E0008D50E0008D50E0008D50E0008A4
:1000B000D50E0008D50E0008D50E0008D50E000894
:1000C000D50E0008D50E0008D50E0008BD030008A7
:1000D000D1030008D50E0008D50E0008D50E000883
:1000E000D50E0008D50E0008D50E0008000000004F
:1000F0000000000000000000000000000000000000
:1001000000000000000000005FF808F180B586B034
:1001100000AF786000233B610023FB607B681B68B5
:1001200003F00103002B7DD00023FB754F4BDB69EF
:1001300003F08053002B0DD14C4A4C4BDB6943F04C
:100140008053D361494BDB6903F08053BB60BB68CC
:100150000123FB75464B1B6803F48073002B18D1F9
:10016000434A434B1B6843F48073136000F0C4F8A8
:10017000386108E000F0C0F802463B69D31A642BEE
:1001800001D903236DE03A4B1B6803F48073002B05
:10019000F0D0364B1B6A03F44073FB60FB68002B06
:1001A0002ED07B685B6803F44072FB689A4227D0CC
:1001B0002E4B1B6A23F44073FB602E4B01221A6006
:1001C0002C4B00221A60294AFB681362FB6803F07B
:1001D0000103002B14D000F08FF838610AE000F022
:1001E0008BF802463B69D31A41F28832934201D917
:1001F000032336E01D4B1B6A03F00203002BEED0F5
:100200001A491A4B1B6A23F440727B685B681343DC
:100210000B62FB7D012B05D1144A144BDB6923F0E3
:100220008053D3617B681B6803F00203002B08D066
:100230000E490E4B5B6823F440427B689B68134376
:100240004B607B681B6803F01003002B08D0074944
:10025000064B5B6823F480027B68DB6813434B60CA
:10026000002318461837BD4680BD00BF001002406D
:10027000007000404004424280B500AF084A084B7D
:100280001B6843F010031360032000F071F9002095
:1002900000F008F804F0C2FD0023184680BD00BF3E
:1002A0000020024080B582B000AF7860094B1B6827
:1002B000094AA2FB03239B09184600F08FF900228C
:1002C00079684FF0FF3000F05FF9002318460837D7
:1002D000BD4680BD00000020D34D621080B400AF49
:1002E000044B1B680133034A136000BFBD4680BC4A
:1002F000704700BF8403002080B400AF024B1B682E
:100300001846BD4680BC70478403002080B584B089
:1003100000AF7860FFF7F0FFB8607B68FB60FB68B8
:10032000B3F1FF3F02D0FB680133FB6000BFFFF772
:10033000E3FF0246BB68D21AFB689A42F7D300BFBC
:100340001037BD4680BD00BF80B400AF00BFBD46C2
:1003500080BC704780B400AFFEE700BF80B400AF40
:10036000FEE700BF80B400AFFEE700BF80B400AF7F
:10037000FEE700BF80B400AF00BFBD4680BC704741
:1003800080B400AF00BFBD4680BC704780B400AFF2
:1003900000BFBD4680BC704780B500AFFFF79EFF31
:1003A00000F044F900BF80BD80B500AF024800F006
:1003B00095FE00BF80BD00BF4006002080B500AFA5
:1003C000024804F0F5F900BF80BD00BFE003002043
:1003D00080B500AF024804F0EBF900BF80BD00BF5C
:1003E0008803002080B485B000AF78607B6803F09C
:1003F0000703FB600C4BDB68BB60BA684FF6FF037A
:100400001340BB60FB681A02BB68134343F0BF6331
:1004100043F40033BB60044ABB68D36000BF1437A9
:10042000BD4680BC704700BF00ED00E080B400AF67
:10043000044BDB6803F4E0631B0A1846BD4680BC2E
:10044000704700BF00ED00E080B483B000AF03460A
:10045000FB71084997F907305B09FA7902F01F022E
:10046000012000FA02F241F8232000BF0C37BD46FC
:1004700080BC704700E100E080B483B000AF034669
:100480003960FB7197F90730002B0BDA0D49FB79C6
:1004900003F00F03043B3A68D2B21201D2B20B440C
:1004A0001A7609E0084997F907303A68D2B2120182
:1004B000D2B20B4483F8002300BF0C37BD4680BC8A
:1004C000704700BF00ED00E000E100E080B489B0BB
:1004D00000AFF860B9607A60FB6803F00703FB6166
:1004E000FB69C3F10703042B28BF0423BB61FB692D
:1004F0000433062B02D9FB69033B00E000237B6138
:100500000122BB6902FA03F35A1EBB681A407B69D9
:100510009A4001217B6901FA03F3591E7B680B4065
:10052000134318462437BD4680BC704780B582B05F
:1005300000AF78607B68013BB3F1807F01D301237A
:100540000FE00A4A7B68013B53600F214FF0FF30F8
:10055000FFF792FF054B00229A60044B07221A60B6
:10056000002318460837BD4680BD00BF10E000E0FC
:1005700080B582B000AF78607868FFF733FF00BFC6
:100580000837BD4680BD00BF80B586B000AF0346CA
:10059000B9607A60FB7300237B61FFF747FF7861E6
:1005A0007A68B9687869FFF791FF024697F90F30CA
:1005B00011461846FFF760FF00BF1837BD4680BDE3
:1005C00080B582B000AF0346FB7197F9073018463B
:1005D000FFF73AFF00BF0837BD4680BD80B582B047
:1005E00000AF78607868FFF7A1FF03461846083728
:1005F000BD4680BD80B483B000AF78607B68042BBB
:1006000006D1094A084B1B6843F00403136005E058
:10061000054A054B1B6823F00403136000BF0C3729
:10062000BD4680BC704700BF10E000E080B500AF61
:1006300000F002F800BF80BD80B400AF00BFBD462F
:1006400080BC704780B400AF154A154B1B6843F05F
:10065000010313601249124B5A68124B13404B604E
:100660000F4A0F4B1B6823F0847323F4803313600D
:100670000B4A0B4B1B6823F480231360084A084B7A
:100680005B6823F4FE035360054B4FF41F029A602E
:10069000054B4FF000629A6000BFBD4680BC7047BA
:1006A000001002400000FFF800ED00E080B586B0C9
:1006B00000AF786000233B617B681B6803F0010397
:1006C000002B00F08680924B5B6803F00C03042B38
:1006D0000BD08F4B5B6803F00C03082B11D18C4BB4
:1006E0005B6803F48033002B0BD0894B1B6803F449
:1006F0000033002B6CD07B685B68002B68D1012332
:100700002EE27B685B68B3F5803F06D1804A804B60
:100710001B6843F4803313602EE07B685B68002B1A
:100720000CD17B4A7A4B1B6823F480331360784AE0
:10073000774B1B6823F4802313601DE07B685B68A4
:10074000B3F5A02F0CD1724A714B1B6843F4802380
:1007500013606F4A6E4B1B6843F4803313600BE0E9
:100760006B4A6B4B1B6823F480331360684A684BF9
:100770001B6823F4802313607B685B68002B13D015
:10078000FFF7BAFD386108E0FFF7B6FD02463B69A6
:10079000D31A642B01D90323E2E15D4B1B6803F4F8
:1007A0000033002BF0D014E0FFF7A6FD386108E01D
:1007B000FFF7A2FD02463B69D31A642B01D903233C
:1007C000CEE1534B1B6803F40033002BF0D100E063
:1007D00000BF7B681B6803F00203002B63D04C4B07
:1007E0005B6803F00C03002B0BD0494B5B6803F0F4
:1007F0000C03082B1CD1464B5B6803F48033002BA1
:1008000016D1434B1B6803F00203002B05D07B6815
:100810001B69012B01D00123A2E13D493C4B1B6820
:1008200023F0F8027B685B69DB0013430B603AE05E
:100830007B681B69002B20D0364B01221A60FFF722
:100840005BFD386108E0FFF757FD02463B69D31AAC
:10085000022B01D9032383E12D4B1B6803F0020314
:10086000002BF0D02A492A4B1B6823F0F8027B6842
:100870005B69DB0013430B6015E0264B00221A6016
:10088000FFF73AFD386108E0FFF736FD02463B69A5
:10089000D31A022B01D9032362E11D4B1B6803F01D
:1008A0000203002BF0D17B681B6803F00803002BC8
:1008B0003AD07B689B69002B19D0174B01221A6034
:1008C000FFF71AFD386108E0FFF716FD02463B69A5
:1008D000D31A022B01D9032342E10D4B5B6A03F0CB
:1008E0000203002BF0D0012000F0A6FA1CE00A4B16
:1008F00000221A60FFF700FD38610FE0FFF7FCFCF3
:1009000002463B69D31A022B08D9032328E100BF12
:10091000001002400000424280044242924B5B6A57
:1009200003F00203002BE9D17B681B6803F004038A
:10093000002B00F0A6800023FB758B4BDB6903F0D6
:100940008053002B0DD1884A874BDB6943F08053DD
:10095000D361854BDB6903F08053FB60FB680123A7
:10096000FB75824B1B6803F48073002B18D17F4A00
:100970007E4B1B6843F480731360FFF7BDFC386146
:1009800008E0FFF7B9FC02463B69D31A642B01D992
:100990000323E5E0754B1B6803F48073002BF0D054
:1009A0007B68DB68012B06D16F4A6F4B1B6A43F0F3
:1009B000010313622DE07B68DB68002B0CD16A4ACF
:1009C000694B1B6A23F001031362674A664B1B6A7B
:1009D00023F0040313621CE07B68DB68052B0CD159
:1009E000614A614B1B6A43F0040313625E4A5E4B2B
:1009F0001B6A43F0010313620BE05B4A5A4B1B6A0C
:100A000023F001031362584A574B1B6A23F0040377
:100A100013627B68DB68002B15D0FFF76DFC386133
:100A20000AE0FFF769FC02463B69D31A41F28832BB
:100A3000934201D9032393E04B4B1B6A03F002035B
:100A4000002BEED014E0FFF757FC38610AE0FFF707
:100A500053FC02463B69D31A41F28832934201D9D2
:100A600003237DE0404B1B6A03F00203002BEED111
:100A7000FB7D012B05D13C4A3B4BDB6923F08053C6
:100A8000D3617B68DB69002B69D0374B5B6803F06F
:100A90000C03082B61D07B68DB69022B46D1344BF9
:100AA00000221A60FFF728FC386108E0FFF724FCF9
:100AB00002463B69D31A022B01D9032350E02A4B8B
:100AC0001B6803F00073002BF0D17B681B6AB3F541
:100AD000803F08D12449244B5B6823F400327B68B3
:100AE0009B6813434B6020481F4B5B6823F47412D0
:100AF0007B68196A7B685B6A0B43134343601C4B3A
:100B000001221A60FFF7F8FB386108E0FFF7F4FBF9
:100B100002463B69D31A022B01D9032320E0124B72
:100B20001B6803F00073002BF0D018E0104B00227C
:100B30001A60FFF7E1FB386108E0FFF7DDFB0246D2
:100B40003B69D31A022B01D9032309E0064B1B682A
:100B500003F00073002BF0D101E0012300E000233B
:100B600018461837BD4680BD001002400070004096
:100B70006000424280B584B000AF786039600023E5
:100B8000FB60724B1B6803F007023B689A4210D26D
:100B90006E496E4B1B6823F007023B6813430B60E2
:100BA0006A4B1B6803F007023B689A4201D001239D
:100BB000C8E07B681B6803F00203002B08D064497F
:100BC000634B5B6823F0F0027B689B6813434B60C8
:100BD0007B681B6803F00103002B6AD07B685B68AD
:100BE000012B07D15A4B1B6803F40033002B15D19E
:100BF0000123A7E07B685B68022B07D1544B1B687D
:100C000003F00073002B09D101239BE0504B1B68BC
:100C100003F00203002B01D1012393E04C494C4B1C
:100C20005B6823F003027B685B6813434B60FFF74C
:100C300063FBF8607B685B68012B12D10AE0FFF769
:100C40005BFB0246FB68D31A41F28832934201D91A
:100C5000032377E03E4B5B6803F00C03042BEED1DB
:100C600027E07B685B68022B1DD10AE0FFF744FB9D
:100C70000246FB68D31A41F28832934201D903231A
:100C800060E0334B5B6803F00C03082BEED110E0FF
:100C9000FFF732FB0246FB68D31A41F288329342D7
:100CA00001D903234EE02A4B5B6803F00C03002BB1
:100CB000EED1264B1B6803F007023B689A4210D91D
:100CC0002249224B1B6823F007023B6813430B6049
:100CD0001E4B1B6803F007023B689A4201D00123B8
:100CE00030E07B681B6803F00403002B08D0184930
:100CF000174B5B6823F4E0627B68DB6813434B604F
:100D00007B681B6803F00803002B09D01049104BC7
:100D10005B6823F460527B681B69DB0013434B6004
:100D200000F01CF801460A4B5B6803F0F0031B0956
:100D3000084AD35C21FA03F3074A13600020FFF747
:100D4000B1FA002318461037BD4680BD002002408E
:100D500000100240705F00080000002090B48AB0CC
:100D600000AF2B4B3C1D186859689A68DB680FC4AC
:100D7000284A3B4612881A800023FB610023BB618E
:100D800000237B6200237B6100233B62224B5B6874
:100D9000FB61FB6903F00C03042B02D0082B03D08A
:100DA0002DE01E4B3B622DE0FB699B0C03F00F0313
:100DB00007F12802134413F8243C7B61FB6903F418
:100DC0008033002B13D0144B5B6803F400335B0CAF
:100DD00007F12802134413F8283CBB610F4ABB6992
:100DE000B2FBF3F37A6902FB03F37B6204E07B69F5
:100DF0000B4A02FB03F37B627B6A3B6202E0074B18
:100E00003B6200BF3B6A18462837BD4690BC70471E
:100E1000885F0008985F00080010024000127A0006
:100E200000093D0080B400AF024B1B681846BD4668
:100E300080BC70470000002080B485B000AF7860AF
:100E40000A4B1B680A4AA2FB03235B0A7A6802FB6F
:100E500003F3FB6000BFFB685A1EFA60002BF9D158
:100E600000BF1437BD4680BC704700BF00000020A3
:100E7000D34D621080B582B000AF114B7B60114B37
:100E80003B6007E03B681A1D3A607A68111D796083
:100E900012681A603B680C4A9342F3D30B480C4922
:100EA0004FF000028842B8BF40F8042BFADBFFF78E
:100EB000C9FB01F069F900BF0837BD4680BD00BF1E
:100EC0005760000800000020600100206001002041
:100ED000C41C002080B400AFFEE700BFF0B58BB0AB
:100EE00006AF78600023FB607B68002B01D10123F3
:100EF000CAE07B6893F82934DBB2002B06D17B680B
:100F0000002283F82824786802F0B2FE7B6803226E
:100F100083F829247B681B68184601F0CDFA7B68AA
:100F20001B683B607E686D4606F110040FCC0FC550
:100F300023682B60331D0ECB386801F093FA7B6871
:100F40001B680021184601F0D3FA0023FB6037E04C
:100F50007A68FB685B011344293301221A70FB682D
:100F6000D9B27A68FB685B01134428330A461A70C9
:100F7000FB6899B27A68FB685B01134434330A4614
:100F80001A807A68FB685B0113442B3300221A70C5
:100F90007A68FB685B011344383300221A607A6870
:100FA000FB685B0113443C3300221A607A68FB68DB
:100FB00002335B01134400221A60FB680133FB60BB
:100FC000FB680E2BC4D90023FB603CE07A68FB6809
:100FD0005B01134403F2292300221A70FB68D9B283
:100FE0007A68FB685B01134403F50A730A461A70BA
:100FF000FB6899B27A68FB685B01134434330A4694
:101000001A807A68FB685B01134403F22B230022E9
:101010001A707A68FB685B01134403F50E730022B3
:101020001A607A68FB685B01134403F50F730022B2
:101030001A607A68FB6812335B01134400221A605D
:10104000FB680133FB60FB680E2BBFD97B681B6814
:101050003B607E686D4606F110040FCC0FC5236817
:101060002B60331D0ECB386801F04EFA7B680022EE
:1010700083F824207B68012283F829247B681B687D
:10108000184602F039FA002318461437BD46F0BD61
:1010900080B582B000AF78607B6893F82834012B6C
:1010A00001D1022316E07B68012283F82824012164
:1010B000786803F00BF97B681B68184602F012FA97
:1010C0007B681B68184601F0DDF97B68002283F815
:1010D0002824002318460837BD4680BD80B582B05D
:1010E00000AF78607B681B68184602F00FFA034671
:1010F00003F40043002B02D0786800F0D7FA7B6835
:101100001B68184602F002FA034603F48063002BC2
:1011100012D07B681B687A681268B2F8442092B2D9
:1011200022F4806292B2A3F84420786802F016FE9E
:101130000021786800F0CCF87B681B68184602F044
:10114000E5F9034603F48043002B0BD07B681B6852
:101150007A681268B2F8442092B222F4804292B2C5
:10116000A3F844207B681B68184602F0CFF90346B9
:1011700003F40053002B0BD07B681B687A6812685D
:10118000B2F8442092B222F4005292B2A3F8442062
:101190007B681B68184602F0B9F9034603F48053D4
:1011A000002B26D07B681B687A681268B2F8402052
:1011B00092B222F0040292B2A3F840207B681B682E
:1011C0007A681268B2F8402092B222F0080292B215
:1011D000A3F84020786802F0FDFD7B681B687A6800
:1011E0001268B2F8442092B222F4805292B2A3F86C
:1011F00044207B681B68184602F088F9034603F414
:101200000063002B30D07B681B687A681268B2F8E4
:10121000402092B242F0080292B2A3F840207B68CC
:101220001B687A681268B2F8442092B222F4006215
:1012300092B2A3F844207B681B687A681268B2F8FF
:10124000402092B242F0040292B2A3F840207B68A0
:101250001B68184602F05AF9034603F48053002B2A
:1012600002D1786802F09CFD7B681B68184602F08A
:101270004DF9034603F40073002B0ED07B681B6806
:101280007A681268B2F8442092B222F4007292B2E4
:10129000A3F84420786802F053FD7B681B68184669
:1012A00002F034F9034603F48073002B0BD07B6803
:1012B0001B687A681268B2F8442092B222F48072F5
:1012C00092B2A3F8442000BF0837BD4680BD00BFDE
:1012D00080B582B000AF78600B46FB707B6893F8F6
:1012E0002834012B01D1022313E07B68012283F80B
:1012F00028247B68FA7883F824207B681B68FA78B6
:101300001146184602F0DAF87B68002283F8282498
:10131000002318460837BD4680BD00BF80B584B0A5
:1013200000AF7860084611461A460346FB700B462C
:101330003B801346BB700023FB720023FB6097F9D0
:101340000330002B08DAFB7803F07F035B012833BE
:101350007A681344FB6008E0FB7803F07F035B01CD
:1013600003F50A737A681344FB60FB7803F07F038C
:10137000DAB2FB681A7097F90330DBB2DB09DBB233
:101380001A46FB685A703A88FB681A61FB68BA789B
:10139000DA707B6893F82834012B01D102230EE028
:1013A0007B68012283F828247B681B68F96818464B
:1013B00001F0CEF87B68002283F82824FB7A1846D7
:1013C0001037BD4680BD00BF80B584B000AF7860E7
:1013D0000B46FB700023FB6097F90330002B08DA03
:1013E000FB7803F07F035B0128337A681344FB60CA
:1013F00008E0FB7803F07F035B0103F50A737A686A
:101400001344FB60FB7803F07F03DAB2FB681A70C9
:1014100097F90330DBB2DB09DBB21A46FB685A707E
:101420007B6893F82834012B01D102230EE07B68FE
:10143000012283F828247B681B68F968184601F0AC
:1014400049FB7B68002283F82824002318461037C4
:10145000BD4680BD80B586B000AFF8607A603B6065
:101460000B46FB7200237B61FB7A03F07F035B0179
:1014700003F50A73FA6813447B617B697A685A61E1
:101480007B693A689A617B690022DA617B69002294
:101490005A70FB7A03F07F03DAB27B691A70FB7A29
:1014A00003F07F03002B06D1FB681B68796918469F
:1014B00001F098FC05E0FB681B687969184601F0AB
:1014C00091FC002318461837BD4680BD80B483B018
:1014D00000AF78600B46FB70FB7803F00F037A686F
:1014E00012335B01134404331B689BB218460C375C
:1014F000BD4680BC704700BF80B586B000AFF860C5
:101500007A603B600B46FB7200237B61FB7A03F041
:101510007F035B012833FA6813447B617B697A6837
:101520005A617B693A689A617B690022DA617B695A
:1015300001225A70FB7A03F07F03DAB27B691A70DA
:10154000FB7A03F07F03002B06D1FB681B687969E7
:10155000184601F047FC05E0FB681B6879691846EE
:1015600001F040FC002318461837BD4680BD00BF7F
:1015700080B584B000AF78600B46FB700023FB6041
:1015800097F90330002B08DAFB7803F07F035B0147
:1015900028337A681344FB6006E0FB785B0103F5AF
:1015A0000A737A681344FB60FB6801229A70FB7827
:1015B00003F07F03DAB2FB681A7097F90330DBB2ED
:1015C000DB09DBB21A46FB685A707B6893F8283453
:1015D000012B01D102231CE07B68012283F828241F
:1015E0007B681B68F968184601F07EFEFB7803F003
:1015F0007F03002B08D17B681A687B6803F22C43B9
:101600001946104601F094FF7B68002283F82824D5
:10161000002318461037BD4680BD00BF80B584B09A
:1016200000AF78600B46FB700023FB6097F9033036
:10163000002B08DAFB7803F07F035B0128337A681C
:101640001344FB6006E0FB785B0103F50A737A68DC
:101650001344FB60FB6800229A70FB7803F07F0361
:10166000DAB2FB681A7097F90330DBB2DB09DBB240
:101670001A46FB685A707B6893F82834012B01D115
:1016800002230EE07B68012283F828247B681B6814
:10169000F968184601F088FE7B68002283F8282448
:1016A000002318461037BD4680BD00BF90B589B0F5
:1016B00000AF78600023BB610023FB830023FB7530
:1016C0000023FB810023BB8108E3FB899BB2DBB2D3
:1016D00003F00F03FB75FB7D002B40F02A81FB8993
:1016E0009BB203F01003002B4DD17B681A687B6816
:1016F0001B681B889BB223F4E14323F070039BB269
:1017000013807B682833BB617B681B68B3F850305B
:101710009BB21A46BB691B78DB00134402335B00A3
:101720007A681268134403F580631B689BB2C3F3A5
:101730000902BB69DA61BB695A69BB69DB691A4492
:10174000BB695A610021786802F0E2FA7B6893F87D
:101750002430DBB2002B00F0C182BB699B69002BF7
:1017600040F0BC827B681B687A6892F82420D2B271
:1017700062F07F02D2B292B2A3F84C207B680022C2
:1017800083F82420AAE27B6803F50A73BB617B68B7
:101790001B681B889BB2BB81BB899BB203F40063AF
:1017A000002B31D07B681B68B3F850309BB21A46CF
:1017B000BB691B78DB00134406335B007A68126850
:1017C000134403F580631B689BB2C3F30902BB6932
:1017D000DA617B6818687B6803F22C41BB699A88E0
:1017E000BB69DB699BB201F0F5FE7B681A687B6818
:1017F0001B681B8899B240F68F730B409BB2138015
:10180000786802F05BFA69E2BB899BB21BB2002BDD
:1018100080F264827B681A687B681B681B8899B2B7
:1018200040F68F730B409BB213807B681B68B3F844
:1018300050309BB21A46BB691B78DB001344063359
:101840005B007A681268134403F580631B689BB2DF
:10185000C3F30902BB69DA61BB69DB69002B11D0F4
:101860007B681868BB695969BB699A88BB69DB6981
:101870009BB201F0AFFEBB695A69BB69DB691A44D0
:10188000BB695A610021786802F02AFA7B681B68FC
:10189000B3F850309BB206335B007A681268134489
:1018A00003F580633B61BB691B693E2B18D9BB699B
:1018B0001B695B09BB83BB691B6903F01F03002B1A
:1018C00002D1BB8B013BBB83BB8B9B029BB26FEAFC
:1018D00043436FEA53439BB21A463B691A6012E0D6
:1018E000BB691B695B08BB83BB691B6903F0010310
:1018F000002B02D0BB8B0133BB83BB8B9B029BB203
:101900001A463B691A607B681B681B889BB223F4EC
:10191000804323F070039CB284F480539CB284F41F
:1019200000539CB27B681A68984B23439BB2138088
:10193000D4E17B681B681A46FB7D9B0013441B881F
:101940009BB2BB81BB899BB21BB2002B80F2D080C3
:101950007B681B681A46FB7D9B001A447B681B68EA
:101960001946FB7D9B000B441B8899B240F68F7390
:101970000B409BB21380FB7D5B0103F50A737A6811
:101980001344BB61BB699B7A002B22D17B681B6827
:10199000B3F850309BB21A46BB691B78DB00134486
:1019A00006335B007A681268134403F580631B6892
:1019B0009BB2C3F30903FB83FB8B002B73D07B68C3
:1019C0001868BB695969BB699A88FB8B01F002FEF4
:1019D00069E07B681B681A46BB691B789B0013444F
:1019E0001B889BB203F48043002B22D07B681B68CA
:1019F000B3F850309BB21A46BB691B78DB00134426
:101A000002335B007A681268134403F580631B6835
:101A10009BB2C3F30903FB83FB8B002B2BD07B68AA
:101A20001868BB695969BB69DA88FB8B01F0D2FD84
:101A300021E07B681B68B3F850309BB21A46BB6943
:101A40001B78DB00134406335B007A68126813448A
:101A500003F580631B689BB2C3F30903FB83FB8B15
:101A6000002B08D07B681868BB695969BB691A8963
:101A7000FB8B01F0AFFD7B681B681A46BB691B78C6
:101A80009B001A447B681B681946BB691B789B0046
:101A90000B441B8899B240F60F730B4099B23C4B34
:101AA0000B439BB21380BB69DA69FB8B1A44BB6999
:101AB000DA61BB695A69FB8B1A44BB695A61BB691D
:101AC0009B69002B04D0FA8BBB691B699A4206D232
:101AD000BB691B781946786802F002F908E0BB6917
:101AE0001978BB695A69BB699B697868FFF7B2FCD2
:101AF000BB899BB203F08003002B00F0EF80FB7DDD
:101B00005B0128337A681344BB617B681B681A4603
:101B1000FB7D9B001A447B681B681946FB7D9B007C
:101B20000B441B889BB223F4E14323F070039BB268
:101B30001380BB699B7A002B2CD17B681B68B3F8A0
:101B400050309BB21A46BB691B78DB00134402334A
:101B50005B007A681268134403F580631B689BB2CC
:101B6000C3F30902BB69DA61BB69DB69002B00F0D2
:101B700083807B681868BB695969BB699A88BB69AF
:101B8000DB699BB201F0E0FC76E000BF8080FFFFE4
:101B9000C080FFFF7B681B681A46BB691B789B00EF
:101BA00013441B889BB203F04003002B26D07B68B4
:101BB0001B68B3F850309BB21A46BB691B78DB0038
:101BC000134402335B007A681268134403F58063A0
:101BD0001B689BB2C3F30902BB69DA61BB69DB69AD
:101BE000002B31D07B681868BB695969BB69DA88FA
:101BF000BB69DB699BB201F0A7FC25E07B681B6831
:101C0000B3F850309BB21A46BB691B78DB00134413
:101C100006335B007A681268134403F580631B681F
:101C20009BB2C3F30902BB69DA61BB69DB69002BB4
:101C30000AD07B681868BB695969BB691A89BB6996
:101C4000DB699BB201F080FC7B681B681A46BB69AC
:101C50001B789B001A447B681B681946BB691B787C
:101C60009B000B441B8899B240F60F730B4099B24E
:101C7000224B0B439BB213807B681B68B3F8503038
:101C80009BB21A46BB691B78DB00134402335B002E
:101C90007A681268134403F580631B689BB2C3F330
:101CA0000902BB69DA61BB695A69BB69DB691A441D
:101CB000BB695A61BB699B69002B06D1BB691B7864
:101CC0001946786802F024F808E0BB691978BB6906
:101CD0005A69BB699B697868FFF70EFC7B681B68D3
:101CE000B3F844309BB21A46FA811BB2002BFFF6C0
:101CF000ECAC002318462437BD4690BD80C0FFFFE2
:101D000080B584B000AFF860B9601346FB71FB6822
:101D1000002B01D102231AE0FB68D3F81432002B08
:101D200003D0FB680022C3F81422BB68002B03D049
:101D3000FB68BA68C3F81022FB68012283F8FC2113
:101D4000FB68FA791A70F86802F052F80023184616
:101D50001037BD4680BD00BF80B485B000AF78604D
:101D600039600023FB733B68002B06D07B683A6820
:101D7000C3F814220023FB7301E00223FB73FB7BF7
:101D800018461437BD4680BC704700BF80B582B08E
:101D900000AF7860786802F08DF8002318460837A5
:101DA000BD4680BD80B483B000AF78600023184684
:101DB0000C37BD4680BC704780B584B000AF7860FA
:101DC0000B46FB700223FB737B68D3F81432002BA5
:101DD0000CD07B68D3F814321B68FA781146786807
:101DE00098470346002B01D10023FB73FB7B184669
:101DF0001037BD4680BD00BF80B582B000AF7860AF
:101E00000B46FB707B68D3F814325B68FA78114696
:101E100078689847002318460837BD4680BD00BF44
:101E200080B582B000AF786039607B6803F50273DB
:101E30003968184603F084FE7B680122C3F8F42158
:101E40007B68B3F80E321A467B68C3F8F8217B68CA
:101E500093F8083203F01F03012B0BD0022B11D093
:101E6000002B17D17B6803F502731946786803F0DD
:101E7000B1FA1AE07B6803F502731946786803F03B
:101E8000F9FA12E07B6803F502731946786803F0EB
:101E900025FB0AE07B6893F8083223F07F03DBB26E
:101EA0001946786802F0ACF800BF002318460837DE
:101EB000BD4680BD80B586B000AFF8600B467A6045
:101EC000FB72FB7A002B38D1FB6803F582737B61D0
:101ED000FB68D3F8F431032B42D17B699A687B69A4
:101EE000DB689A4214D97B699A687B69DB68D21AED
:101EF0007B699A607B69DA687B699B68934228BF3B
:101F000013469BB21A467968F86803F0DBFF27E0B6
:101F1000FB68D3F814321B69002B0AD0FB6893F8D6
:101F2000FC31032B05D1FB68D3F814321B69F86828
:101F30009847F86803F0D8FF12E0FB68D3F8143232
:101F40009B69002B0CD0FB6893F8FC31032B07D165
:101F5000FB68D3F814329B69FA7A1146F8689847FF
:101F6000002318461837BD4680BD00BF80B586B037
:101F700000AFF8600B467A60FB72FB7A002B6CD1E5
:101F8000FB6814337B61FB68D3F8F431022B57D123
:101F90007B699A687B69DB689A4215D97B699A6884
:101FA0007B69DB68D21A7B699A607B699B689BB20C
:101FB0001A467968F86803F055FF002300220021D3
:101FC000F86802F01FF93BE07B695B687A69D268C8
:101FD000B3FBF2F102FB01F29B1A002B1CD17B69CF
:101FE0005A687B69DB689A4216D37B695A68FB683A
:101FF000D3F8F8319A420FD200220021F86803F09A
:1020000031FFFB680022C3F8F821002300220021E1
:10201000F86802F0F7F813E0FB68D3F81432DB68D5
:10202000002B0AD0FB6893F8FC31032B05D1FB6829
:10203000D3F81432DB68F8689847F86803F068FF53
:10204000FB6893F80032012B1AD1F868FFF7AAFE5B
:10205000FB68002283F8002212E0FB68D3F81432F8
:102060005B69002B0CD0FB6893F8FC31032B07D184
:10207000FB68D3F814325B69FA7A1146F86898471E
:10208000002318461837BD4680BD00BF80B582B01A
:1020900000AF7860402300220021786801F03CFF07
:1020A0007B684022C3F810214023002280217868F9
:1020B00001F032FF7B6840221A627B68012283F8BC
:1020C000FC217B68D3F81832002B09D07B68D3F849
:1020D00014325B687A685268D2B2114678689847C1
:1020E000002318460837BD4680BD00BF80B483B0CA
:1020F00000AF78600B46FB707B68FA781A74002397
:1021000018460C37BD4680BC704700BF80B483B012
:1021100000AF78607B6893F8FC217B6883F8FD2131
:102120007B68042283F8FC21002318460C37BD4647
:1021300080BC704780B483B000AF78607B6893F850
:10214000FD217B6883F8FC21002318460C37BD462F
:1021500080BC704780B582B000AF78607B6893F830
:10216000FC31032B0BD17B68D3F81432DB69002BD5
:1021700005D07B68D3F81432DB6978689847002370
:1021800018460837BD4680BD80B500AFFEF774F82D
:1021900000F020F800F0F6F800F0BAF800F07EF851
:1021A00003F0CAFE08220749074802F0D7F9322097
:1021B000FEF7ACF8642308220449054802F092F8BF
:1021C000F5E700BF38040020880300200400002049
:1021D000E003002080B594B000AF0123BB624FF450
:1021E0008033FB6200233B630123BB6302237B64D8
:1021F0004FF48033BB644FF48013FB6407F1280372
:102200001846FEF753FA0346002B03D0A0212148BD
:1022100000F022F90F237B610223BB610023FB61E5
:102220004FF4A0633B624FF4A0637B6207F1140399
:1022300001211846FEF79EFC0346002B03D0AE2179
:10224000144800F009F910237B604FF480033B61D0
:102250003B1D1846FDF75AFF0346002B03D0B5215E
:102260000C4800F0F9F8FEF7DDFD02460A4BA3FB2F
:1022700002239B091846FEF7B1F90420FEF7BAF9CC
:10228000002200214FF0FF30FEF77EF900BF5037EB
:10229000BD4680BD9C5F0008D34D621080B500AF85
:1022A000184B194A1A60174B4FF482725A60154B3B
:1022B00000229A60134B0022DA60124B00221A614E
:1022C000104B00225A610F4B4FF400729A610D4B74
:1022D0001022DA610B4B00221A620A4B00225A626A
:1022E000084B00229A62074B0A22DA62054801F085
:1022F000A7F90346002B03D0D721044800F0ACF81F
:1023000000BF80BDE0030020003001409C5F00085A
:1023100080B500AF184B194A1A60174B00225A605B
:10232000154B00229A60144B0022DA60124B0022F7
:102330001A61114B00225A610F4B4FF400729A61DF
:102340000D4B1022DA610C4B00221A620A4B00225C
:102350005A62094B00229A62074B0A22DA62064847
:1023600001F06EF90346002B03D0EF21044800F082
:1023700073F800BF80BD00BF880300200038004014
:102380009C5F000880B588B000AF234A224B9B6950
:1023900043F010039361204B9B6903F01003FB6033
:1023A000FB681D4A1C4B9B6943F0200393611A4B49
:1023B0009B6903F02003BB60BB68174A164B9B69FF
:1023C00043F004039361144B9B6903F004037B60A7
:1023D0007B68114A104B9B6943F0080393610E4BD5
:1023E0009B6903F008033B603B6800224FF40051F7
:1023F0000A4801F0E7FA4FF400533B6101237B6187
:102400000223FB6107F110031946044801F07CF92F
:1024100000BF2037BD4680BD0010024000100140C3
:1024200080B582B000AF7860084B5B78212B04D177
:102430004FF40051064801F0DDFA0822034905482F
:1024400002F08CF800BF0837BD4680BD380400207C
:10245000001001408803002080B483B000AF786092
:102460003960FEE784B080B483B000AF786007F1D4
:10247000140080E80E00002318460C37BD4680BCCF
:1024800004B0704780B485B000AF78600023FB6073
:102490004FF43F43FB607B68B3F840309AB2FB686F
:1024A0009BB213439AB27B68A3F8402000231846DE
:1024B0001437BD4680BC704780B485B000AF7860EB
:1024C0000023FB604FF43D43FB607B68B3F8403072
:1024D0009AB2FB689BB2DB439BB213409AB27B6813
:1024E000A3F84020002318461437BD4680BC70472F
:1024F00080B483B000AF78600B46FB7000231846B1
:102500000C37BD4680BC704784B080B582B000AF48
:10251000786007F1140080E80E007B680122A3F8C0
:1025200040207B680022A3F840207B680022A3F8AB
:1025300044207B680022A3F850207868FFF7A2FFB0
:10254000002318460837BD46BDE8804004B07047F8
:1025500090B484B000AF786039603B68DB78032BBF
:102560005FD801A252F823F079250008F72500086A
:10257000A5250008CB2500087A683B681B789B00DE
:102580001A4479683B681B789B000B441B889BB2FC
:1025900023F4EC4323F070039BB243F400739BB22B
:1025A00013803FE07A683B681B789B001A44796887
:1025B0003B681B789B000B441B889BB223F4EC43C5
:1025C00023F070039BB213802CE07A683B681B7881
:1025D0009B001A4479683B681B789B000B441B885E
:1025E0009BB223F4EC4323F070039BB243F4C0632B
:1025F0009BB2138016E07A683B681B789B001A44F4
:1026000079683B681B789B000B441B889BB223F4C2
:10261000EC4323F070039BB243F480639BB21380BE
:1026200000E000BF7A683B681B789B001A44796819
:102630003B681B789B000B441B8899B240F60F73D4
:102640000B4099B23B681B789BB20B4399B2754B18
:102650000B439BB213803B689B7A002B40F0E880D1
:102660003B685B78002B4CD07B68B3F850309BB252
:102670001A463B681B78DB0013445A007B681344FE
:1026800003F580631A463B689B885B089BB25B003E
:1026900013607A683B681B789B0013441B889BB2CD
:1026A00003F04003002B13D07A683B681B789B0033
:1026B0001A4479683B681B789B000B441B8899B2CD
:1026C00040F60F730B4099B2574B0B439BB21380EC
:1026D0007A683B681B789B0013441B889BB223F4E9
:1026E000E04323F040039CB284F020039CB27A685C
:1026F0003B681B789B001A444A4B23439BB21380D0
:10270000D9E17B68B3F850309BB21A463B681B781E
:10271000DB00134404335A007B68134403F58063E1
:102720001A463B689B885B089BB25B0013607B6822
:10273000B3F850309BB21A463B681B78DB00134459
:1027400006335A007B68134403F58063BB603B6823
:102750001B693E2B18D93B681B695B09FB813B68F1
:102760001B6903F01F03002B02D1FB89013BFB8196
:10277000FB899B029BB26FEA43436FEA53439BB2D0
:102780001A46BB681A6012E03B681B695B08FB8154
:102790003B681B6903F00103002B02D0FB89013366
:1027A000FB81FB899B029BB21A46BB681A607A6860
:1027B0003B681B789B0013441B889BB203F4804347
:1027C000002B13D07A683B681B789B001A44796809
:1027D0003B681B789B000B441B8899B240F60F7333
:1027E0000B4099B2114B0B439BB213807A683B6844
:1027F0001B789B0013441B889BB223F4804323F077
:1028000070039CB284F480539CB284F400539CB255
:102810007A683B681B789B001A44024B23439BB2A7
:10282000138048E18080FFFFC080FFFF80C0FFFF72
:102830007A683B681B789B001A4479683B681B7870
:102840009B000B441B8899B240F60F630B4099B272
:102850009C4B0B439BB213807B68B3F850309BB208
:102860001A463B681B78DB0013445A007B6813440C
:1028700003F580631A463B68DB885B089BB25B000C
:1028800013607B68B3F850309BB21A463B681B78E4
:10289000DB00134404335A007B68134403F5806360
:1028A0001A463B681B895B089BB25B0013603B6860
:1028B0005B78002B40F083807A683B681B789B0034
:1028C00013441B889BB203F48043002B13D07A6817
:1028D0003B681B789B001A4479683B681B789B0017
:1028E0000B441B8899B240F60F730B4099B2764B9C
:1028F0000B439BB213807A683B681B789B001344A0
:102900001B889BB203F04003002B13D07A683B680E
:102910001B789B001A4479683B681B789B000B442A
:102920001B8899B240F60F730B4099B2674B0B436B
:102930009BB213807A683B681B789B001A447968C5
:102940003B681B789B000B441B8899B240F60F73C1
:102950000B4099B25D4B0B439BB213807A683B6886
:102960001B789B0013441B889BB223F4804323F005
:1029700070039CB284F480539CB284F400539CB2E4
:102980007A683B681B789B001A44514B23439BB2E7
:1029900013807A683B681B789B0013441B889BB2AA
:1029A00023F4E04323F040039CB27A683B681B7831
:1029B0009B001A44464B23439BB213807BE07A680A
:1029C0003B681B789B0013441B889BB203F4804335
:1029D000002B13D07A683B681B789B001A447968F7
:1029E0003B681B789B000B441B8899B240F60F7321
:1029F0000B4099B2344B0B439BB213807A683B680F
:102A00001B789B0013441B889BB203F04003002BF0
:102A100013D07A683B681B789B001A4479683B683E
:102A20001B789B000B441B8899B240F60F730B4038
:102A300099B2264B0B439BB213807A683B681B7894
:102A40009B001A4479683B681B789B000B441B88E9
:102A500099B240F60F730B4099B21B4B0B439BB2DC
:102A600013807A683B681B789B0013441B889BB2D9
:102A700023F4E04323F040039CB27A683B681B7860
:102A80009B001A44124B23439BB213807A683B6825
:102A90001B789B0013441B889BB223F4804323F0D4
:102AA00070039CB27A683B681B789B001A44084B01
:102AB00023439BB21380002318461037BD4690BCB9
:102AC000704700BF8081FFFF80C0FFFFC080FFFF15
:102AD0008080FFFF90B482B000AF786039603B68BF
:102AE0009B7A002B6DD13B685B78002B34D07A68E1
:102AF0003B681B789B0013441B889BB203F0400388
:102B0000002B13D07A683B681B789B001A447968C5
:102B10003B681B789B000B441B8899B240F60F73EF
:102B20000B4099B2684B0B439BB213807A683B68A9
:102B30001B789B0013441B889BB223F4E04323F0D3
:102B400040039CB27A683B681B789B001A445F4B39
:102B500023439BB2138039E17A683B681B789B0062
:102B600013441B889BB203F48043002B13D07A6874
:102B70003B681B789B001A4479683B681B789B0074
:102B80000B441B8899B240F60F730B4099B2504B1F
:102B90000B439BB213807A683B681B789B001344FD
:102BA0001B889BB223F4804323F070039CB27A68A5
:102BB0003B681B789B001A44444B23439BB2138011
:102BC00004E13B685B78002B40F084807A683B68C6
:102BD0001B789B0013441B889BB203F48043002B9B
:102BE00013D07A683B681B789B001A4479683B686D
:102BF0001B789B000B441B8899B240F60F730B4067
:102C000099B2334B0B439BB213807A683B681B78B5
:102C10009B0013441B889BB203F04003002B13D08E
:102C20007A683B681B789B001A4479683B681B787C
:102C30009B000B441B8899B240F60F730B4099B26E
:102C4000214B0B439BB213807A683B681B789B0037
:102C50001A4479683B681B789B000B441B8899B227
:102C600040F60F730B4099B2174B0B439BB2138086
:102C70007A683B681B789B0013441B889BB223F443
:102C8000804323F070039CB27A683B681B789B00FA
:102C90001A440E4B23439BB213807A683B681B781F
:102CA0009B0013441B889BB223F4E04323F04003B2
:102CB0009CB27A683B681B789B001A44034B234301
:102CC0009BB2138082E000BFC080FFFF8080FFFFC7
:102CD00080C0FFFF7A683B681B789B0013441B8809
:102CE0009BB203F48043002B13D07A683B681B78B7
:102CF0009B001A4479683B681B789B000B441B8837
:102D000099B240F60F730B4099B2334B0B439BB211
:102D100013807A683B681B789B0013441B889BB226
:102D200003F04003002B13D07A683B681B789B00AC
:102D30001A4479683B681B789B000B441B8899B246
:102D400040F60F730B4099B2244B0B439BB2138098
:102D50007A683B681B789B001A4479683B681B784B
:102D60009B000B441B8899B240F60F730B4099B23D
:102D7000194B0B439BB213807A683B681B789B000E
:102D800013441B889BB223F4E04323F040039CB21E
:102D90007A683B681B789B001A44114B23439BB213
:102DA00013807A683B681B789B0013441B889BB296
:102DB00023F4804323F070039CB27A683B681B784D
:102DC0009B001A44064B23439BB2138000231846F2
:102DD0000837BD4690BC704780C0FFFFC080FFFF32
:102DE0008080FFFF90B58DB000AF78603960002320
:102DF000FB853B689B69BB623B685B78012B40F0BD
:102E000049813B689A693B681B699A4209D93B68CA
:102E10001B69BB623B689A69BB6AD21A3B689A61BC
:102E200005E03B689B69BB623B6800229A613B6896
:102E30009B7A002B1BD13B6859693B689A88BB6A17
:102E40009BB2786800F080FB7B68B3F850309BB28F
:102E50001A463B681B78DB00134402335A007B6838
:102E6000134403F580631A46BB6A1360F6E07A6880
:102E70003B681B789B0013441B889BB203F0400304
:102E8000002B59D03B685B78002B3BD17B68B3F8B3
:102E900050309BB21A463B681B78DB001344063364
:102EA0005A007B68134403F58063BB61BB6A3E2B09
:102EB00016D9BB6A5B09FB84BB6A03F01F03002BB6
:102EC00002D1FB8C013BFB84FB8C9B029BB26FEA23
:102ED00043436FEA53439BB21A46BB691A6027E02B
:102EE000BB6A5B08FB84BB6A03F00103002B02D0C2
:102EF000FB8C0133FB84FB8C9B029BB21A46BB69A3
:102F00001A6015E03B685B78012B11D17B68B3F840
:102F100050309BB21A463B681B78DB0013440233E7
:102F20005A007B68134403F580631A46BB6A13603A
:102F30003B681B89FB8558E03B685B78002B3BD1E5
:102F40007B68B3F850309BB21A463B681B78DB00B5
:102F5000134402335A007B68134403F580637B619A
:102F6000BB6A3E2B16D9BB6A5B09BB84BB6A03F004
:102F70001F03002B02D1BB8C013BBB84BB8C9B028B
:102F80009BB26FEA43436FEA53439BB21A467B6995
:102F90001A6027E0BB6A5B08BB84BB6A03F00103CD
:102FA000002B02D0BB8C0133BB84BB8C9B029BB239
:102FB0001A467B691A6015E03B685B78012B11D1DA
:102FC0007B68B3F850309BB21A463B681B78DB0035
:102FD000134402335A007B68134403F580631A4696
:102FE000BB6A13603B68DB88FB853B685969BB6A39
:102FF0009BB2FA8D786800F0A7FA3B685B78002BEB
:1030000014D17A683B681B789B001A4479683B6846
:103010001B789B000B441B8899B240F60F730B4042
:1030200099B2924B0B439BB2138017E03B685B78DD
:10303000012B13D17A683B681B789B001A4479688E
:103040003B681B789B000B441B8899B240F60F73BA
:103050000B4099B2864B0B439BB213807A683B6856
:103060001B789B0013441B889BB223F4E04323F09E
:1030700040039CB284F010039CB284F020039CB205
:103080007A683B681B789B001A447A4B23439BB2B7
:10309000138022E13B689A693B681B699A4209D90F
:1030A0003B681B69BB623B689A69BB6AD21A3B6882
:1030B0009A6105E03B689B69BB623B6800229A61AC
:1030C0003B689B7A002B3BD17B68B3F850309BB2B6
:1030D0001A463B681B78DB00134406335A007B68B2
:1030E000134403F580633B61BB6A3E2B16D9BB6A70
:1030F0005B097B84BB6A03F01F03002B02D17B8C2E
:10310000013B7B847B8C9B029BB26FEA43436FEA5B
:1031100053439BB21A463B691A60C3E0BB6A5B0823
:103120007B84BB6A03F00103002B02D07B8C01334C
:103130007B847B8C9B029BB21A463B691A60B1E090
:103140003B685B78002B3BD17B68B3F850309BB277
:103150001A463B681B78DB00134402335A007B6835
:10316000134403F58063FB60BB6A3E2B16D9BB6A30
:103170005B093B84BB6A03F01F03002B02D13B8C2D
:10318000013B3B843B8C9B029BB26FEA43436FEA5B
:1031900053439BB21A46FB681A6027E0BB6A5B0880
:1031A0003B84BB6A03F00103002B02D03B8C01334C
:1031B0003B843B8C9B029BB21A46FB681A6015E06D
:1031C0003B685B78012B11D17B68B3F850309BB220
:1031D0001A463B681B78DB00134402335A007B68B5
:1031E000134403F580631A46BB6A13603B685B783F
:1031F000002B41D17B68B3F850309BB21A463B6834
:103200001B78DB00134406335A007B68134403F534
:103210008063BB60BB6A3E2B16D9BB6A5B09FB832C
:10322000BB6A03F01F03002B02D1FB8B013BFB8326
:10323000FB8B9B029BB26FEA43436FEA53439BB203
:103240001A46BB681A602DE0BB6A5B08FB83BB6A49
:1032500003F00103002B02D0FB8B0133FB83FB8BBC
:103260009B029BB21A46BB681A601BE0C080FFFF3E
:1032700080C0FFFF8080FFFF3B685B78012B11D18E
:103280007B68B3F850309BB21A463B681B78DB0072
:10329000134402335A007B68134403F580631A46D3
:1032A000BB6A13607A683B681B789B0013441B88D9
:1032B0009BB223F4804323F070039CB284F48053C8
:1032C0009CB284F400539CB27A683B681B789B00E4
:1032D0001A44044B23439BB213800023184634370F
:1032E000BD4690BD8080FFFF90B482B000AF786093
:1032F00039603B681B78002B18D17A683B681B78D3
:103300009B0013441B889BB24BF6BF741C4084F493
:10331000805484F010047A683B681B789B001A4440
:10332000A1B2204B0B439BB2138034E03B685B7827
:10333000002B18D07A683B681B789B0013441B88CD
:103340009BB223F4E04323F040039CB284F01003CB
:103350009CB27A683B681B789B001A44114B23434C
:103360009BB2138017E07A683B681B789B0013447C
:103370001B889BB223F4804323F070039CB284F437
:1033800080539CB27A683B681B789B001A44054BBB
:1033900023439BB21380002318460837BD4690BCD8
:1033A000704700BF8080FFFF90B482B000AF7860AC
:1033B00039603B685B78002B3AD07A683B681B78B1
:1033C0009B0013441B889BB203F04003002B13D0D7
:1033D0007A683B681B789B001A4479683B681B78C5
:1033E0009B000B441B8899B240F60F730B4099B2B7
:1033F0002F4B0B439BB213807A683B681B789B0072
:1034000013441B889BB223F4E04323F040039CB297
:1034100084F010039CB284F020039CB27A683B686D
:103420001B789B001A44234B23439BB2138039E043
:103430007A683B681B789B0013441B889BB203F49B
:103440008043002B13D07A683B681B789B001A449A
:1034500079683B681B789B000B441B8899B240F647
:103460000F730B4099B2144B0B439BB213807A68D5
:103470003B681B789B0013441B889BB223F480435A
:1034800023F070039CB284F480539CB284F4005304
:103490009CB27A683B681B789B001A44054B234317
:1034A0009BB21380002318460837BD4690BC704776
:1034B000C080FFFF8080FFFF80C0FFFF80B483B02B
:1034C00000AF78600B46FB70FB78002B03D17B6864
:1034D0008022A3F84C20002318460C37BD4680BC40
:1034E000704700BF80B483B000AF786000231846F7
:1034F0000C37BD4680BC704780B483B000AF7860A5
:10350000002318460C37BD4680BC704780B485B098
:1035100000AF78600023FB607B68B3F844309BB257
:10352000FB60FB6818461437BD4680BC704700BF7F
:1035300080B483B000AF78603960002318460C3740
:10354000BD4680BC704700BF80B48BB000AFF86050
:10355000B96011461A460B46FB801346BB80BB88F8
:1035600001335B10FB6100237B620023BB610023FE
:103570007B6100233B62FB885B001A46FB681344B7
:1035800003F580633B62FB697B621BE0BB681B78D1
:10359000BB61BB680133BB60BB681B781B021A466A
:1035A000BB6913437B613B6A9A1C3A627A6992B2A7
:1035B0001A803B6A02333B62BB680133BB607B6AA3
:1035C000013B7B627B6A002BE0D100BF2C37BD46FC
:1035D00080BC704780B489B000AFF860B960114614
:1035E0001A460B46FB801346BB80BB8801335B1039
:1035F0007B610023FB610023BB61FB885B001A46F3
:10360000FB68134403F58063BB617B69FB610EE0DB
:10361000BB685A1CBA60BA69111DB961126892B2CE
:103620001A80BB680133BB60FB69013BFB61FB692E
:10363000002BEDD100BF2437BD4680BC704700BFD2
:1036400080B582B000AF78607B68002B01D1012388
:1036500056E07B6800229A627B6893F85130DBB2B7
:10366000002B02D1786801F029FC7B68022283F8E4
:1036700051207B681B687A681268126822F0400249
:103680001A607B681B687A6851687A68926811438F
:103690007A68D26811437A68126911437A6852696C
:1036A00011437A68926902F4007211437A68D26910
:1036B00011437A68126A11437A68926A0A431A605F
:1036C0007B681B687A689269120C02F004017A68C0
:1036D000526A0A435A607B681B687A68D26A1A6128
:1036E0007B681B687A681268D26922F40062DA612A
:1036F0007B6800225A657B68012283F851200023F1
:1037000018460837BD4680BD80B48BB000AF7860E6
:1037100039600023FB610023BB6100237B61002330
:103720003B6200233B6100237B6227E101227B6A2D
:1037300002FA03F3FB613B681A68FB691340BB6143
:10374000BA69FB699A4240F016813B685B68122BAC
:1037500034D0122B0DD8022B2BD0022B04D8002BE7
:1037600031D0012B1CD048E0032B43D0112B1BD0B0
:1037700043E0874A934226D0854A934206D8854A39
:10378000934220D0844A93421DD036E0834A93422C
:1037900019D0834A934216D0824A934213D02CE028
:1037A0003B68DB683B6228E03B68DB6804333B62D4
:1037B00023E03B68DB6808333B621EE03B68DB6864
:1037C0000C333B6219E03B689B68002B02D1042359
:1037D0003B6212E03B689B68012B05D108233B62EA
:1037E0007B68FA691A6108E008233B627B68FA6922
:1037F0005A6102E000233B6200BFBB69FF2B01D886
:103800007B6801E07B680433FB60BB69FF2B02D857
:103810007B6A9B0002E07B6A083B9B003B61FB6884
:103820001A680F213B6901FA03F3DB431A40396A36
:103830003B6901FA03F31A43FB681A603B685B6853
:1038400003F08053002B00F09680574A564B9B693B
:1038500043F001039361544B9B6903F00103BB6088
:10386000BB68524A7B6A9B08023352F823307B6163
:103870007B6A03F003039B000F2202FA03F3DB438E
:103880007A6913407B617B68494A934213D07B6815
:10389000484A93420DD07B68474A934207D07B68E1
:1038A000464A934201D1032306E0042304E00223A5
:1038B00002E0012300E000237A6A02F00302920092
:1038C00093407A6913437B6138497B6A9B080233D2
:1038D0007A6941F823203B685B6803F48033002B4E
:1038E00006D03749364B1A68BB6913430B6006E0B4
:1038F0003349334B1A68BB69DB4313400B603B68A9
:103900005B6803F40033002B06D02D492C4B5A681A
:10391000BB6913434B6006E02949294B5A68BB69D0
:10392000DB4313404B603B685B6803F48013002B60
:1039300006D02349224B9A68BB6913438B6006E08B
:103940001F491F4B9A68BB69DB4313408B603B6880
:103950005B6803F40013002B06D01949184BDA6892
:10396000BB691343CB6006E01549154BDA68BB69A8
:10397000DB431340CB607B6A01337B627B6A0F2B96
:103980007FF6D4AE00BF2C37BD4680BC704700BF69
:103990000000211000001110000012100000311072
:1039A0000000321000002210001002400000014010
:1039B00000080140000C01400010014000140140CB
:1039C0000004014080B483B000AF78600B467B8078
:1039D00013467B707B78002B03D07A887B681A6152
:1039E00003E07B881A047B681A6100BF0C37BD4670
:1039F00080BC704780B483B000AF78600B467B809A
:103A00007B68DA687B885A407B68DA6000BF0C37D5
:103A1000BD4680BC704700BF80B584B000AF786001
:103A20000023FB737B6893F82130022B05D07B6861
:103A300004229A630123FB7357E07B681B687A6852
:103A40001268126822F00E021A607B681B687A689E
:103A50001268126822F001021A60264A7B681B680D
:103A60001946254B99422ED07B681B681946234B7B
:103A7000994226D07B681B681946214B99421DD07C
:103A80007B681B6819461F4B994214D07B681B68E2
:103A900019461D4B99420BD07B681B6819461B4B7E
:103AA000994202D14FF480130EE04FF080730BE087
:103AB0004FF4803308E04FF4805305E04FF48073F7
:103AC00002E0102300E0012353607B68012283F8A9
:103AD00021207B68002283F820207B685B6B002B11
:103AE00003D07B685B6B78689847FB7B1846103780
:103AF000BD4680BD00000240080002401C0002409C
:103B00003000024044000240580002406C00024075
:103B100080B483B000AF03463960FB713B6812226A
:103B20001A80034B18460C37BD4680BC704700BF57
:103B30002800002080B483B000AF03463960FB71D9
:103B40003B6804221A80034B18460C37BD4680BCE4
:103B5000704700BF3C00002080B582B000AF034634
:103B60003960FB71FB79002B05D13A680749084899
:103B700002F034F804E03A680449054802F02EF8EF
:103B8000024B18460837BD4680BD00BF40040020E8
:103B9000CC5F000880B582B000AF03463960FB718E
:103BA0003A680449044802F019F8024B18460837ED
:103BB000BD4680BD40040020E45F000880B582B0AF
:103BC00000AF03463960FB71FB79002B05D13A68E1
:103BD0000749084802F002F804E03A680449054839
:103BE00001F0FCFF024B18460837BD4680BD00BF00
:103BF00040040020F85F000880B582B000AF0346A3
:103C00003960FB71FB79002B05D13A6807490848F8
:103C100001F0E4FF04E03A680449054801F0DEFFE2
:103C2000024B18460837BD4680BD00BF4004002047
:103C30000860000880B582B000AF03463960FB71B0
:103C4000FB79002B05D13A680749084801F0C6FF07
:103C500004E03A680449054801F0C0FF024B1846E9
:103C60000837BD4680BD00BF400400201460000836
:103C700080B584B000AF78607B681B680D4A9342C2
:103C800013D10D4A0C4BDB6943F40003D3610A4B9B
:103C9000DB6903F40003FB60FB68002200211420B1
:103CA000FCF772FC1420FCF78BFC00BF1037BD46FC
:103CB00080BD00BF005C00400010024080B582B0B3
:103CC00000AF78607B68D3F85C247B6803F22C43F8
:103CD00019461046FEF7A4F800BF0837BD4680BD60
:103CE00080B582B000AF78600B46FB707B68D3F87C
:103CF0005C04FB787A685B01134403F50F731A6860
:103D0000FB781946FEF7D6F800BF0837BD4680BDE0
:103D100080B582B000AF78600B46FB707B68D3F84B
:103D20005C04FB787A685B0113443C331A68FB78C7
:103D30001946FEF71BF900BF0837BD4680BD00BF1E
:103D400080B582B000AF78607B68D3F85C341846E9
:103D5000FEF700FA00BF0837BD4680BD80B584B0CD
:103D600000AF78600123FB737B689B68022B02D154
:103D70000123FB7302E00123FB7300BF7B68D3F8D0
:103D80005C34FA7B11461846FEF7B0F97B68D3F82D
:103D90005C341846FEF77AF900BF1037BD4680BD87
:103DA00080B582B000AF78607B68D3F85C34184689
:103DB000FEF7ACF97B689B69002B05D0044A044BE5
:103DC0001B6943F00603136100BF0837BD4680BD81
:103DD00000ED00E080B582B000AF78607B68D3F87A
:103DE0005C341846FEF7A6F900BF0837BD4680BD13
:103DF00080B582B000AF78602B4A7B68C2F85C3433
:103E00007B68294AC3F82022274B284A1A60264B90
:103E100008225A60244B02229A60234B0322DA6064
:103E2000214B00229A61204B0022DA611E4B0022B6
:103E30001A621D48FDF752F80346002B04D04FF4D8
:103E40008D711B48FEF708FB7B68D3F8200218230E
:103E50000022002101F01EFF7B68D3F820025823C6
:103E60000022802101F016FF7B68D3F82002C023D6
:103E70000022812101F00EFF7B68D3F820024FF46D
:103E800088730022012101F005FF7B68D3F820022E
:103E90004FF480730022822101F0FCFE00231846BB
:103EA0000837BD4680BD00BF40060020005C0040D2
:103EB0002460000880B584B000AF78600023BB7335
:103EC0000023FB737B68D3F820321846FDF7E0F837
:103ED0000346BB73BB7B032B16D801A252F823F019
:103EE000F13E0008F73E0008FD3E0008033F0008D1
:103EF0000023FB730BE00223FB7308E00123FB7339
:103F000005E00223FB7302E00223FB7300BFFB7B8F
:103F100018461037BD4680BD80B584B000AF7860CC
:103F2000084611461A460346FB700B46BB70134603
:103F30003B800023BB730023FB737B68D3F8200214
:103F4000BB783A88F978FDF7E9F90346BB73BB7B88
:103F5000032B17D801A252F823F000BF6D3F0008D1
:103F6000733F0008793F00087F3F00080023FB7380
:103F70000BE00223FB7308E00123FB7305E002233F
:103F8000FB7302E00223FB7300BFFB7B1846103774
:103F9000BD4680BD80B584B000AF78600B46FB7035
:103FA0000023BB730023FB737B68D3F82032FA78BD
:103FB00011461846FDF708FA0346BB73BB7B032B7B
:103FC00016D801A252F823F0D93F0008DF3F0008BD
:103FD000E53F0008EB3F00080023FB730BE00223E2
:103FE000FB7308E00123FB7305E00223FB7302E08F
:103FF0000223FB7300BFFB7B18461037BD4680BD14
:1040000080B584B000AF78600B46FB700023BB73B3
:104010000023FB737B68D3F82032FA7811461846E8
:10402000FDF7A6FA0346BB73BB7B032B16D801A290
:1040300052F823F0454000084B400008514000086A
:10404000574000080023FB730BE00223FB7308E0DA
:104050000123FB7305E00223FB7302E00223FB73E1
:1040600000BFFB7B18461037BD4680BD80B584B0CD
:1040700000AF78600B46FB700023BB730023FB731B
:104080007B68D3F82032FA7811461846FDF7C6FA55
:104090000346BB73BB7B032B16D801A252F823F057
:1040A000B1400008B7400008BD400008C340000808
:1040B0000023FB730BE00223FB7308E00123FB7377
:1040C00005E00223FB7302E00223FB7300BFFB7BCE
:1040D00018461037BD4680BD80B485B000AF78600B
:1040E0000B46FB707B68D3F82032FB6097F90330F6
:1040F000002B08DAFB7803F07F03FA685B011344B6
:104100002A331B7808E0FB7803F07F03FA685B0131
:10411000134403F22A231B7818461437BD4680BC8B
:10412000704700BF80B584B000AF78600B46FB706D
:104130000023BB730023FB737B68D3F82032FA782B
:1041400011461846FDF7C4F80346BB73BB7B032B2F
:1041500016D801A252F823F0694100086F41000807
:10416000754100087B4100080023FB730BE002232C
:10417000FB7308E00123FB7305E00223FB7302E0FD
:104180000223FB7300BFFB7B18461037BD4680BD82
:1041900080B586B000AFF8607A601A460B46FB72B5
:1041A00013463B810023BB750023FB75FB68D3F8E6
:1041B00020023B89F97A7A68FDF79EF90346BB75C0
:1041C000BB7D032B16D801A252F823F0DD41000875
:1041D000E3410008E9410008EF4100080023FB75B6
:1041E0000BE00223FB7508E00123FB7505E00223C9
:1041F000FB7502E00223FB7500BFFB7D18461837F4
:10420000BD4680BD80B586B000AFF8607A601A46C2
:104210000B46FB7213463B810023BB750023FB75E5
:10422000FB68D3F820023B89F97A7A68FDF712F926
:104230000346BB75BB7D032B16D801A252F823F0B1
:1042400051420008574200085D42000863420008DE
:104250000023FB750BE00223FB7508E00123FB75CF
:1042600005E00223FB7502E00223FB7500BFFB7D26
:1042700018461837BD4680BD80B582B000AF786063
:104280000B46FB707B68D3F82032FA78114618464B
:10429000FDF71CF9034618460837BD4680BD00BF30
:1042A00080B483B000AF7860024B18460C37BD462F
:1042B00080BC70476001002080B483B000AF78609C
:1042C00000BF0C37BD4680BC704700BF80B483B0D0
:1042D00000AF78600B46FB7000BF0C37BD4680BC5A
:1042E000704700BF80B58AB002AFF860B9603B602C
:1042F0001346FB800023BB610023FB77FB6893F828
:104300005030012B01D1022323E1FB68012283F805
:104310005020FBF7F1FFB861FB6893F85130DBB236
:10432000012B02D00223FB770AE1BB68002B02D0ED
:10433000FB88002B02D10123FB7701E1FB680322FC
:1043400083F85120FB6800225A65FB68BA681A633B
:10435000FB68FA889A86FB68FA88DA86FB6800228E
:104360009A63FB6800229A87FB680022DA87FB6861
:1043700000225A64FB6800221A64FB689B68B3F54C
:10438000004F07D1FB681B68FA681268126842F494
:1043900080421A60FB681B681B6803F04003002B17
:1043A00007D1FB681B68FA681268126842F0400285
:1043B0001A60FB68DB68B3F5006F47D1FB685B6888
:1043C000002B04D0FB68DB8E9BB2012B38D1FB683D
:1043D0001B68BA681288DA60BB680233BB60FB688E
:1043E000DB8E9BB2013B9AB2FB68DA8628E0FB6861
:1043F0001B689B6803F00203002B0FD0FB681B684F
:10440000BA681288DA60BB680233BB60FB68DB8E77
:104410009BB2013B9AB2FB68DA8611E03B68002B45
:104420000BD03B68B3F1FF3F0AD0FBF765FF0246B4
:10443000BB69D21A3B689A4202D30323FB777FE021
:10444000FB68DB8E9BB2002BD1D148E0FB685B6838
:10445000002B04D0FB68DB8E9BB2012B3AD1FB68AA
:104460001B680C33BA6812781A70BB680133BB60E2
:10447000FB68DB8E9BB2013B9AB2FB68DA8629E0CF
:10448000FB681B689B6803F00203002B10D0FB68DD
:104490001B680C33BA6812781A70BB680133BB60B2
:1044A000FB68DB8E9BB2013B9AB2FB68DA8611E0B7
:1044B0003B68002B0BD03B68B3F1FF3F0AD0FBF702
:1044C0001BFF0246BB69D21A3B689A4202D3032300
:1044D000FB7735E0FB68DB8E9BB2002BD0D1BB694C
:1044E00000933B6801220221F86800F055FB034667
:1044F000002B02D00323FB7722E0BA693968F86801
:1045000000F0B4FB0346002B05D00123FB77FB68CA
:1045100020225A6514E0FB689B68002B0AD1002317
:104520007B61FB681B68DB687B61FB681B689B68C1
:104530007B617B69FB685B6D002B01D00123FB77FE
:10454000FB68012283F85120FB68002283F8502089
:10455000FB7F18462037BD4680BD00BF80B586B0C2
:1045600000AFF860B9601346FB800023FB75FB6861
:104570009B68002B10D1FB685B68B3F5827F0BD181
:10458000FB68042283F85120FB88BA68B968F86890
:1045900000F078F803466CE0FB6893F85030012B8C
:1045A00001D1022365E0FB68012283F85020FB68FB
:1045B00093F85130DBB2012B02D00223FB7553E09C
:1045C000BB68002B02D0FB88002B02D10123FB75B6
:1045D0004AE0FB68042283F85120FB6800225A65F8
:1045E000FB68BA689A63FB68FA889A87FB68FA885E
:1045F000DA87FB6800221A63FB6800229A86FB6850
:104600000022DA86FB6800225A64FB68DB68002B14
:1046100003D0FB68194A1A6402E0FB68184A1A645E
:10462000FB689B68B3F5004F07D1FB681B68FA680D
:104630001268126822F480421A60FB681B68FA68EC
:104640001268526842F060025A60FB681B681B687F
:1046500003F04003002B07D1FB681B68FA6812685F
:10466000126842F040021A60FB68002283F8502072
:10467000FB7D18461837BD4680BD00BF514B000872
:104680000D4B000880B489B000AFF860B9607A6063
:104690007B800023BB6100237B610023FB77FB68E9
:1046A00093F85030012B01D1022374E0FB68012202
:1046B00083F85020FB6893F85130DBB2BB61FB6894
:1046C0005B687B61BB69012B0DD07B69B3F5827F91
:1046D00006D1FB689B68002B02D1BB69042B02D07A
:1046E0000223FB7752E0BB68002B05D07B68002BD0
:1046F00002D07B88002B02D10123FB7746E0FB68C8
:1047000093F85130DBB2012B03D1FB68052283F80B
:104710005120FB6800225A65FB68BA681A63FB687F
:104720007A889A86FB687A88DA86FB687A689A6360
:10473000FB687A889A87FB687A88DA87FB68DB6887
:10474000002B06D0FB68164A1A64FB68154A5A64A7
:1047500005E0FB68144A1A64FB68144A5A64FB6853
:104760001B68FA681268526842F0E0025A60FB68FF
:104770001B681B6803F04003002B07D1FB681B6814
:10478000FA681268126842F040021A60FB68002260
:1047900083F85020FB7F18462437BD4680BC704705
:1047A0004D4A0008AD4A00088D490008ED4900084F
:1047B00080B588B000AF78607B681B685B68FB6180
:1047C0007B681B689B68BB61BB6903F04003002BDF
:1047D0000ED1BB6903F00103002B09D0FB6903F084
:1047E0004003002B04D07B681B6C786898479FE0DF
:1047F000BB6903F00203002B09D0FB6903F08003BF
:10480000002B04D07B685B6C7868984790E0BB69AC
:1048100003F06003002B00F08B80FB6903F02003A2
:10482000002B00F08580BB6903F04003002B23D0F0
:104830007B6893F85130DBB2032B11D07B685B6D42
:1048400043F004027B685A6500237B617B681B6828
:10485000DB687B617B681B689B687B617B690BE025
:1048600000233B617B681B68DB683B617B681B68DE
:104870009B683B613B695BE0BB6903F02003002B55
:1048800014D07B685B6D43F001027B685A6500239E
:10489000FB607B681B689B68FB607B681B687A68B1
:1048A0001268126822F040021A60FB687B685B6D38
:1048B000002B3CD07B681B687A681268526822F033
:1048C000E0025A607B68012283F85120FB6903F003
:1048D0000203002B04D1FB6903F00103002B22D05B
:1048E0007B681B687A681268526822F003025A607B
:1048F0007B68DB6C002B08D07B68DB6C0E4A5A634C
:104900007B68DB6C1846FFF787F87B689B6C002B95
:104910000CD07B689B6C084A5A637B689B6C18467A
:10492000FFF77AF802E0786800F012F800BF00BFE5
:104930002037BD4680BD00BF6549000880B483B004
:1049400000AF786000BF0C37BD4680BC704700BF29
:1049500080B483B000AF786000BF0C37BD4680BC28
:10496000704700BF80B584B000AF78607B685B6A39
:10497000FB60FB680022DA87FB680022DA86F868B1
:10498000FFF7E6FF00BF1037BD4680BD80B582B09F
:1049900000AF78607B689B6B591C7A6891637A687A
:1049A00012680C321278D2B21A707B68DB8F9BB21D
:1049B000013B9AB27B68DA877B68DB8F9BB2002B66
:1049C0000FD17B681B687A681268526822F0600217
:1049D0005A607B68DB8E9BB2002B02D1786800F0B6
:1049E00063F900BF0837BD4680BD00BF80B582B007
:1049F00000AF78607B681B6803F10C027B681B6B5F
:104A0000581C796808631B7813707B68DB8E9BB237
:104A1000013B9AB27B68DA867B68DB8E9BB2002B07
:104A20000FD17B681B687A681268526822F0800296
:104A30005A607B68DB8F9BB2002B02D1786800F054
:104A400033F900BF0837BD4680BD00BF80B582B0D6
:104A500000AF78607B689B6B7A681268D26892B20C
:104A60001A807B689B6B9A1C7B689A637B68DB8FE0
:104A70009BB2013B9AB27B68DA877B68DB8F9BB283
:104A8000002B0FD17B681B687A681268526822F08D
:104A900040025A607B68DB8E9BB2002B02D17868A3
:104AA00000F002F900BF0837BD4680BD80B582B076
:104AB00000AF78607B681B687A68126B1288DA60D6
:104AC0007B681B6B9A1C7B681A637B68DB8E9BB2CE
:104AD000013B9AB27B68DA867B68DB8E9BB2002B47
:104AE0000FD17B681B687A681268526822F08002D6
:104AF0005A607B68DB8F9BB2002B02D1786800F094
:104B0000D3F800BF0837BD4680BD00BF80B582B076
:104B100000AF78607B689B6B591C7A6891637A68F8
:104B200012680C321278D2B21A707B68DB8F9BB29B
:104B3000013B9AB27B68DA877B68DB8F9BB2002BE4
:104B400002D1786800F024F900BF0837BD4680BD67
:104B500080B582B000AF78607B689B6B7A68126822
:104B6000D26892B21A807B689B6B9A1C7B689A63AE
:104B70007B68DB8F9BB2013B9AB27B68DA877B68EC
:104B8000DB8F9BB2002B02D1786800F001F900BFE7
:104B90000837BD4680BD00BF80B584B000AFF86067
:104BA000B9607A603B604DE03B68B3F1FF3F49D0AC
:104BB0003B68002B07D0FBF79FFB0246BB69D21A6C
:104BC0003B689A423ED3FB681B68FA6812685268D9
:104BD00022F0E0025A60FB685B68B3F5827F11D176
:104BE000FB689B68B3F5004F04D0FB689B68B3F586
:104BF000806F07D1FB681B68FA681268126822F0A0
:104C000040021A60FB689B6AB3F5005F10D1FB6835
:104C10001A68FB681B6819684DF6FF730B40136038
:104C2000FB681B68FA681268126842F400521A6046
:104C3000FB68012283F85120FB68002283F8502092
:104C400003230EE0FB681B689A68BB681A40BB68C8
:104C50009A4201D1012200E000227B689A42A3D14E
:104C6000002318461037BD4680BD00BF80B586B012
:104C700002AFF860B9607A607B680093BB6800227D
:104C80008021F868FFF788FF0346002B07D0FB68F8
:104C90005B6D43F02002FB685A65032300E00023AC
:104CA00018461037BD4680BD80B586B000AF78602D
:104CB00000237B61344B1B68344AA2FB03235B0A4D
:104CC000642202FB03F33B61FBF716FB78617B6810
:104CD0001B687A681268526822F020025A603B69A9
:104CE0005A1E3A61002B06D17B685B6D43F02002AF
:104CF0007B685A6506E07B681B689B6803F00203CB
:104D0000002BECD07A6964217868FFF7AFFF034687
:104D1000002B05D07B685B6D43F020027B685A65F1
:104D20007B689B68002B0AD10023FB607B681B68B3
:104D3000DB68FB607B681B689B68FB60FB687B68CB
:104D40005B6D002B15D17B6893F85130DBB2042BDF
:104D500007D17B68012283F851207868FDF760FB5A
:104D60000EE07B68012283F851207868FFF7E6FDAA
:104D700006E07B68012283F851207868FFF7E8FDA0
:104D800000BF1837BD4680BD00000020F119760530
:104D900080B584B000AF78607B681B687A68126861
:104DA000526822F060025A607B685B68B3F5827FCC
:104DB00011D17B689B68B3F5004F04D07B689B687A
:104DC000B3F5806F07D17B681B687A681268126838
:104DD00022F040021A607B689B68002B0AD10023F6
:104DE000FB607B681B68DB68FB607B681B689B68FB
:104DF000FB60FB687B68012283F851207B685B6D58
:104E0000002B03D17868FDF70BFB02E07868FFF711
:104E10009FFD00BF1037BD4680BD00BF80B582B08A
:104E200000AF244A234B9B6943F001039361214B5C
:104E30009B6903F001037B607B680320FBF798FB11
:104E4000002200216FF00B00FBF79EFB00220021E7
:104E50006FF00A00FBF798FB002200216FF00900B9
:104E6000FBF792FB002200216FF00400FBF78CFBA4
:104E7000002200216FF00300FBF786FB00220021D7
:104E80006FF00100FBF780FB002200214FF0FF30A4
:104E9000FBF77AFB084A084B5B6823F0E06353603A
:104EA000054A054B5B6843F08073536000BF0837C9
:104EB000BD4680BD001002400000014080B588B0B2
:104EC00000AF78607B681B68334A93422CD1334A29
:104ED000324B9B6943F480539361304B9B6903F4DD
:104EE0008053FB60FB68A0233B6102237B610323AB
:104EF000FB6107F1100319462948FEF705FC402322
:104F00003B6100237B610023BB6107F1100319465D
:104F10002348FEF7F9FB002200212320FBF734FB96
:104F20002320FBF74DFB32E07B681B681D4A934250
:104F30002DD11A4A194BDB6943F48043D361174BD7
:104F4000DB6903F48043BB60BB684FF420433B61E3
:104F500000237B610023BB6107F11003194612484F
:104F6000FEF7D2FB4FF480433B6102237B610323B6
:104F7000FB6107F1100319460B48FEF7C5FB002241
:104F800000212420FBF700FB2420FBF719FB00BFC6
:104F90002037BD4680BD00BF0030014000100240F8
:104FA0000008014000380040000C014080B584B08A
:104FB00000AF78600B46FB700023FB737B681B7CA3
:104FC000002B0ED14FF40073022281217868FEF786
:104FD000A3FF4FF40073022201217868FEF79CFFC3
:104FE0000BE04023022281217868FEF795FF4023E1
:104FF000022201217868FEF78FFF08230322822115
:105000007868FEF789FF4FF40770FFF749F9024609
:105010007B68C3F818227B68D3F81832002B02D1C2
:105020000123FB7326E07B68D3F81832BB607B68F2
:10503000D3F81C321B689847BB680022C3F81422BF
:10504000BB680022C3F818227B681B7C002B09D1A7
:10505000BB68D3F804224FF4007301217868FFF78E
:10506000D1F807E0BB68D3F8042240230121786817
:10507000FFF7C8F8FB7B18461037BD4680BD00BF60
:1050800080B584B000AF78600B46FB700023FB73E3
:1050900081217868FEF77EFF01217868FEF77AFFAC
:1050A00082217868FEF776FF7B68D3F81832002BF0
:1050B0000ED07B68D3F81C325B6898477B68D3F8C6
:1050C00018321846FFF7F8F87B680022C3F8182258
:1050D000FB7B18461037BD4680BD00BF80B584B04D
:1050E00000AF786039607B68D3F81832FB603B68AA
:1050F0001B7803F06003002B3AD0202B00D043E054
:105100003B68DB88002B29D03B681B785BB2002B07
:1051100011DA7B68D3F81C329B683A685078F968DA
:105120003A68D2889847F9683B68DB881A467868FD
:1051300000F07CFE29E03B685A78FB6883F8002287
:105140003B68DB88DAB2FB6883F80122F9683B68C8
:10515000DB881A46786800F097FE16E07B68D3F883
:105160001C329B683A6850780022396898470CE0F6
:105170003B685B780A2B01D00B2B05E00122054927
:10518000786800F053FE00BF00BF002318461037B8
:10519000BD4680BD8003002080B485B000AF78603C
:1051A0000B46FB707B68D3F81832FB607B68D3F842
:1051B0001832002B05D0FB680022C3F8142200230C
:1051C00000E0022318461437BD4680BC704700BF7C
:1051D00080B584B000AF78600B46FB707B68D3F875
:1051E0001832FB60FB7819467868FFF745F80246ED
:1051F000FB68C3F80C227B68D3F81832002B0DD063
:105200007B68D3F81C32DB68FA68D2F80402FA68CB
:1052100002F5037211469847002300E00223184666
:105220001037BD4680BD00BF80B584B000AF786048
:105230007B68D3F81832FB607B68D3F81C32002BF4
:1052400015D0FB6893F80032FF2B10D07B68D3F8A1
:105250001C329B68FA6892F80002F968FA6892F8C2
:10526000012292B29847FB68FF2283F800220023B4
:1052700018461037BD4680BD80B483B000AF78605B
:105280007B6843221A80034B18460C37BD4680BC0E
:10529000704700BFC800002080B483B000AF7860C2
:1052A0007B6843221A80034B18460C37BD4680BCEE
:1052B000704700BF8400002080B483B000AF7860E6
:1052C0007B6843221A80034B18460C37BD4680BCCE
:1052D000704700BF0C01002080B483B000AF78603D
:1052E0007B680A221A80034B18460C37BD4680BCE7
:1052F000704700BF4000002080B485B000AF7860E8
:1053000039600223FB733B68002B05D07B683A6849
:10531000C3F81C220023FB73FB7B18461437BD46E1
:1053200080BC704780B487B000AFF860B9601346A6
:10533000FB80FB68D3F818327B617B69BA68C3F8DD
:105340000822FA887B69C3F81022002318461C370C
:10535000BD4680BC704700BF80B485B000AF7860A8
:1053600039607B68D3F81832FB60FB683A68C3F891
:105370000422002318461437BD4680BC704700BF86
:1053800080B584B000AF78607B68D3F81832FB60DA
:105390007B68D3F81832002B17D07B681B7C002B5E
:1053A00009D1FB68D3F804224FF400730121786817
:1053B000FEF728FF07E0FB68D3F804224023012111
:1053C0007868FEF71FFF002300E00223184610371D
:1053D000BD4680BD80B584B000AF786039600023E1
:1053E000FB733B685B78092B39D801A252F823F094
:1053F00041540008555400085F5400084B540008FD
:105400005F54000823540008195400085F54000832
:10541000375400082D5400083968786800F036F9D0
:1054200022E03968786800F025FA1DE0396878686C
:1054300000F05EFA18E03968786800F0E1FA13E0ED
:105440003968786800F00EFB0EE03968786800F083
:1054500033FB09E03968786800F04AFB04E03968FA
:10546000786800F0A9FB00BFFB7B18461037BD46EB
:1054700080BD00BF80B584B000AF78603960002384
:10548000FB737B6893F8FC31032B1BD13B689B8833
:10549000DBB2012B11D87B68D3F814329B683968D2
:1054A000786898473B68DB88002B10D1FB7B002B8A
:1054B0000DD1786800F018FD09E03968786800F0CF
:1054C0007BFB04E03968786800F076FB00E000BF01
:1054D000002318461037BD4680BD00BF80B584B09C
:1054E00000AF786039600023FB733B689B88BB7317
:1054F0003B681B7803F06003202B08D17B68D3F84E
:1055000014329B683968786898470023BAE03B6892
:105510005B78012B39D0032B02D0002B6BD0B0E08D
:105520007B6893F8FC31022B02D0032B0CD025E0D2
:10553000BB7B002B27D0BB7B802B24D0BB7B1946A9
:105540007868FEF75DFD1EE03B685B88002B0AD1A2
:10555000BB7B002B07D0BB7B802B04D0BB7B1946C9
:105560007868FEF74DFD7B68D3F814329B68396884
:1055700078689847786800F0B7FC05E03968786883
:1055800000F01AFB00E000BF7BE07B6893F8FC3181
:10559000022B02D0032B0CD024E0BB7B002B26D0A7
:1055A000BB7B802B23D0BB7B19467868FEF728FD98
:1055B0001DE03B685B88002B1BD1BB7B03F07F03A6
:1055C000002B0BD0BB7B19467868FEF74FFD7B683C
:1055D000D3F814329B68396878689847786800F087
:1055E00083FC06E03968786800F0E6FA02E000BF64
:1055F00047E000BF45E07B6893F8FC31022B02D006
:10560000032B0BD036E0BB7B03F07F03002B36D09F
:10561000BB7B19467868FEF7F3FC30E097F90E3053
:10562000002B08DABB7B03F07F0301331B017A6890
:105630001344043307E0BB7B03F07F0310331B01EB
:105640007A6813440433BB60BB7B19467868FEF765
:1056500043FD0346002B03D0BB6801221A6002E021
:10566000BB6800221A60BB6802221946786800F005
:10567000DDFB05E03968786800F09EFA00E000BFC5
:1056800000BFFB7B18461037BD4680BD80B584B097
:1056900000AF786039603B685B881B0A9BB2013BB6
:1056A000062B00F2C98001A252F823F0C956000867
:1056B000E1560008215700083958000839580008F9
:1056C000E55700080B5800087B68D3F810321B68B8
:1056D0007A68127C07F10A0110469847F860B0E03A
:1056E0007B681B7C002B0DD17B68D3F814329B6A3E
:1056F00007F10A0210469847F860FB68013302225E
:105700001A709EE07B68D3F81432DB6A07F10A0254
:1057100010469847F860FB68013302221A7090E047
:105720003B685B88DBB2052B56D801A252F823F008
:105730004957000861570008795700089157000839
:10574000A9570008C15700087B68D3F810325B687E
:105750007A68127C07F10A0110469847F86040E029
:105760007B68D3F810329B687A68127C07F10A01D3
:1057700010469847F86034E07B68D3F81032DB6855
:105780007A68127C07F10A0110469847F86028E011
:105790007B68D3F810321B697A68127C07F10A0122
:1057A00010469847F8601CE07B68D3F810325B69BC
:1057B0007A68127C07F10A0110469847F86010E0F9
:1057C0007B68D3F810329B697A68127C07F10A0172
:1057D00010469847F86004E03968786800F0ECF902
:1057E00044E02EE07B681B7C002B09D17B68D3F85A
:1057F00014325B6B07F10A0210469847F86020E00C
:105800003968786800F0D8F930E07B681B7C002BA1
:105810000DD17B68D3F814321B6B07F10A021046D6
:105820009847F860FB68013307221A7009E039686D
:10583000786800F0C1F919E03968786800F0BCF9BF
:1058400014E07B89002B11D03B68DB88002B0DD046
:105850003B68DA887B89934228BF13469BB27B81E1
:105860007B891A46F968786800F0E0FA1037BD467F
:1058700080BD00BF80B584B000AF786039603B6800
:105880009B88002B2CD13B68DB88002B28D13B6800
:105890005B88DBB203F07F03FB737B6893F8FC311A
:1058A000032B04D13968786800F086F91CE07B6826
:1058B000FA7B83F8FE21FB7B19467868FEF732FC01
:1058C000786800F011FBFB7B002B04D07B68022280
:1058D00083F8FC2108E07B68012283F8FC2103E0C7
:1058E0003968786800F068F900BF1037BD4680BDA0
:1058F00080B582B000AF786039603B685B88DAB20F
:105900003E4B1A703D4B1B78012B04D939687868DF
:1059100000F052F96FE07B6893F8FC31022B02D063
:10592000032B23D062E0354B1B78002B1AD0334B6E
:105930001B781A467B685A607B68032283F8FC2137
:105940002E4B1B7819467868FCF736FA0346022B73
:1059500004D13968786800F02FF94CE0786800F0DD
:10596000C3FA48E0786800F0BFFA44E0234B1B78A4
:10597000002B12D17B68022283F8FC211F4B1B787D
:105980001A467B685A601D4B1B7819467868FCF7ED
:1059900033FA786800F0A8FA2DE0184B1B781A4605
:1059A0007B685B689A421DD07B685B68DBB21946F6
:1059B0007868FCF721FA114B1B781A467B685A600D
:1059C0000E4B1B7819467868FCF7F6F90346022B54
:1059D00004D13968786800F0EFF80CE0786800F0DE
:1059E00083FA08E0786800F07FFA04E039687868A4
:1059F00000F0E2F800BF0837BD4680BD81030020FB
:105A000080B582B000AF786039603B68DB88012BDD
:105A100004D03968786800F0CFF81FE07B6893F80D
:105A2000FC31022B02D0032B0BD012E07B6800224A
:105A30009A607B68083301221946786800F0F6F90D
:105A40000CE07B68043301221946786800F0EEF917
:105A500004E03968786800F0AFF800BF00BF08378D
:105A6000BD4680BD80B582B000AF786039607B688C
:105A700093F8FC31023B012B15D87B680122DA60D8
:105A80007B68D3F80432002B05D07B68DB6843F0D9
:105A900002027B68DA607B680C3302221946786860
:105AA00000F0C4F904E03968786800F085F800BFB8
:105AB00000BF0837BD4680BD80B582B000AF7860BA
:105AC00039603B685B88012B0DD17B680122C3F8EC
:105AD00004227B68D3F814329B6839687868984749
