:020000040800F2
:10000000580800206D020008690200086902000813
:100010006902000869020008690200080000000087
:10002000000000000000000000000000690200085D
:100030006902000800000000690200086902000867
:1000400069020008690200086902000869020008E4
:1000500069020008690200086902000869020008D4
:1000600069020008690200086902000869020008C4
:1000700069020008690200086902000869020008B4
:1000800069020008690200086902000869020008A4
:100090006902000869020008690200086902000894
:1000A0006902000869020008690200086902000884
:1000B0006902000869020008690200086902000874
:1000C0006902000869020008690200086902000864
:1000D0006902000869020008690200086902000854
:1000E00069020008690200086902000800000000B7
:1000F0000000000000000000000000000000000000
:1001000000000000000000005FF808F110B5054C89
:10011000237833B9044B13B10448AFF300800123B3
:10012000237010BD38040020000000005C060008A9
:10013000084B10B51BB108490848AFF300800848C8
:10014000036803B910BD074B002BFBD0BDE810407E
:10015000184700BF000000003C0400205C060008B7
:10016000340400200000000082B03B4B1A6842F0CB
:1001700001021A605968394A0A405A601A6822F026
:10018000847222F480321A601A6822F480221A6083
:100190005A6822F4FE025A604FF41F029A6000224D
:1001A000009201921A6842F480321A601A4613686B
:1001B00003F400330193009B01330093019B1BB9AF
:1001C000009BB3F5A06FF2D1234B1B6813F4003FE3
:1001D00014BF012300230193019B012B36D1204B37
:1001E0001A6842F010021A601A6822F003021A60BC
:1001F0001A6842F002021A60A3F580535A685A60E6
:100200005A685A605A6842F480625A605A6822F406
:100210007C125A605A6842F4E8125A601A6842F036
:1002200080721A601A46136813F0007FFBD00A4BE5
:100230005A6822F003025A605A6842F002025A6079
:100240001A46536803F00C03082BFAD14FF00062F2
:10025000044B9A6002B07047001002400000FFF8A3
:100260000020024000ED00E0FEE700BF08B50F4BA4
:100270000F4A9A420CD2581E801A20F00300043014
:100280000C4B184453F8041B42F8041B8342F9D169
:1002900009480A494FF000028842B8BF40F8042BD1
:1002A000FADBFFF761FF00F05FF808BD38040020BB
:1002B000000000205C0600083804002054040020E0
:1002C000F0B5CB7803F00F0613F0100F1CBF8B783E
:1002D0001E430B78F3B10568002301274FF00F0C84
:1002E00007FA03F20C8832EA04040FD19C000CFADE
:1002F00004FE25EA0E0506FA04F42543CC78282CE2
:1003000001D1426102E0482C08BF02610133082B91
:10031000E6D105600B88FF2B20D945680023012713
:100320004FF00F0E03F1080207FA02F20C8832EACE
:1003300004040FD19C000EFA04FC25EA0C0506FA11
:1003400004F42543CC78282C08BF4261CC78482C93
:1003500008BF02610133082BE4D14560F0BD00BF46
:10036000016170474161704730B583B000F056F8C5
:100370004FF4803000F072F800F0D2F8012815D167
:1003800000214FF4403000F087F8012000F08EF893
:100390003924204600F0B0F80028FAD0022000F0FE
:1003A0008BF800F093F80828FBD100E0FEE701216C
:1003B000042000F093F84FF40055ADF804501023DA
:1003C0008DF8073003248DF8064001A91048FFF787
:1003D00077FF29460F48FFF7C3FF0121082000F0EF
:1003E0007DF8ADF8044028238DF8073002238DF8FE
:1003F000063001A90848FFF763FF05F1804505F5C0
:1004000070454FF4005421462846FFF7ABFFFAE74A
:100410000008014000100140000C01400D4B1A681B
:1004200042F001021A6059680B4A0A405A601A6881
:1004300022F0847222F480321A601A6822F4802238
:100440001A605A6822F4FE025A604FF41F029A6042
:10045000704700BF001002400000FFF80D4B1A6803
:1004600022F480321A601A6822F480221A60B0F5F1
:10047000803F03D0B0F5802F06D07047054A13683F
:1004800043F4803313607047024A136843F4A02397
:100490001360704700100240034A536823F47C1332
:1004A000194308435060704700100240014B186028
:1004B000704700BF60004242034A536823F00303C1
:1004C00018435060704700BF00100240024B58684C
:1004D00000F00C00704700BF0010024021B1054B36
:1004E0009A69104398617047024A936923EA0000B1
:1004F00090617047001002404309012B02D1074B65
:100500001B6804E0022B054B0CBF1B6A5B6A00F002
:100510001F0023FA00F000F00100704700100240B5
:1005200010B582B00023019331242046FFF7E4FF89
:10053000019B01330193019BB3F5A06F01D000280B
:10054000F3D03120FFF7D8FF003018BF012002B0F0
:1005500010BD00BF024B13B1024800F005B8704750
:100560000000000075050008002301461A461846E1
:1005700000F014B838B5074D074C2C1BA41005D05B
:10058000013C55F8043D9847002CF9D1BDE83840AE
:1005900000F05CB834040020300400202DE9F0475E
:1005A000254C064625688846D5F848419246994626
:1005B000C4B360681F2817DC411C76B104EB8003CC
:1005C000C3F888A0D4F88851012282401543022E36
:1005D000C4F88851C3F808911ED0831C61600020C4
:1005E00044F82380BDE8F087144B03B34FF4C87080
:1005F000AFF300800446D0B1D5F84831002784E835
:1006000088003846C5F848410121C4F88871C4F80B
:100610008C71002EE1D0D1E7D4F88C311A43C4F8A4
:100620008C21DAE705F5A674C5F84841C1E74FF01B
:10063000FF30BDE8F08700BF58060008000000004A
:10064000F8B500BFF8BC08BC9E467047F8B500BFBF
:0C065000F8BC08BC9E467047000000206B
:10065C0000000000EC02002054030020BC0300202A
:10066C00000000000000000000000000000000007E
:10067C00000000000000000000000000000000006E
:10068C00000000000000000000000000000000005E
:10069C00000000000000000000000000000000004E
:1006AC00000000000000000000000000000000003E
:1006BC00000000000000000000000000000000002E
:1006CC00000000000000000000000000000000001E
:1006DC00000000000000000000000000000000000E
:1006EC0000000000000000000000000000000000FE
:1006FC0000000000000000000100000000000000ED
:10070C000E33CDAB34126DE6ECDE05000B000000B1
:10071C0000000000000000000000000000000000CD
:10072C0000000000000000000000000000000000BD
:10073C0000000000000000000000000000000000AD
:10074C00000000000000000000000000000000009D
:100A7C0000000000000000005505000831010008CE
:080A8C000D010008000000004C
:0400000508000000EF
:00000001FF
