:020000040800F2
:10000000E81000201D17000895030008A103000850
:10001000A7030008AD030008B303000800000000B8
:10002000000000000000000000000000B90300080C
:10003000C503000800000000D1030008DD0300082C
:100040007D1700087D1700087D1700087D17000840
:100050007D1700087D1700087D1700087D17000830
:100060007D1700087D1700087D1700087D17000820
:100070007D1700087D1700087D1700087D17000810
:100080007D1700087D1700087D1700087D17000800
:10009000ED0300087D1700087D1700087D17000894
:1000A0007D1700087D1700087D1700087D170008E0
:1000B0007D1700087D1700087D1700087D170008D0
:1000C0007D1700087D1700087D1700087D170008C0
:1000D0007D1700087D1700087D1700087D170008B0
:1000E0007D1700087D1700087D170008000000003C
:1000F0000000000000000000000000000000000000
:1001000000000000000000005FF808F180B590B02A
:1001100000AF78600023FB630023BB637B681B6830
:1001200003F00103002B00F0AC80674A664BDB69EB
:1001300043F08053D361644BDB6903F08053FB6071
:10014000FB68624A614B1B6843F48073136000F0E4
:1001500001F9F86308E000F0FDF80246FB6BD31AE2
:10016000642B01D90323ABE0584B1B6803F4807365
:10017000002BF0D0544B1B6A03F44073BB63BB6B82
:10018000002B75D07B685B6803F44072BB6B9A42AE
:100190006ED04D4B1B6A23F44073BB634FF4803326
:1001A000FB62FB6A93FAA3F3BB62BB6AB3FA83F305
:1001B0009B001A46464B13441A46012313604FF422
:1001C00080337B637B6B93FAA3F33B633B6BB3FAA4
:1001D00083F39B001A463E4B13441A4600231360D8
:1001E000394ABB6B1362BB6B03F00103002B3FD09A
:1001F00000F0B0F8F8630AE000F0ACF80246FB6BE0
:10020000D31A41F28832934201D9032358E00223E2
:100210007B627B6A93FAA3F33B620223FB61FB6977
:1002200093FAA3F3BB61BB69B3FA83F3DBB25B0957
:10023000DBB243F00203DBB2022B02D1224B1B6A7A
:1002400001E0214B5B6A02227A617A6992FAA2F29A
:100250003A613A69B2FA82F252B242F0400252B2C4
:10026000D2B202F01F02D34003F00103002BC3D02F
:100270001549154B1B6A23F440727B685B68134376
:100280000B627B681B6803F00203002B08D00E4949
:100290000D4B5B6823F440427B689B6813434B60C3
:1002A0007B681B6803F01003002B08D00649064B3F
:1002B0005B6823F480027B68DB6813434B60002398
:1002C00018464037BD4680BD001002400070004017
:1002D0000004424280B500AF084A084B1B6843F057
:1002E00010031360032000F051F9002000F008F81B
:1002F00005F040F80023184680BD00BF00200240F2
:1003000080B582B000AF786001F0FEF90246094B7B
:10031000A3FB02239B09184600F06DF900227968BF
:100320004FF0FF3000F03DF9002318460837BD4676
:1003300080BD00BFD34D621080B400AF044B1B687A
:100340000133034A136000BFBD4680BC704700BF45
:100350005801002080B400AF024B1B681846BD4610
:1003600080BC70475801002080B584B000AF786031
:100370000023FB60FFF7EEFFF86000BFFFF7EAFF26
:100380000246FB68D21A7B689A42F7D300BF103747
:10039000BD4680BD80B400AF00BFBD4680BC704785
:1003A00080B400AFFEE780B400AFFEE780B400AFDA
:1003B000FEE780B400AFFEE780B400AF00BFBD46EB
:1003C00080BC704780B400AF00BFBD4680BC7047A2
:1003D00080B400AF00BFBD4680BC704780B500AFA1
:1003E000FFF7AAFF00F030F900BF80BD80B500AF75
:1003F000024801F0C6FA00BF80BD00BF24060020FD
:1004000080B485B000AF78607B6803F00703FB60C1
:100410000C4BDB68BB60BA684FF6FF031340BB6050
:10042000FB681A02BB68134343F0BF6343F4003315
:10043000BB60044ABB68D36000BF1437BD4680BCB4
:10044000704700BF00ED00E080B400AF044BDB68F4
:100450001B0A03F007031846BD4680BC704700BF67
:1004600000ED00E080B483B000AF0346FB710849A3
:1004700097F907305B09FA7902F01F02012000FAB0
:1004800002F241F8232000BF0C37BD4680BC704704
:1004900000E100E080B483B000AF03463960FB7137
:1004A00097F90730002B0BDA0D49FB7903F00F03A6
:1004B000043B3A68D2B21201D2B20B441A7609E078
:1004C000084997F907303A68D2B21201D2B20B4408
:1004D00083F8002300BF0C37BD4680BC704700BFC7
:1004E00000ED00E000E100E080B489B000AFF8600A
:1004F000B9607A60FB6803F00703FB61FB69C3F135
:100500000703042B28BF0423BB61FB690433062BBC
:1005100002D9FB69033B00E000237B610122BB6938
:1005200002FA03F35A1EBB681A407B699A40012104
:100530007B6901FA03F3591E7B680B40134318468D
:100540002437BD4680BC704780B582B000AF78606C
:100550007B68013BB3F1807F01D301230FE00A4A9E
:100560007B68013B53600F214FF0FF30FFF792FF94
:10057000054B00229A60044B07221A60002318469C
:100580000837BD4680BD00BF10E000E080B582B0F6
:1005900000AF78607868FFF733FF00BF0837BD46CB
:1005A00080BD80B586B000AF0346B9607A60FB734A
:1005B00000237B61FFF748FF78617A68B968786942
:1005C000FFF792FF024697F90F3011461846FFF7E2
:1005D00061FF00BF1837BD4680BD80B582B000AF57
:1005E0000346FB7197F907301846FFF73BFF00BF42
:1005F0000837BD4680BD80B582B000AF78607868AE
:10060000FFF7A2FF034618460837BD4680BD00002D
:1006100080B483B000AF78607B68042B06D1094AB0
:10062000084B1B6843F00403136005E0054A054BC3
:100630001B6823F00403136000BF0C37BD4680BC69
:10064000704700BF10E000E080B500AF00F002F896
:1006500000BF80BD80B400AF00BFBD4680BC704706
:1006600080B400AF154A154B1B6843F001031360BB
:100670001249124B5A68124B13404B600F4A0F4BF2
:100680001B6823F0847323F4803313600B4A0B4BF5
:100690001B6823F480231360084A084B5B6823F42B
:1006A000FE035360054B4FF41F029A60054B4FF059
:1006B00000629A6000BFBD4680BC704700100240D7
:1006C0000000FFF800ED00E080B5E4B000AF3B1D96
:1006D00018600023C7F88C313B1D1B681B6803F0B2
:1006E0000103002B00F04081B84B5B6803F00C0362
:1006F000042B0CD0B54B5B6803F00C03082B4FD1D7
:10070000B24B5B6803F48033B3F5803F48D14FF4BC
:100710000033C7F88831D7F8883193FAA3F3C7F8C4
:100720008431D7F88431B3FA83F3DBB25B09DBB2EF
:1007300043F00103DBB2012B02D1A44B1B680BE099
:100740004FF40033C7F88031D7F8803193FAA3F320
:10075000C7F87C319D4B5B6A4FF40032C7F87821B3
:10076000D7F8782192FAA2F2C7F87421D7F8742149
:10077000B2FA82F252B242F0200252B2D2B202F087
:100780001F02D34003F00103002B00F0EC803B1D5F
:100790001B685B68002B40F0E680012300F0ABBDD6
:1007A0003B1D1B685B68B3F5803F06D1874A874BCA
:1007B0001B6843F48033136030E03B1D1B685B68AB
:1007C000002B0CD1814A814B1B6823F480331360CA
:1007D0007E4A7E4B1B6823F4802313601EE03B1D82
:1007E0001B685B68B3F5A02F0CD1784A774B1B6868
:1007F00043F480231360754A744B1B6843F48033C1
:1008000013600BE0714A714B1B6823F48033136053
:100810006E4A6E4B1B6823F4802313603B1D1B68DC
:100820005B68002B4FD0FFF795FDC7F88C010AE0FD
:10083000FFF790FD0246D7F88C31D31A642B02D90A
:10084000032300F058BD4FF40033C7F87031D7F8D8
:10085000703193FAA3F3C7F86C31D7F86C31B3FA5F
:1008600083F3DBB25B09DBB243F00103DBB2012BA4
:1008700002D1564B1B680BE04FF40033C7F86831C8
:10088000D7F8683193FAA3F3C7F864314F4B5B6A2A
:100890004FF40032C7F86021D7F8602192FAA2F233
:1008A000C7F85C21D7F85C21B2FA82F252B242F06A
:1008B000200252B2D2B202F01F02D34003F0010371
:1008C000002BB5D050E0FFF745FDC7F88C010AE0DA
:1008D000FFF740FD0246D7F88C31D31A642B02D9BA
:1008E000032300F008BD4FF40033C7F85831D7F8A0
:1008F000583193FAA3F3C7F85431D7F85431B3FA07
:1009000083F3DBB25B09DBB243F00103DBB2012B03
:1009100002D12E4B1B680BE04FF40033C7F8503167
:10092000D7F8503193FAA3F3C7F84C31274B5B6AE1
:100930004FF40032C7F84821D7F8482192FAA2F2C2
:10094000C7F84421D7F84421B2FA82F252B242F0F9
:10095000200252B2D2B202F01F02D34003F00103D0
:10096000002BB5D100E000BF3B1D1B681B6803F0E6
:100970000203002B00F05281144B5B6803F00C0360
:10098000002B0BD0114B5B6803F00C03082B65D1D7
:100990000E4B5B6803F48033002B5FD10223C7F852
:1009A0004031D7F8403193FAA3F3C7F83C31D7F878
:1009B0003C31B3FA83F3DBB25B09DBB243F00103F2
:1009C000DBB2012B04D1014B1B680CE0001002408C
:1009D0000223C7F83831D7F8383193FAA3F3C7F8B0
:1009E0003431D14B5B6A0222C7F83021D7F830216D
:1009F00092FAA2F2C7F82C21D7F82C21B2FA82F28F
:100A000052B242F0200252B2D2B202F01F02D340E0
:100A100003F00103002B07D03B1D1B681B69012B52
:100A200002D0012300F067BCBF48BF4B1B6823F016
:100A3000F8023B1D1B685969F823C7F82831D7F81D
:100A4000283193FAA3F3C7F82431D7F82431B3FA45
:100A500083F301FA03F313430360DFE03B1D1B68DC
:100A60001B69002B7AD00123C7F82031D7F8203139
:100A700093FAA3F3C7F81C31D7F81C31B3FA83F308
:100A80009B0003F1844303F584031A46012313609A
:100A9000FFF760FCC7F88C010AE0FFF75BFC024639
:100AA000D7F88C31D31A022B02D9032300F023BCD0
:100AB0000223C7F81831D7F8183193FAA3F3C7F80F
:100AC0001431D7F81431B3FA83F3DBB25B09DBB22C
:100AD00043F00103DBB2012B02D1934B1B680AE008
:100AE0000223C7F81031D7F8103193FAA3F3C7F8EF
:100AF0000C318D4B5B6A0222C7F80821D7F8082118
:100B000092FAA2F2C7F80421D7F80421B2FA82F2CD
:100B100052B242F0200252B2D2B202F01F02D340CF
:100B200003F00103002BB8D07F487F4B1B6823F0F4
:100B3000F8023B1D1B685969F823C7F80031D7F844
:100B4000003193FAA3F3C7F8FC30D7F8FC30B3FABE
:100B500083F301FA03F3134303605FE00123C7F853
:100B6000F830D7F8F83093FAA3F3C7F8F430D7F891
:100B7000F430B3FA83F39B0003F1844303F5840359
:100B80001A4600231360FFF7E5FBC7F88C0109E064
:100B9000FFF7E0FB0246D7F88C31D31A022B01D9BC
:100BA0000323A8E30223C7F8F030D7F8F03093FA14
:100BB000A3F3C7F8EC30D7F8EC30B3FA83F3DBB229
:100BC0005B09DBB243F00103DBB2012B02D1564BD0
:100BD0001B680AE00223C7F8E830D7F8E83093FA38
:100BE000A3F3C7F8E430504B5B6A0222C7F8E02059
:100BF000D7F8E02092FAA2F2C7F8DC20D7F8DC2080
:100C0000B2FA82F252B242F0200252B2D2B202F0F2
:100C10001F02D34003F00103002BB9D13B1D1B6819
:100C20001B6803F00803002B00F0B0803B1D1B681D
:100C30009B69002B54D00123C7F8D830D7F8D8309F
:100C400093FAA3F3C7F8D430D7F8D430B3FA83F3C8
:100C50009B001A46354B13441A4601231360FFF7D5
:100C600079FBC7F88C0109E0FFF774FB0246D7F85F
:100C70008C31D31A022B01D903233CE30223C7F89A
:100C8000D030D7F8D03093FAA3F3C7F8CC30022392
:100C9000C7F8C830D7F8C83093FAA3F3C7F8C43000
:100CA000214B5A6A0223C7F8C030D7F8C03093FAF4
:100CB000A3F3C7F8BC30D7F8BC30B3FA83F35BB208
:100CC00043F060035BB2DBB203F01F0322FA03F3CD
:100CD00003F00103002BC7D00120FFF745FB55E0CF
:100CE0000123C7F8B830D7F8B83093FAA3F3C7F8A0
:100CF000B430D7F8B430B3FA83F39B001A460B4BE9
:100D000013441A4600231360FFF724FBC7F88C0135
:100D10000EE0FFF71FFB0246D7F88C31D31A022BE7
:100D200006D90323E7E200BF0010024080044242DC
:100D30000223C7F8B030D7F8B03093FAA3F3C7F85E
:100D4000AC300223C7F8A830D7F8A83093FAA3F341
:100D5000C7F8A430B74B5A6A0223C7F8A030D7F8B7
:100D6000A03093FAA3F3C7F89C30D7F89C30B3FABD
:100D700083F35BB243F060035BB2DBB203F01F03AB
:100D800022FA03F303F00103002BC2D13B1D1B68C1
:100D90001B6803F00403002B00F01A81A54AA54B41
:100DA000DB6943F08053D361A24BDB6903F08052CF
:100DB00007F108031A6007F108031B689E4A9E4B5F
:100DC0001B6843F480731360FFF7C4FAC7F88C0103
:100DD00009E0FFF7BFFA0246D7F88C31D31A642B2B
:100DE00001D9032387E2944B1B6803F48073002B23
:100DF000EFD03B1D1B68DB68012B06D18D4A8D4B64
:100E00001B6A43F0010313622FE03B1D1B68DB6884
:100E1000002B0CD1874A874B1B6A23F00103136216
:100E2000844A844B1B6A23F0040313621DE03B1DBC
:100E30001B68DB68052B0CD17E4A7E4B1B6A43F096
:100E4000040313627B4A7B4B1B6A43F0010313626A
:100E50000BE0784A774B1B6A23F001031362754A53
:100E6000744B1B6A23F0040313623B1D1B68DB6891
:100E7000002B55D0FFF76EFAC7F88C010BE0FFF797
:100E800069FA0246D7F88C31D31A41F2883293427C
:100E900001D903232FE20223C7F89830D7F89830FE
:100EA00093FAA3F3C7F8943007F1900302221A6073
:100EB00007F190031B6893FAA3F207F18C031A6001
:100EC00007F18C031B68B3FA83F3DBB25B09DBB277
:100ED00043F00203DBB2022B02D1564B1B6A01E046
:100EE000544B5B6A07F188020221116007F1880206
:100EF000126892FAA2F107F18402116007F18402EC
:100F00001268B2FA82F252B242F0400252B2D2B247
:100F100002F01F02D34003F00103002BAFD057E0D3
:100F2000FFF718FAC7F88C010BE0FFF713FA024637
:100F3000D7F88C31D31A41F28832934201D9032376
:100F4000D9E107F1800302221A6007F180031B68D0
:100F500093FAA3F207F17C031A6007F178030222E7
:100F60001A6007F178031B6893FAA3F207F1740380
:100F70001A6007F174031B68B3FA83F3DBB25B09F1
:100F8000DBB243F00203DBB2022B02D1294B1B6A16
:100F900001E0284B5B6A07F170020221116007F142
:100FA0007002126892FAA2F107F16C02116007F167
:100FB0006C021268B2FA82F252B242F0400252B2AD
:100FC000D2B202F01F02D34003F00103002BACD1D8
:100FD0003B1D1B68DB69002B00F08C81154B5B68A7
:100FE00003F00C03082B00F083813B1D1B68DB69B9
:100FF000022B40F0098107F168034FF080721A60FC
:1010000007F168031B6893FAA3F207F164031A60FF
:1010100007F164031B68B3FA83F39B0003F1844375
:1010200003F584031A4600231360FFF793F9C7F80A
:101030008C010DE00010024000700040FFF78AF9BB
:101040000246D7F88C31D31A022B01D9032352E17F
:1010500007F160034FF000721A6007F160031B682C
:1010600093FAA3F207F15C031A6007F15C031B68B3
:10107000B3FA83F3DBB25B09DBB243F00103DBB20B
:10108000012B02D19E4B1B680EE007F158034FF075
:1010900000721A6007F158031B6893FAA3F207F174
:1010A00054031A60964B5B6A07F150024FF00071CF
:1010B000116007F15002126892FAA2F107F14C0296
:1010C000116007F14C021268B2FA82F252B242F099
:1010D000200252B2D2B202F01F02D34003F0010349
:1010E000002BABD13B1D1B681B6AB3F5803F09D1B8
:1010F0008349834B5B6823F400323B1D1B689B686C
:1011000013434B607E487E4B5B6823F474123B1D97
:101110001B68196A3B1D1B685B6A0B4313434360E2
:1011200007F148034FF080721A6007F148031B680B
:1011300093FAA3F207F144031A6007F144031B6812
:10114000B3FA83F39B0003F1844303F584031A4647
:1011500001231360FFF7FEF8C7F88C0109E0FFF7E1
:10116000F9F80246D7F88C31D31A022B01D90323A0
:10117000C1E007F140034FF000721A6007F140032D
:101180001B6893FAA3F207F13C031A6007F13C03D2
:101190001B68B3FA83F3DBB25B09DBB243F00103F4
:1011A000DBB2012B02D1564B1B680EE007F138036E
:1011B0004FF000721A6007F138031B6893FAA3F22C
:1011C00007F134031A604E4B5B6A07F130024FF0AF
:1011D0000071116007F13002126892FAA2F107F172
:1011E0002C02116007F12C021268B2FA82F252B29C
:1011F00042F0200252B2D2B202F01F02D34003F0FA
:101200000103002BABD075E007F128034FF080728B
:101210001A6007F128031B6893FAA3F207F124036D
:101220001A6007F124031B68B3FA83F39B0003F1F0
:10123000844303F584031A4600231360FFF78AF8FA
:10124000C7F88C0109E0FFF785F80246D7F88C3122
:10125000D31A022B01D903234DE007F120034FF0ED
:1012600000721A6007F120031B6893FAA3F207F1DA
:101270001C031A6007F11C031B68B3FA83F3DBB28B
:101280005B09DBB243F00103DBB2012B02D11C4B43
:101290001B680EE007F118034FF000721A6007F1A7
:1012A00018031B6893FAA3F207F114031A60144B96
:1012B0005B6A07F110024FF00071116007F1100234
:1012C000126892FAA2F107F10C02116007F10C0208
:1012D0001268B2FA82F252B242F0200252B2D2B294
:1012E00002F01F02D34003F00103002BABD101E059
:1012F000012300E00023184607F5C877BD4680BDEE
:101300000010024080B598B000AF786039600023CB
:10131000FB659C4B1B6803F007023B689A4210D2A6
:101320009849984B1B6823F007023B6813430B60F6
:10133000944B1B6803F007023B689A4201D00123DB
:101340005FE17B681B6803F00203002B08D08E4925
:101350008D4B5B6823F0F0027B689B6813434B6006
:101360007B681B6803F00103002B00F0F2807B68B0
:101370005B68012B35D14FF40033BB65BB6D93FA2D
:10138000A3F37B657B6DB3FA83F3DBB25B09DBB25E
:1013900043F00103DBB2012B02D17B4B1B6808E059
:1013A0004FF400333B653B6D93FAA3F3FB64764B3C
:1013B0005B6A4FF40032BA64BA6C92FAA2F27A64B1
:1013C0007A6CB2FA82F252B242F0200252B2D2B237
:1013D00002F01F02D34003F00103002B6ED1012362
:1013E0000FE17B685B68022B35D14FF000733B64E3
:1013F0003B6C93FAA3F3FB63FB6BB3FA83F3DBB2AF
:101400005B09DBB243F00103DBB2012B02D15E4B7F
:101410001B6808E04FF00073BB63BB6B93FAA3F348
:101420007B63594B5B6A4FF000723A633A6B92FAF6
:10143000A2F2FA62FA6AB2FA82F252B242F02002E0
:1014400052B2D2B202F01F02D34003F00103002BCC
:1014500034D10123D5E00223BB62BB6A93FAA3F324
:101460007B627B6AB3FA83F3DBB25B09DBB243F0E6
:101470000103DBB2012B02D1434B1B6807E00223BF
:101480003B623B6A93FAA3F3FB613F4B5B6A022228
:10149000BA61BA6992FAA2F27A617A69B2FA82F210
:1014A00052B242F0200252B2D2B202F01F02D34036
:1014B00003F00103002B01D10123A2E03249324B9A
:1014C0005B6823F003027B685B6813434B60FEF7A5
:1014D00041FFF8657B685B68012B12D10AE0FEF7DB
:1014E00039FF0246FB6DD31A41F28832934201D98B
:1014F000032386E0244B5B6803F00C03042BEED13E
:1015000027E07B685B68022B1DD10AE0FEF722FF13
:101510000246FB6DD31A41F28832934201D903236C
:101520006FE0194B5B6803F00C03082BEED110E061
:10153000FEF710FF0246FB6DD31A41F28832934248
:1015400001D903235DE0104B5B6803F00C03002B13
:10155000EED10C4B1B6803F007023B689A4215D989
:101560000849084B1B6823F007023B6813430B60D4
:10157000044B1B6803F007023B689A4206D0012324
:101580003FE000BF00200240001002407B681B6863
:1015900003F00403002B08D01C491C4B5B6823F4A8
:1015A000E0627B68DB6813434B607B681B6803F079
:1015B0000803002B09D01549144B5B6823F46052D3
:1015C0007B681B69DB0013434B6000F025F8014684
:1015D0000E4B5B6803F0F002F0233B613B6993FA2A
:1015E000A3F3FB60FB68B3FA83F322FA03F3084A20
:1015F000D35C21FA03F3074A13600020FEF780FE54
:10160000002318466037BD4680BD00BF0010024071
:10161000F86400080000002090B48EB000AF354B95
:101620003C1D0FCB84E80F00334B1B883B8000230D
:10163000FB620023BB6200237B6300237B620023E9
:101640003B632E4B5B68FB62FB6A03F00C03042BCD
:1016500002D0082B03D043E0294B3B6343E0FB6AF5
:1016600003F470124FF470133B623B6A93FAA3F3D6
:10167000FB61FB69B3FA83F322FA03F307F1380243
:10168000134413F8343C7B62FB6A03F48033002B71
:101690001ED01A4B5B6803F400324FF40033BB6179
:1016A000BB6993FAA3F37B617B69B3FA83F322FAF4
:1016B00003F307F13802134413F8383CBB62104AB5
:1016C000BB6AB2FBF3F37A6A02FB03F37B6304E0C9
:1016D0007B6A0C4A02FB03F37B637B6B3B6302E098
:1016E000074B3B6300BF3B6B18463837BD4690BC89
:1016F000704700BF10650008206500080010024018
:1017000000127A0000093D0080B400AF024B1B6854
:101710001846BD4680BC70470000002080B582B0EE
:1017200000AF114B7B60114B3B6007E03B681A1D1B
:101730003A607A68111D796012681A603B680C4A39
:101740009342F3D30B480C494FF000028842B8BFD4
:1017500040F8042BFADBFEF783FF01F08BF900BFA2
:101760000837BD4680BD00BF0666000800000020A7
:101770005801002058010020E80C002080B400AF80
:10178000FEE7F0B58BB006AF78600023FB607B68A6
:10179000002B01D10123CAE07B6893F8E933DBB267
:1017A000002B06D17B68002283F8E823786802F0DA
:1017B0002BFE7B68032283F8E9237B681B681846AD
:1017C00001F0ACFA7B681B683B607E686D4606F1F1
:1017D00010040FCC0FC523682B60331D0ECB386867
:1017E00001F072FA7B681B680021184601F0B2FA1A
:1017F0000023FB6037E07A68FB685B011344293300
:1018000001221A70FB68D9B27A68FB685B01134445
:1018100028330A461A70FB6899B27A68FB685B0144
:10182000134434330A461A807A68FB685B01134418
:101830002B3300221A707A68FB685B01134438333B
:1018400000221A607A68FB685B0113443C33002273
:101850001A607A68FB6802335B01134400221A6045
:10186000FB680133FB60FB680E2BC4D90023FB60CF
:101870003CE07A68FB685B01134403F20923002211
:101880001A70FB68D9B27A68FB685B01134403F5F0
:1018900002730A461A70FB6899B27A68FB685B01AA
:1018A000134434330A461A807A68FB685B01134498
:1018B00003F20B2300221A707A68FB685B01134461
:1018C00003F5067300221A607A68FB685B01134413
:1018D00003F5077300221A607A68FB6811335B0115
:1018E000134400221A60FB680133FB60FB680E2B77
:1018F000BFD97B681B683B607E686D4606F11004AB
:101900000FCC0FC523682B60331D0ECB386801F058
:101910002DFA7B68002283F824207B68012283F85B
:10192000E9237B681B68184602F025FA0023184655
:101930001437BD46F0BD80B582B000AF78607B68DB
:1019400093F8E833012B01D1022316E07B680122D2
:1019500083F8E8230121786803F083F87B681B682B
:10196000184602F0FEF97B681B68184601F0BCF9C6
:101970007B68002283F8E823002318460837BD4619
:1019800080BD80B584B000AF78600023FB607B68C9
:101990001B68184602F0F9F9034603F40043B3F557
:1019A000004F02D1786800F0F3FA7B681B68184694
:1019B00002F0EBF9034603F48063B3F5806F12D1B4
:1019C0007B681B687A681268B2F8442092B222F4ED
:1019D000806292B2A3F84420786802F08AFD002168
:1019E000786800F0CFF87B681B68184602F0CDF9E4
:1019F000034603F48043B3F5804F0BD17B681B682B
:101A00007A681268B2F8442092B222F4804292B20C
:101A1000A3F844207B681B68184602F0B6F9034619
:101A200003F40053B3F5005F0BD17B681B687A6841
:101A30001268B2F8442092B222F4005292B2A3F893
:101A400044207B681B68184602F09FF9034603F4A4
:101A50008053B3F5805F23D17B681B687A68126876
:101A6000B2F8402092B222F0040292B2A3F84020D1
:101A70004FF43D43FB607B681B68FA6892B2A3F8A1
:101A80004020786802F072FD7B681B687A681268F3
:101A9000B2F8442092B222F4805292B2A3F84420C9
:101AA0007B681B68184602F070F9034603F4006374
:101AB000B3F5006F31D17B681B687A681268B2F8A1
:101AC000442092B222F4006292B2A3F844207B68D0
:101AD0001B687A681268B2F8402092B242F008029D
:101AE00092B2A3F840207B681B687A681268B2F84B
:101AF000402092B242F0040292B2A3F840207B68E8
:101B00001B68184602F041F9034603F48053B3F50D
:101B1000805F02D0786802F00FFD7B681B68184672
:101B200002F033F9034603F40073B3F5007F0ED1DE
:101B30007B681B687A681268B2F8442092B222F47B
:101B4000007292B2A3F84420786802F0C4FC7B686B
:101B50001B68184602F019F9034603F48073B3F5C5
:101B6000807F0BD17B681B687A681268B2F84420CA
:101B700092B222F4807292B2A3F8442000BF1037D0
:101B8000BD4680BD80B582B000AF78600B46FB706B
:101B90007B6893F8E833012B01D1022313E07B68C3
:101BA000012283F8E8237B68FA7883F824207B6895
:101BB0001B68FA781146184602F0C0F87B680022CC
:101BC00083F8E823002318460837BD4680BD80B55A
:101BD00084B000AF7860084611461A460346FB7091
:101BE0000B463B801346BB700023FB720023FB6057
:101BF00097F90330002B08DAFB7803F07F035B01D1
:101C000028337A681344FB6008E0FB7803F07F0315
:101C10005B0103F502737A681344FB60FB7803F001
:101C20007F03DAB2FB681A7097F90330DBB2DB0985
:101C3000DBB21A46FB685A703A88FB681A61FB6887
:101C4000BA78DA707B6893F8E833012B01D102236C
:101C50000EE07B68012283F8E8237B681B68F96843
:101C6000184601F0A3F87B68002283F8E823FB7A8A
:101C700018461037BD4680BD80B584B000AF78608F
:101C80000B46FB700023FB6097F90330002B08DA4A
:101C9000FB7803F07F035B0128337A681344FB6011
:101CA00008E0FB7803F07F035B0103F502737A68B9
:101CB0001344FB60FB7803F07F03DAB2FB681A7011
:101CC00097F90330DBB2DB09DBB21A46FB685A70C6
:101CD0007B6893F8E833012B01D102230EE07B6887
:101CE000012283F8E8237B681B68F968184601F035
:101CF00025FB7B68002283F8E82300231846103771
:101D0000BD4680BD80B586B000AFF8607A603B60AC
:101D10000B46FB7200237B61FB7A03F07F035B01C0
:101D200003F50273FA6813447B617B697A685A6130
:101D30007B693A689A617B690022DA617B690022DB
:101D40005A70FB7A03F07F03DAB27B691A70FB6882
:101D500093F8E833012B01D102231AE0FB6801223A
:101D600083F8E823FB7A03F07F03002B06D1FB689E
:101D70001B687969184601F069FC05E0FB681B687F
:101D80007969184601F062FCFB68002283F8E823B9
:101D9000002318461837BD4680BD80B483B000AF1D
:101DA00078600B46FB70FB7803F07F037A68113391
:101DB0005B01134404331B689BB218460C37BD46C5
:101DC00080BC704780B586B000AFF8607A603B6039
:101DD0000B46FB7200237B61FB7A03F07F035B0100
:101DE0002833FA6813447B617B697A685A617B699E
:101DF0003A689A617B690022DA617B6901225A7034
:101E0000FB7A03F07F03DAB27B691A70FB6893F800
:101E1000E833012B01D102231AE0FB68012283F889
:101E2000E823FB7A03F07F03002B06D1FB681B68D5
:101E30007969184601F00AFC05E0FB681B687969BE
:101E4000184601F003FCFB68002283F8E823002316
:101E500018461837BD4680BD80B584B000AF7860A5
:101E60000B46FB700023FB6097F90330002B08DA68
:101E7000FB7803F07F035B0128337A681344FB602F
:101E800006E0FB785B0103F502737A681344FB609C
:101E9000FB6801229A70FB7803F07F03DAB2FB68DB
:101EA0001A7097F90330DBB2DB09DBB21A46FB6824
:101EB0005A707B6893F8E833012B01D102231CE0B0
:101EC0007B68012283F8E8237B681B68F968184661
:101ED00001F04AFEFB7803F07F03002B08D17B68FA
:101EE0001A687B6803F57B731946104601F05EFFA4
:101EF0007B68002283F8E823002318461037BD468C
:101F000080BD80B584B000AF78600B46FB700023C5
:101F1000FB6097F90330002B08DAFB7803F07F03AE
:101F20005B0128337A681344FB6006E0FB785B01B1
:101F300003F502737A681344FB60FB6800229A7011
:101F4000FB7803F07F03DAB2FB681A7097F903306D
:101F5000DBB2DB09DBB21A46FB685A707B6893F888
:101F6000E833012B01D102230EE07B68012283F8C4
:101F7000E8237B681B68F968184601F055FE7B680A
:101F8000002283F8E823002318461037BD4680BDA1
:101F900090B589B000AF78600023BB610023FB835C
:101FA0000023FB750023FB810023BB8113E3FB8926
:101FB0009BB2DBB203F00F03FB75FB7D002B40F0FF
:101FC0002E81FB899BB203F01003002B4ED17B685E
:101FD0001A687B681B681B889BB223F4E14323F0DB
:101FE00070039BB213807B682833BB617B681B68DE
:101FF000B3F850309BB21A46BB691B78DB00134420
:1020000002335B001A467B681B68134403F5806348
:102010001B689BB2C3F30902BB69DA61BB695A69E9
:10202000BB69DB691A44BB695A610021786802F018
:102030003BFA7B6893F82430DBB2002B00F0CB82B4
:10204000BB699B69002B40F0C6827B681B687A687D
:1020500092F82420D2B262F07F02D2B292B2A3F8F8
:102060004C207B68002283F82420B4E27B6803F5CF
:102070000273BB617B681B681B889BB2BB81BB89F9
:102080009BB203F40063002B32D07B681B68B3F86B
:1020900050309BB21A46BB691B78DB0013440633F1
:1020A0005B001A467B681B68134403F580631B685A
:1020B0009BB2C3F30902BB69DA617B6818687B686D
:1020C00003F57B71BB699A88BB69DB699BB201F040
:1020D000BEFE7B681A687B681B681B8899B240F655
:1020E0008F730B409BB21380786802F0B3F972E2F1
:1020F000BB899BB21BB2002B80F26D827B681A6891
:102100007B681B681B8899B240F68F730B409BB2AB
:1021100013807B681B68B3F850309BB21A46BB69CA
:102120001B78DB00134406335B001A467B681B6890
:10213000134403F580631B689BB2C3F30902BB69B8
:10214000DA61BB69DB69002B11D07B681868BB6959
:102150005969BB699A88BB69DB699BB201F077FE5C
:10216000BB695A69BB69DB691A44BB695A610021C2
:10217000786802F081F97B681B68B3F850309BB235
:1021800006335B001A467B681B68134403F58063C3
:102190003B61BB691B693E2B18D9BB691B695B0995
:1021A000BB83BB691B6903F01F03002B02D1BB8BF0
:1021B000013BBB83BB8B9B029BB26FEA43436FEA3D
:1021C00053439BB21A463B691A6012E0BB691B6914
:1021D0005B08BB83BB691B6903F00103002B02D0C2
:1021E000BB8B0133BB83BB8B9B029BB21A463B6903
:1021F0001A607B681B681B889BB223F4804323F022
:1022000070039CB284F480539CB284F400539CB25B
:102210007B681A689A4B23439BB21380DBE17B688F
:102220001B681A46FB7D9B0013441B889BB2BB8135
:10223000BB899BB21BB2002B80F2D3807B681B68EA
:102240001A46FB7D9B001A447B681B681946FB7D80
:102250009B000B441B8899B240F68F730B409BB2D6
:102260001380FB7D5B0103F502737A681344BB6145
:10227000BB699B7A002B23D17B681B68B3F8503075
:102280009BB21A46BB691B78DB00134406335B0024
:102290001A467B681B68134403F580631B689BB276
:1022A000C3F30903FB83FB8B002B75D07B68186895
:1022B000BB695969BB699A88FB8B01F0C8FD6BE06B
:1022C0007B681B681A46BB691B789B0013441B88FC
:1022D0009BB203F48043002B23D07B681B68B3F8C8
:1022E00050309BB21A46BB691B78DB0013440233A3
:1022F0005B001A467B681B68134403F580631B6808
:102300009BB2C3F30903FB83FB8B002B2CD07B68B0
:102310001868BB695969BB69DA88FB8B01F097FDC6
:1023200022E07B681B68B3F850309BB21A46BB6949
:102330001B78DB00134406335B001A467B681B687E
:10234000134403F580631B689BB2C3F30903FB834B
:10235000FB8B002B08D07B681868BB695969BB6987
:102360001A89FB8B01F073FD7B681B681A46BB69F9
:102370001B789B001A447B681B681946BB691B7855
:102380009B000B441B8899B240F60F730B4099B227
:102390003C4B0B439BB21380BB69DA69FB8B1A443D
:1023A000BB69DA61BB695A69FB8B1A44BB695A6124
:1023B000BB699B69002B04D0FA8BBB691B699A42ED
:1023C00006D2BB691B781946786802F055F808E018
:1023D000BB691978BB695A69BB699B697868FFF763
:1023E00091FCBB899BB203F08003002B00F0F380CB
:1023F000FB7D5B0128337A681344BB617B681B68F3
:102400001A46FB7D9B001A447B681B681946FB7DBE
:102410009B000B441B889BB223F4E14323F0700321
:102420009BB21380BB699B7A002B2DD17B681B6804
:10243000B3F850309BB21A46BB691B78DB001344DB
:1024400002335B001A467B681B68134403F5806304
:102450001B689BB2C3F30902BB69DA61BB69DB6924
:10246000002B00F085807B681868BB695969BB69DF
:102470009A88BB69DB699BB201F0A3FC78E000BFDE
:102480008080FFFFC080FFFF7B681B681A46BB6926
:102490001B789B0013441B889BB203F04003002B66
:1024A00027D07B681B68B3F850309BB21A46BB69D3
:1024B0001B78DB00134402335B001A467B681B6801
:1024C000134403F580631B689BB2C3F30902BB6925
:1024D000DA61BB69DB69002B32D07B681868BB69A5
:1024E0005969BB69DA88BB69DB699BB201F069FC99
:1024F00026E07B681B68B3F850309BB21A46BB6974
:102500001B78DB00134406335B001A467B681B68AC
:10251000134403F580631B689BB2C3F30902BB69D4
:10252000DA61BB69DB69002B0AD07B681868BB697C
:102530005969BB691A89BB69DB699BB201F041FC2F
:102540007B681B681A46BB691B789B001A447B6832
:102550001B681946BB691B789B000B441B8899B20A
:1025600040F60F730B4099B2234B0B439BB2138081
:102570007B681B68B3F850309BB21A46BB691B7866
:10258000DB00134402335B001A467B681B6813446C
:1025900003F580631B689BB2C3F30902BB69DA6170
:1025A000BB695A69BB69DB691A44BB695A61BB697B
:1025B0009B69002B06D1BB691B781946786801F02E
:1025C00073FF08E0BB691978BB695A69BB699B69ED
:1025D0007868FFF7F7FB7B681B68B3F844309BB261
:1025E0001A46FA811BB2002BFFF6E1AC0023184615
:1025F0002437BD4690BD00BF80C0FFFF80B584B0CA
:1026000000AFF860B9601346FB71FB68002B01D185
:1026100002231AE0FB68D3F81432002B03D0FB68C6
:102620000022C3F81422BB68002B03D0FB68BA68F1
:10263000C3F81022FB68012283F8FC21FB68FA79B9
:102640001A70F86801F0A0FF002318461037BD4645
:1026500080BD80B485B000AF786039600023FB7323
:102660003B68002B06D07B683A68C3F8142200232D
:10267000FB7301E00223FB73FB7B18461437BD4656
:1026800080BC704780B582B000AF7860786801F098
:10269000DDFF002318460837BD4680BD80B483B0F7
:1026A00000AF7860002318460C37BD4680BC7047E9
:1026B00080B584B000AF78600B46FB700223FB73DB
:1026C0007B68D3F81432002B0CD07B68D3F814321B
:1026D0001B68FA781146786898470346002B01D1A9
:1026E0000023FB73FB7B18461037BD4680BD80B5C9
:1026F00082B000AF78600B46FB707B68D3F8143271
:102700005B68FA78114678689847002318460837BE
:10271000BD4680BD80B582B000AF786039607B680F
:1027200003F502733968184603F095FC7B680122B3
:10273000C3F8F4217B68B3F80E321A467B68C3F8FD
:10274000F8217B6893F8083203F01F03012B0BD0AC
:10275000022B11D0002B17D17B6803F502731946A9
:10276000786803F0C3F81AE07B6803F50273194632
:10277000786803F00BF912E07B6803F502731946E1
:10278000786803F036F90AE07B6893F8083223F0A2
:102790007F03DBB21946786801F0FEFF00BF00231B
:1027A00018460837BD4680BD80B586B000AFF860DA
:1027B0000B467A60FB72FB7A002B38D1FB6803F57D
:1027C00082737B61FB68D3F8F431032B42D17B69C0
:1027D0009A687B69DB689A4214D97B699A687B693D
:1027E000DB68D21A7B699A607B69DA687B699B68CF
:1027F000934228BF13469BB21A467968F86803F0E3
:1028000027FE27E0FB68D3F814321B69002B0AD09F
:10281000FB6893F8FC31032B05D1FB68D3F8143225
:102820001B69F8689847F86803F024FE12E0FB681B
:10283000D3F814329B69002B0CD0FB6893F8FC3161
:10284000032B07D1FB68D3F814329B69FA7A11463F
:10285000F8689847002318461837BD4680BD80B5F4
:1028600086B000AFF8600B467A60FB72FB7A002BF3
:102870006CD1FB6814337B61FB68D3F8F431022B15
:1028800057D17B699A687B69DB689A4215D97B6965
:102890009A687B69DB68D21A7B699A607B699B685E
:1028A0009BB21A467968F86803F0A2FD0023002263
:1028B0000021F86802F072F83BE07B695B687A6996
:1028C000D268B3FBF2F102FB01F29B1A002B1CD180
:1028D0007B695A687B69DB689A4216D37B695A68C0
:1028E000FB68D3F8F8319A420FD200220021F86831
:1028F00003F07EFDFB680022C3F8F82100230022CC
:102900000021F86802F04AF813E0FB68D3F81432AB
:10291000DB68002B0AD0FB6893F8FC31032B05D150
:10292000FB68D3F81432DB68F8689847F86803F05E
:10293000B4FDFB6893F80032012B1AD1F868FFF759
:10294000ADFEFB68002283F8002212E0FB68D3F89A
:1029500014325B69002B0CD0FB6893F8FC31032B1D
:1029600007D1FB68D3F814325B69FA7A1146F8682C
:102970009847002318461837BD4680BD80B582B001
:1029800000AF7860402300220021786801F090FEBB
:102990007B684022C3F81021402300228021786800
:1029A00001F086FE7B6840221A627B68012283F870
:1029B000FC217B68D3F81832002B09D07B68D3F850
:1029C00014325B687A685268D2B2114678689847C8
:1029D000002318460837BD4680BD80B483B000AFE1
:1029E00078600B46FB707B68FA781A7400231846EF
:1029F0000C37BD4680BC704780B483B000AF7860B0
:102A00007B6893F8FC217B6883F8FD217B680422B6
:102A100083F8FC21002318460C37BD4680BC704764
:102A200080B483B000AF78607B6893F8FD217B6849
:102A300083F8FC21002318460C37BD4680BC704744
:102A400080B582B000AF78607B6893F8FC31032BCF
:102A50000BD17B68D3F81432DB69002B05D07B687F
:102A6000D3F81432DB697868984700231846083792
:102A7000BD4680BD80B500AFFDF72CFC00F03CF8F2
:102A800000F0DAF800F09CF803F01AFD4FF47A73C6
:102A900008221649164801F0EFFF144B5B78FF2B14
:102AA0000CBF01230023DAB2104B1B78FF2B0CBFA5
:102AB00001230023DBB21343DBB2002B09D0C82073
:102AC000FDF752FC01224FF400510A4801F0C2FB0D
:102AD00007E0C820FDF748FC4FF40051054801F01D
:102AE000D1FB4FF47A70FDF73FFCCFE718040020CC
:102AF000C00300200010014080B594B000AF012356
:102B0000BB624FF48033FB6200233B630123BB6352
:102B100002237B644FF48033BB644FF48013FB6467
:102B200007F128031846FDF7CFFD0346002B03D01D
:102B3000CC21214800F0C2F80F237B610223BB6146
:102B40000023FB614FF480633B6200237B6207F14B
:102B5000140301211846FEF7D5FB0346002B03D0D2
:102B6000DA21154800F0AAF810237B604FF48003A7
:102B70003B613B1D1846FDF7C9FA0346002B03D005
:102B8000E1210D4800F09AF8FEF7BEFD02460B4B1E
:102B9000A3FB02239B091846FDF72DFD0420FDF73A
:102BA00037FD002200214FF0FF30FDF7FAFC00BF97
:102BB0005037BD4680BD00BF24650008D34D62106C
:102BC00080B500AF194B1A4A1A60184B4FF4827245
:102BD0005A60164B00229A60144B0022DA60134BA5
:102BE00000221A61114B00225A61104B4FF40072FF
:102BF0009A610E4B1822DA610C4B00221A620B4BC1
:102C000000225A62094B00229A62084B0A22DA62B9
:102C1000064801F051F90346002B04D04FF48171AE
:102C2000044800F04BF800BF80BD00BFC003002087
:102C3000003001402465000880B588B000AF1D4A0F
:102C40001C4B9B6943F0100393611A4B9B6903F083
:102C50001003FB60FB68174A164B9B6943F0200387
:102C60009361144B9B6903F02003BB60BB68114A5E
:102C7000104B9B6943F0040393610E4B9B6903F077
:102C800004037B607B6800224FF400510A4801F086
:102C9000E1FA4FF400533B6101237B610223FB61A6
:102CA00007F110031946044801F076F900BF2037F8
:102CB000BD4680BD001002400010014080B483B0CA
:102CC00000AF78603960FEE784B080B483B000AFB5
:102CD000786007F1140080E80E00002318460C37D6
:102CE000BD4680BC04B0704780B485B000AF78604A
:102CF0000023FB604FF43D43FB607B68B3F840303A
:102D00009AB2FB689BB213439AB27B68A3F8402047
:102D1000002318461437BD4680BC704780B485B088
:102D200000AF78600023FB604FF43D43FB607B689D
:102D3000B3F840309AB2FB689BB2DB439BB21340BE
:102D40009AB27B68A3F84020002318461437BD468A
:102D500080BC704780B483B000AF78600B46FB70D6
:102D6000002318460C37BD4680BC704784B080B441
:102D700083B000AF786007F1140080E80E007B6834
:102D80000122A3F840207B680022A3F840207B6842
:102D90000022A3F844207B680022A3F850200023DF
:102DA00018460C37BD4680BC04B0704790B484B060
:102DB00000AF786039603B68DB78032B5FD801A2F5
:102DC00052F823F0D52D0008532E0008012E0008DC
:102DD000272E00087B683A68127892001A447B68B4
:102DE0003968097889000B441B889BB223F4EC43B3
:102DF00023F070039BB243F400739BB213803FE057
:102E00007B683A68127892001A447B6839680978BE
:102E100089000B441B889BB223F4EC4323F070031E
:102E20009BB213802CE07B683A68127892001A44B7
:102E30007B683968097889000B441B889BB223F4AE
:102E4000EC4323F070039BB243F4C0639BB2138046
:102E500016E07B683A68127892001A447B683968F9
:102E6000097889000B441B889BB223F4EC4323F0C0
:102E700070039BB243F480639BB2138000E000BFF9
:102E80007B683A68127892001A447B68396809783E
:102E900089000B441B8899B240F60F730B4099B21E
:102EA0003B681B789BB20B4399B2774B0B439BB2A9
:102EB00013803B689B7A002B40F0EC803B685B788A
:102EC000002B4DD07B68B3F850309BB21A463B685C
:102ED0001B78DB0013445B001A467B68134403F540
:102EE00080631A463B689B885B089BB25B0013605B
:102EF0007B683A681278920013441B889BB203F0F7
:102F00004003002B13D07B683A68127892001A4471
:102F10007B683968097889000B441B8899B240F6B0
:102F20000F730B4099B2594B0B439BB213807B68D4
:102F30003A681278920013441B889BB223F4E04352
:102F400023F040039CB284F020039CB27B683A6873
:102F5000127892001A444C4B23439BB21380DEE15B
:102F60007B68B3F850309BB21A463B681B78DB0095
:102F7000134404335B001A467B68134403F58063F3
:102F80001A463B689B885B089BB25B0013607B68BA
:102F9000B3F850309BB21A463B681B78DB001344F1
:102FA00006335B001A467B68134403F58063BB60FD
:102FB0003B681B693E2B18D93B681B695B09FB8189
:102FC0003B681B6903F01F03002B02D1FB89013B07
:102FD000FB81FB899B029BB26FEA43436FEA534339
:102FE0009BB21A46BB681A6012E03B681B695B081B
:102FF000FB813B681B6903F00103002B02D0FB89B6
:103000000133FB81FB899B029BB21A46BB681A60A5
:103010007B683A681278920013441B889BB203F4D1
:103020008043002B13D07B683A68127892001A44D0
:103030007B683968097889000B441B8899B240F68F
:103040000F730B4099B2124B0B439BB213807B68FA
:103050003A681278920013441B889BB223F4804391
:1030600023F070039CB284F480539CB284F4005328
:103070009CB27B683A68127892001A44024B234350
:103080009BB213804BE100BF8080FFFFC080FFFF39
:1030900080C0FFFF7B683A68127892001A447B6810
:1030A0003968097889000B441B8899B240F60F6390
:1030B0000B4099B29D4B0B439BB213807B68B3F8D6
:1030C00050309BB21A463B681B78DB0013445B0010
:1030D0001A467B68134403F580631A463B68DB8815
:1030E0005B089BB25B0013607B68B3F850309BB207
:1030F0001A463B681B78DB00134404335B001A4616
:103100007B68134403F580631A463B681B895B08A0
:103110009BB25B0013603B685B78002B40F08380C0
:103120007B683A681278920013441B889BB203F4C0
:103130008043002B13D07B683A68127892001A44BF
:103140007B683968097889000B441B8899B240F67E
:103150000F730B4099B2764B0B439BB213807B6885
:103160003A681278920013441B889BB203F0400324
:10317000002B13D07B683A68127892001A447B685F
:103180003968097889000B441B8899B240F60F739F
:103190000B4099B2674B0B439BB213807B683A6834
:1031A000127892001A447B683968097889000B44C8
:1031B0001B8899B240F60F730B4099B25D4B0B43DD
:1031C0009BB213807B683A681278920013441B8884
:1031D0009BB223F4804323F070039CB284F48053A9
:1031E0009CB284F400539CB27B683A6812789200D7
:1031F0001A44514B23439BB213807B683A68127880
:10320000920013441B889BB223F4E04323F0400355
:103210009CB27B683A68127892001A44464B23436A
:103220009BB213807BE07B683A681278920013446B
:103230001B889BB203F48043002B13D07B683A6851
:10324000127892001A447B683968097889000B4427
:103250001B8899B240F60F730B4099B2344B0B4365
:103260009BB213807B683A681278920013441B88E3
:103270009BB203F04003002B13D07B683A681278AE
:1032800092001A447B683968097889000B441B88CE
:1032900099B240F60F730B4099B2264B0B439BB289
:1032A00013807B683A68127892001A447B68396808
:1032B000097889000B441B8899B240F60F730B40C4
:1032C00099B21B4B0B439BB213807B683A68127810
:1032D000920013441B889BB223F4E04323F0400385
:1032E0009CB27B683A68127892001A44124B2343CE
:1032F0009BB213807B683A681278920013441B8853
:103300009BB223F4804323F070039CB27B683A683D
:10331000127892001A44084B23439BB21380002377
:1033200018461037BD4690BC704700BF8081FFFF34
:1033300080C0FFFFC080FFFF8080FFFF90B482B09D
:1033400000AF786039603B689B7A002B6DD13B6899
:103350005B78002B34D07B683A6812789200134473
:103360001B889BB203F04003002B13D07B683A68A4
:10337000127892001A447B683968097889000B44F6
:103380001B8899B240F60F730B4099B2684B0B4300
:103390009BB213807B683A681278920013441B88B2
:1033A0009BB223F4E04323F040039CB27B683A686D
:1033B000127892001A445F4B23439BB2138039E189
:1033C0007B683A681278920013441B889BB203F41E
:1033D0008043002B13D07B683A68127892001A441D
:1033E0007B683968097889000B441B8899B240F6DC
:1033F0000F730B4099B2504B0B439BB213807B6809
:103400003A681278920013441B889BB223F48043DD
:1034100023F070039CB27B683A68127892001A44D9
:10342000444B23439BB2138004E13B685B78002B41
:1034300040F084807B683A681278920013441B88BD
:103440009BB203F48043002B13D07B683A68127858
:1034500092001A447B683968097889000B441B88FC
:1034600099B240F60F730B4099B2334B0B439BB2AA
:1034700013807B683A681278920013441B889BB2D1
:1034800003F04003002B13D07B683A681278920057
:103490001A447B683968097889000B441B8899B203
:1034A00040F60F730B4099B2214B0B439BB2138034
:1034B0007B683A68127892001A447B683968097808
:1034C00089000B441B8899B240F60F730B4099B2E8
:1034D000174B0B439BB213807B683A6812789200BB
:1034E00013441B889BB223F4804323F070039CB2E7
:1034F0007B683A68127892001A440E4B23439BB2C1
:1035000013807B683A681278920013441B889BB240
:1035100023F4E04323F040039CB27B683A681278BE
:1035200092001A44034B23439BB2138082E000BFF6
:10353000C080FFFF8080FFFF80C0FFFF7B683A688C
:103540001278920013441B889BB203F48043002B33
:1035500013D07B683A68127892001A447B68396805
:10356000097889000B441B8899B240F60F730B4011
:1035700099B2334B0B439BB213807B683A68127845
:10358000920013441B889BB203F04003002B13D01E
:103590007B683A68127892001A447B683968097827
:1035A00089000B441B8899B240F60F730B4099B207
:1035B000244B0B439BB213807B683A6812789200CD
:1035C0001A447B683968097889000B441B8899B2D2
:1035D00040F60F730B4099B2194B0B439BB213800B
:1035E0007B683A681278920013441B889BB223F4DC
:1035F000E04323F040039CB27B683A681278920063
:103600001A44114B23439BB213807B683A681278AB
:10361000920013441B889BB223F4804323F0700371
:103620009CB27B683A68127892001A44064B234396
:103630009BB21380002318460837BD4690BC7047E4
:1036400080C0FFFFC080FFFF8080FFFF90B58DB07E
:1036500000AF786039600023FB853B689B69BB62E3
:103660003B685B78012B40F04E813B689A693B6870
:103670001B699A4209D93B681B69BB623B689A691E
:10368000BB6AD21A3B689A6105E03B689B69BB62E2
:103690003B6800229A613B689B7A002B1CD13B68F7
:1036A00059693B689A88BB6A9BB2786800F089FBCD
:1036B0007B68B3F850309BB21A463B681B78DB003E
:1036C000134402335B001A467B68134403F580639E
:1036D0001A46BB6A1360FAE07B683A681278920077
:1036E00013441B889BB203F04003002B5BD03B6864
:1036F0005B78002B3CD17B68B3F850309BB21A4604
:103700003B681B78DB00134406335B001A467B687A
:10371000134403F58063BB61BB6A3E2B16D9BB6AB9
:103720005B09FB84BB6A03F01F03002B02D1FB8CF7
:10373000013BFB84FB8C9B029BB26FEA43436FEA25
:1037400053439BB21A46BB691A6028E0BB6A5B0808
:10375000FB84BB6A03F00103002B02D0FB8C013316
:10376000FB84FB8C9B029BB21A46BB691A6016E075
:103770003B685B78012B12D17B68B3F850309BB269
:103780001A463B681B78DB00134402335B001A4681
:103790007B68134403F580631A46BB6A13603B6879
:1037A0001B89FB855AE03B685B78002B3CD17B682A
:1037B000B3F850309BB21A463B681B78DB001344C9
:1037C00002335B001A467B68134403F580637B6118
:1037D000BB6A3E2B16D9BB6A5B09BB84BB6A03F08C
:1037E0001F03002B02D1BB8C013BBB84BB8C9B0213
:1037F0009BB26FEA43436FEA53439BB21A467B691D
:103800001A6028E0BB6A5B08BB84BB6A03F0010353
:10381000002B02D0BB8C0133BB84BB8C9B029BB2C0
:103820001A467B691A6016E03B685B78012B12D15F
:103830007B68B3F850309BB21A463B681B78DB00BC
:10384000134402335B001A467B68134403F580631C
:103850001A46BB6A13603B68DB88FB853B68596985
:10386000BB6A9BB2FA8D786800F0ABFA3B685B7874
:10387000002B14D17B683A68127892001A447B6856
:103880003968097889000B441B8899B240F60F7398
:103890000B4099B2944B0B439BB2138017E03B68EB
:1038A0005B78012B13D17B683A68127892001A4436
:1038B0007B683968097889000B441B8899B240F607
:1038C0000F730B4099B2894B0B439BB213807B68FB
:1038D0003A681278920013441B889BB223F4E043A9
:1038E00023F040039CB284F010039CB284F02003C8
:1038F0009CB27B683A68127892001A447C4B23434E
:103900009BB2138028E13B689A693B681B699A4225
:1039100009D93B681B69BB623B689A69BB6AD21ACA
:103920003B689A6105E03B689B69BB623B6800228B
:103930009A613B689B7A002B3CD17B68B3F850308E
:103940009BB21A463B681B78DB00134406335B00CE
:103950001A467B68134403F580633B61BB6A3E2BC8
:1039600016D9BB6A5B097B84BB6A03F01F03002B7B
:1039700002D17B8C013B7B847B8C9B029BB26FEAE8
:1039800043436FEA53439BB21A463B691A60C8E04F
:10399000BB6A5B087B84BB6A03F00103002B02D087
:1039A0007B8C01337B847B8C9B029BB21A463B69E8
:1039B0001A60B6E03B685B78002B3CD17B68B3F8BB
:1039C00050309BB21A463B681B78DB00134402332D
:1039D0005B001A467B68134403F58063FB60BB6A97
:1039E0003E2B16D9BB6A5B093B84BB6A03F01F03FD
:1039F000002B02D13B8C013B3B843B8C9B029BB256
:103A00006FEA43436FEA53439BB21A46FB681A605E
:103A100028E0BB6A5B083B84BB6A03F00103002B10
:103A200002D03B8C01333B843B8C9B029BB21A46F9
:103A3000FB681A6016E03B685B78012B12D17B684B
:103A4000B3F850309BB21A463B681B78DB00134436
:103A500002335B001A467B68134403F580631A4601
:103A6000BB6A13603B685B78002B43D17B68B3F87B
:103A700050309BB21A463B681B78DB001344063378
:103A80005B001A467B68134403F58063BB60BB6A26
:103A90003E2B16D9BB6A5B09FB83BB6A03F01F038D
:103AA000002B02D1FB8B013BFB83FB8B9B029BB268
:103AB0006FEA43436FEA53439BB21A46BB681A60EE
:103AC0002FE0BB6A5B08FB83BB6A03F00103002B9A
:103AD00002D0FB8B0133FB83FB8B9B029BB21A460C
:103AE000BB681A601DE000BFC080FFFF80C0FFFF01
:103AF0008080FFFF3B685B78012B12D17B68B3F8B5
:103B000050309BB21A463B681B78DB0013440233EB
:103B10005B001A467B68134403F580631A46BB6A50
:103B200013607B683A681278920013441B889BB23A
:103B300023F4804323F070039CB284F480539CB23E
:103B400084F400539CB27B683A68127892001A445D
:103B5000044B23439BB21380002318463437BD46E1
:103B600090BD00BF8080FFFF90B482B000AF78604E
:103B700039603B681B78002B18D17B683A68127853
:103B8000920013441B889BB24BF6BF741C4084F414
:103B9000805484F010047B683A68127892001A44CA
:103BA000A1B2204B0B439BB2138034E03B685B789F
:103BB000002B18D07B683A681278920013441B8857
:103BC0009BB223F4E04323F040039CB284F0100343
:103BD0009CB27B683A68127892001A44114B2343D6
:103BE0009BB2138017E07B683A6812789200134406
:103BF0001B889BB223F4804323F070039CB284F4AF
:103C000080539CB27B683A68127892001A44054B44
:103C100023439BB21380002318460837BD4690BC4F
:103C2000704700BF8080FFFF90B482B000AF786023
:103C300039603B685B78002B3AD07B683A68127831
:103C4000920013441B889BB203F04003002B13D057
:103C50007B683A68127892001A447B683968097860
:103C600089000B441B8899B240F60F730B4099B240
:103C70002F4B0B439BB213807B683A6812789200FB
:103C800013441B889BB223F4E04323F040039CB20F
:103C900084F010039CB284F020039CB27B683A68E5
:103CA000127892001A44234B23439BB2138039E0CD
:103CB0007B683A681278920013441B889BB203F425
:103CC0008043002B13D07B683A68127892001A4424
:103CD0007B683968097889000B441B8899B240F6E3
:103CE0000F730B4099B2144B0B439BB213807B684C
:103CF0003A681278920013441B889BB223F48043E5
:103D000023F070039CB284F480539CB284F400537B
:103D10009CB27B683A68127892001A44054B2343A0
:103D20009BB21380002318460837BD4690BC7047ED
:103D3000C080FFFF8080FFFF80C0FFFF80B483B0A2
:103D400000AF78600B46FB70FB78002B03D17B68DB
:103D50008022A3F84C20002318460C37BD4680BCB7
:103D6000704780B483B000AF7860002318460C37EA
:103D7000BD4680BC704780B483B000AF786000233C
:103D800018460C37BD4680BC704780B485B000AF84
:103D900078600023FB607B68B3F844309BB2FB6023
:103DA000FB6818461437BD4680BC704780B483B0AA
:103DB00000AF78603960002318460C37BD4680BCE0
:103DC000704780B48BB000AFF860B96011461A46F6
:103DD0000B46FB801346BB80BB8801335B10FB6145
:103DE00000237B620023BB6100237B6100233B62D5
:103DF000FB885B001A46FB68134403F580633B6253
:103E0000FB697B621BE0BB681B78BB61BB6801334D
:103E1000BB60BB681B781B021A46BB6913437B61FE
:103E20003B6A9A1C3A627A6992B21A803B6A023300
:103E30003B62BB680133BB607B6A013B7B627B6A90
:103E4000002BE0D100BF2C37BD4680BC704780B44A
:103E500089B000AFF860B96011461A460B46FB8086
:103E60001346BB80BB8801335B107B610023FB6181
:103E70000023BB61FB885B001A46FB68134403F513
:103E80008063BB617B69FB610EE0BB685A1CBA6052
:103E9000BA69111DB961126892B21A80BB68013308
:103EA000BB60FB69013BFB61FB69002BEDD100BFEF
:103EB0002437BD4680BC704780B582B000AF7860C3
:103EC0007B68002B01D1012356E07B6893F85130C9
:103ED000DBB2002B02D1786801F098FA7B680222ED
:103EE00083F851207B681B687A681268126822F098
:103EF00040021A607B681B687A6851687A68926829
:103F000011437A68D26811437A68126911437A685A
:103F1000526911437A68926902F4007211437A6817
:103F2000D26911437A68126A11437A68926A0A4325
:103F30001A607B681B687A689269120C02F00401AF
:103F40007A68526A0A435A607B681B687A68D26A48
:103F50001A617B681B687A681268D26922F4006271
:103F6000DA61074B00221A707B6800225A657B6871
:103F7000012283F85120002318460837BD4680BD32
:103F80005C01002080B483B000AF78600123184644
:103F90000C37BD4680BC704780B48BB000AF7860F2
:103FA00039600023FB610023BB6100237B61002398
:103FB0003B6200233B6100237B6227E101227B6A95
:103FC00002FA03F3FB613B681A68FB691340BB61AB
:103FD000BA69FB699A4240F016813B685B68122B14
:103FE00034D0122B0DD8022B2BD0022B04D8002B4F
:103FF00031D0012B1CD048E0032B43D0112B1BD018
:1040000043E0874A934226D0854A934206D8854AA0
:10401000934220D0844A93421DD036E0834A934293
:1040200019D0834A934216D0824A934213D02CE08F
:104030003B68DB683B6228E03B68DB6804333B623B
:1040400023E03B68DB6808333B621EE03B68DB68CB
:104050000C333B6219E03B689B68002B02D10423C0
:104060003B6212E03B689B68012B05D108233B6251
:104070007B68FA691A6108E008233B627B68FA6989
:104080005A6102E000233B6200BFBB69FF2B01D8ED
:104090007B6801E07B680433FB60BB69FF2B02D8BF
:1040A0007B6A9B0002E07B6A083B9B003B61FB68EC
:1040B0001A680F213B6901FA03F3DB431A40396A9E
:1040C0003B6901FA03F31A43FB681A603B685B68BB
:1040D00003F08053002B00F09680574A564B9B69A3
:1040E00043F001039361544B9B6903F00103BB60F0
:1040F000BB68524A7B6A9B08023352F823307B61CB
:104100007B6A03F003039B000F2202FA03F3DB43F5
:104110007A6913407B617B68494A934213D07B687C
:10412000484A93420DD07B68474A934207D07B6848
:10413000464A934201D1032306E0042304E002230C
:1041400002E0012300E000237A6A02F003029200F9
:1041500093407A6913437B6138497B6A9B08023339
:104160007A6941F823203B685B6803F48033002BB5
:1041700006D03749364B1A68BB6913430B6006E01B
:104180003349334B1A68BB69DB4313400B603B6810
:104190005B6803F40033002B06D02D492C4B5A6882
:1041A000BB6913434B6006E02949294B5A68BB6938
:1041B000DB4313404B603B685B6803F48013002BC8
:1041C00006D02349224B9A68BB6913438B6006E0F3
:1041D0001F491F4B9A68BB69DB4313408B603B68E8
:1041E0005B6803F40013002B06D01949184BDA68FA
:1041F000BB691343CB6006E01549154BDA68BB6910
:10420000DB431340CB607B6A01337B627B6A0F2BFD
:104210007FF6D4AE00BF2C37BD4680BC704700BFD0
:1042200000002110000011100000121000003110D9
:104230000000321000002210001002400000014077
:1042400000080140000C0140001001400014014032
:104250000004014080B483B000AF78600B467B80DF
:1042600013467B707B78002B03D07A887B681A61B9
:1042700003E07B881A047B681A6100BF0C37BD46D7
:1042800080BC704780B483B000AF78600B467B8001
:104290007B68DA687B885A407B68DA6000BF0C373D
:1042A000BD4680BC7047000080B483B000AF0346B9
:1042B0003960FB713B6812221A80034B18460C3799
:1042C000BD4680BC704700BF2000002080B483B092
:1042D00000AF03463960FB713B6804221A80034B30
:1042E00018460C37BD4680BC704700BF3400002024
:1042F00080B582B000AF03463960FB71FB79002BBB
:1043000005D13A680749084801F0F2FE04E03A682E
:104310000449054801F0ECFE024B18460837BD463B
:1043200080BD00BF240400205065000880B582B025
:1043300000AF03463960FB713A680449044801F054
:10434000D7FE024B18460837BD4680BD2404002026
:104350006865000880B582B000AF03463960FB7124
:10436000FB79002B05D13A680749084801F0C0FEE7
:1043700004E03A680449054801F0BAFE024B1846C9
:104380000837BD4680BD00BF240400207C650008BE
:1043900080B582B000AF03463960FB71FB79002B1A
:1043A00005D13A680749084801F0A2FE04E03A68DE
:1043B0000449054801F09CFE024B18460837BD46EB
:1043C00080BD00BF240400208C65000880B582B049
:1043D00000AF03463960FB71FB79002B05D13A68C9
:1043E0000749084801F084FE04E03A68044905489A
:1043F00001F07EFE024B18460837BD4680BD00BF67
:10440000240400209865000880B584B000AF78606F
:104410007B681B680D4A934213D10D4A0C4BDB6934
:1044200043F40003D3610A4BDB6903F40003FB6030
:10443000FB68002200211420FCF7B3F81420FCF7DD
:10444000CCF800BF1037BD4680BD00BF005C004007
:104450000010024080B582B000AF78607B68D3F86E
:104460001C247B6803F57B7319461046FEF752F94E
:1044700000BF0837BD4680BD80B582B000AF786010
:104480000B46FB707B68D3F81C04FB787A685B01F1
:10449000134403F507731A68FB781946FEF784F98D
:1044A00000BF0837BD4680BD80B582B000AF7860E0
:1044B0000B46FB707B68D3F81C04FB787A685B01C1
:1044C00013443C331A68FB781946FEF7C8F900BF5D
:1044D0000837BD4680BD80B582B000AF78607B688C
:1044E000D3F81C341846FEF7ABFA00BF0837BD46B8
:1044F00080BD80B584B000AF78600123FB737B681A
:104500009B68022B02D10123FB7302E00123FB73A2
:1045100000BF7B68D3F81C34FA7B11461846FEF7BF
:104520005CFA7B68D3F81C341846FEF727FA00BF04
:104530001037BD4680BD000080B582B000AF786006
:104540007B68D3F81C341846FEF756FA7B689B69E3
:10455000002B05D0044A044B1B6943F0060313618A
:1045600000BF0837BD4680BD00ED00E080B582B0D9
:1045700000AF78607B68D3F81C341846FEF750FA19
:1045800000BF0837BD4680BD80B582B000AF7860FF
:104590002B4A7B68C2F81C347B68294AC3F8202266
:1045A000274B284A1A60264B08225A60244B0222C5
:1045B0009A60234B0322DA60214B00229A61204B40
:1045C0000022DA611E4B00221A621D48FDF7D9F85D
:1045D0000346002B04D04FF48D711B48FEF76EFB91
:1045E0007B68D3F8200218230022002101F0DAFDB5
:1045F0007B68D3F8200258230022802101F0D2FDED
:104600007B68D3F82002C0230022812101F0CAFD7B
:104610007B68D3F820024FF488730022012101F057
:10462000C1FD7B68D3F820024FF480730022822101
:1046300001F0B8FD002318460837BD4680BD00BF15
:1046400024060020005C0040A865000880B584B006
:1046500000AF78600023BB730023FB737B68D3F843
:1046600020321846FDF767F90346BB73BB7B032B6B
:1046700016D801A252F823F0894600088F46000898
:10468000954600089B4600080023FB730BE00223BD
:10469000FB7308E00123FB7305E00223FB7302E0D8
:1046A0000223FB7300BFFB7B18461037BD4680BD5D
:1046B00080B584B000AF7860084611461A460346BC
:1046C000FB700B46BB7013463B800023BB7300237B
:1046D000FB737B68D3F82002BB783A88F978FDF742
:1046E00076FA0346BB73BB7B032B17D801A252F8A3
:1046F00023F000BF054700080B47000811470008DA
:10470000174700080023FB730BE00223FB7308E04C
:104710000123FB7305E00223FB7302E00223FB731A
:1047200000BFFB7B18461037BD4680BD80B584B006
:1047300000AF78600B46FB700023BB730023FB7354
:104740007B68D3F82032FA7811461846FDF794FAC0
:104750000346BB73BB7B032B16D801A252F823F090
:1047600071470008774700087D4700088347000825
:104770000023FB730BE00223FB7308E00123FB73B0
:1047800005E00223FB7302E00223FB7300BFFB7B07
:1047900018461037BD4680BD80B584B000AF786044
:1047A0000B46FB700023BB730023FB737B68D3F8BD
:1047B0002032FA7811461846FDF74EFB0346BB73CC
:1047C000BB7B032B16D801A252F823F0DD4700086B
:1047D000E3470008E9470008EF4700080023FB73A0
:1047E0000BE00223FB7308E00123FB7305E00223C7
:1047F000FB7302E00223FB7300BFFB7B18461037FC
:10480000BD4680BD80B584B000AF78600B46FB70BC
:104810000023BB730023FB737B68D3F82032FA7844
:1048200011461846FDF76DFB0346BB73BB7B032B9C
:1048300016D801A252F823F0494800084F48000852
:10484000554800085B4800080023FB730BE0022377
:10485000FB7308E00123FB7305E00223FB7302E016
:104860000223FB7300BFFB7B18461037BD4680BD9B
:1048700080B485B000AF78600B46FB707B68D3F8DE
:104880002032FB6097F90330002B08DAFB7803F045
:104890007F03FA685B0113442A331B7808E0FB7836
:1048A00003F07F03FA685B01134403F20A231B78C9
:1048B00018461437BD4680BC7047000080B584B0F0
:1048C00000AF78600B46FB700023BB730023FB73C3
:1048D0007B68D3F82032FA7811461846FDF752F972
:1048E0000346BB73BB7B032B16D801A252F823F0FF
:1048F00001490008074900080D490008134900084C
:104900000023FB730BE00223FB7308E00123FB731E
:1049100005E00223FB7302E00223FB7300BFFB7B75
:1049200018461037BD4680BD80B586B000AFF86030
:104930007A601A460B46FB7213463B810023BB7517
:104940000023FB75FB68D3F820023B89F97A7A686B
:10495000FDF738FA0346BB75BB7D032B16D801A2C1
:1049600052F823F0754900087B4900088149000886
:10497000874900080023FB750BE00223FB7508E064
:104980000123FB7505E00223FB7502E00223FB75A2
:1049900000BFFB7D18461837BD4680BD80B586B088
:1049A00000AFF8607A601A460B46FB7213463B81F3
:1049B0000023BB750023FB75FB68D3F820023B89FD
:1049C000F97A7A68FDF79EF90346BB75BB7D032B28
:1049D00016D801A252F823F0E9490008EF4900086F
:1049E000F5490008FB4900080023FB750BE0022392
:1049F000FB7508E00123FB7505E00223FB7502E06F
:104A00000223FB7500BFFB7D18461837BD4680BDED
:104A100080B582B000AF78600B46FB707B68D3F83E
:104A20002032FA7811461846FDF7B7F903461846C2
:104A30000837BD4680BD000080B483B000AF786009
:104A4000024B18460C37BD4680BC70476001002001
:104A500080B483B000AF786000BF0C37BD4680BC27
:104A6000704780B483B000AF78600B46FB7000BF26
:104A70000C37BD4680BC704780B588B002AFF86087
:104A8000B9603B601346FB800023FB82FB6893F810
:104A90005130DBB2012B40F07781BB68002B02D094
:104AA000FB88002B01D101236FE1FB6893F85030A4
:104AB000012B01D1022368E1FB68012283F8502019
:104AC000FB68222283F85120FB6800225A65FB68AC
:104AD000BA689A63FB68FA889A87FB68FA88DA876B
:104AE000FB6800229A64FB680022DA64FB680022FB
:104AF0001A63FB6800229A86FB680022DA86FB684C
:104B00009B68B3F5004F07D1FB681B68FA68126811
:104B1000126822F480421A60FB689B6AB3F5005F5A
:104B20000FD1FB681B68FA681268126822F4005201
:104B30001A60FB681B68FA681268126842F4005237
:104B40001A60FB685B68B3F5827F12D1FB689B68D3
:104B5000002B0ED1FB68002283F85020FA883B68B6
:104B600000931346BA68B968F86800F012F9034672
:104B70000BE1FB681B681B6803F04003402B07D068
:104B8000FB681B68FA681268126842F040021A60FB
:104B9000FB68DB68002B4AD11AE03B680022012148
:104BA000F86800F042FB0346002B01D00323ECE041
:104BB000FB689B6B591CFA689163FA681268D268AB
:104BC000D2B21A70FB68DB8F013B9AB2FB68DA87BE
:104BD000FB68DB8F012BE0D8FB689B6AB3F5005FB5
:104BE00036D1FB681B68FA681268126842F480527A
:104BF0001A602DE03B6800220121F86800F015FBE7
:104C00000346002B01D00323BFE0FB689B6BFA68CF
:104C10001268D26892B21A80FB689B6B9A1CFB6880
:104C20009A63FB68DB8F013B9AB2FB68DA87FB680B
:104C3000DB8F012BDED8FB689B6AB3F5005F07D1E1
:104C4000FB681B68FA681268126842F480521A60A6
:104C50003B6800220121F86800F0E7FA0346002BC8
:104C600001D0032391E0FB68DB68002B0AD1FB68CD
:104C70009B6B591CFA689163FA681268D268D2B2C9
:104C80001A700BE0FB689B6BFA681268D26892B2EC
:104C90001A80FB689B6B9A1CFB689A63FB68DB8F2E
:104CA000013B9AB2FB68DA87FB689B6AB3F5005F49
:104CB00016D13B6800220121F86800F0B6FA0346DD
:104CC000002B07D0FB685B6D43F00202FB685A655E
:104CD00003235AE0FB681B68DB689BB2FB82FB8AFC
:104CE000FB685B68B3F5827F11D1FB689B68B3F505
:104CF000004F04D0FB689B68B3F5806F07D1FB6859
:104D00001B68FA681268126822F040021A60FB6899
:104D1000012283F85120FB689B6AB3F5005F2DD117
:104D2000FB681B689B6803F01003102B26D1F86802
:104D3000FFF728F90346012B1BD1FB685B6D43F09D
:104D40000202FB685A65FB681B68FA681268126801
:104D500022F400521A60FB681B68FA681268126835
:104D600042F400521A60FB68002283F850200123AD
:104D70000BE0FB681B686FF010029A60FB68002272
:104D800083F85020002300E0022318461837BD4660
:104D900080BD80B586B000AFF860B9607A607B8076
:104DA0000023FB82FB6893F85130DBB2012B06D065
:104DB000FB6893F85130DBB2222B40F03182BB68A4
:104DC000002B05D07B68002B02D07B88002B01D103
:104DD000012326E2FB6893F85030012B01D1022316
:104DE0001FE2FB68012283F85020FB6893F85130E2
:104DF000DBB2012B03D1FB68322283F85120FB6820
:104E000000225A65FB687A689A63FB687A889A87F9
:104E1000FB687A88DA87FB68BA681A63FB687A8865
:104E20009A86FB687A88DA86FB6800229A64FB68B7
:104E30000022DA64FB689B6AB3F5005F0FD1FB6860
:104E40001B68FA681268126822F400521A60FB6844
:104E50001B68FA681268126842F400521A60FB6814
:104E60001B681B6803F04003402B07D0FB681B68DE
:104E7000FA681268126842F040021A60FB68DB6848
:104E8000B3F5006F40F0BE80FB685B68002B08D074
:104E9000FB685B68B3F5827F14D1FB68DB8E012B66
:104EA00010D1FB681B68FA68126B1288DA60FB6825
:104EB0001B6B9A1CFB681A63FB68DB8E013B9AB282
:104EC000FB68DA86FB68DB8E002B74D1FB689B6A7B
:104ED000B3F5005F07D1FB681B68FA6812681268B7
:104EE00042F480521A603B6A00220121F86800F007
:104EF0009CF90346002B01D0032392E1FB689B6BD6
:104F0000FA681268D26892B21A80FB689B6B9A1C8E
:104F1000FB689A63FB68DB8F013B9AB2FB68DA8718
:104F20001FE13B6A00220221F86800F07EF9034687
:104F3000002B01D0032374E1FB681B68FA68126B35
:104F40001288DA60FB681B6B9A1CFB681A63FB68AB
:104F5000DB8E013B9AB2FB68DA86FB68DB8E002BA6
:104F60000CD1FB689B6AB3F5005F07D1FB681B6837
:104F7000FA681268126842F480521A603B6A002292
:104F80000121F86800F051F90346002B01D00323FA
:104F900047E1FB689B6BFA681268D26892B21A808C
:104FA000FB689B6B9A1CFB689A63FB68DB8F013B79
:104FB0009AB2FB68DA87FB68DB8E002BB1D1FB6805
:104FC0005B68002B40F0CD803B6A00220121F8682D
:104FD00000F02BF90346002B01D0032321E1FB68ED
:104FE0009B6BFA681268D26892B21A80FB689B6B5E
:104FF0009A1CFB689A63FB68DB8F013B9AB2FB68E3
:10500000DA87AEE0FB685B68002B08D0FB685B6862
:10501000B3F5827F12D1FB68DB8E012B0ED1FB68CA
:105020001A68FB681B6B581CF96808631B78D3600F
:10503000FB68DB8E013B9AB2FB68DA86FB68DB8E8D
:10504000002B6BD1FB689B6AB3F5005F07D1FB684F
:105050001B68FA681268126842F480521A603B6A50
:1050600000220121F86800F0E0F80346002B01D08F
:105070000323D6E0FB689B6BFA681268D268D2B251
:105080001A70FB68DB8F013B9AB2FB68DA8768E035
:105090003B6A00220221F86800F0C7F80346002BA3
:1050A00001D00323BDE0FB681A68FB681B6B581C2A
:1050B000F96808631B78D360FB68DB8E013B9AB20A
:1050C000FB68DA86FB68DB8E002B0CD1FB689B6AE1
:1050D000B3F5005F07D1FB681B68FA6812681268B5
:1050E00042F480521A603B6A00220121F86800F005
:1050F0009CF80346002B01D0032392E0FB689B6BD6
:10510000591CFA689163FA681268D268D2B21A70B0
:10511000FB68DB8F013B9AB2FB68DA87FB68DB8EAA
:10512000002BB5D1FB685B68002B1AD13B6A0022CB
:105130000121F86800F079F80346002B01D0032321
:105140006FE0FB689B6B591CFA689163FA68126800
:10515000D268D2B21A70FB68DB8F013B9AB2FB684F
:10516000DA87FB689B6AB3F5005F16D13B6A0022C1
:105170000121F86800F059F80346002B07D0FB68BE
:105180005B6D43F00202FB685A65032349E0FB684C
:105190001B68DB689BB2FB82FB8A3B6A0122802191
:1051A000F86800F042F80346002B07D0FB685B6DFF
:1051B00043F01002FB685A65032332E0FB680122CA
:1051C00083F85120FB689B6AB3F5005F22D1FB682E
:1051D0001B689B6803F01003102B1BD1FB685B6DF1
:1051E00043F00202FB685A65FB681B68FA681268A4
:1051F000126822F400521A60FB681B68FA68126891
:10520000126842F400521A60FB68002283F85020B2
:10521000012306E0FB68002283F85020002300E011
:10522000022318461837BD4680BD80B586B000AF52
:10523000F860B9603B601346FB7100237B61FBF7AC
:1052400089F87861FB79002B40F086803DE03B686F
:10525000B3F1FF3F39D03B68002B07D0FBF77AF85A
:1052600002467B69D21A3B689A422ED9FB681B68BA
:10527000FA681268526822F0E0025A60FB681B6804
:10528000FA681268126822F040021A60FB689B6A92
:10529000B3F5005F0FD1FB681B68FA6812681268EB
:1052A00022F400521A60FB681B68FA6812681268E0
:1052B00042F400521A60FB68012283F85120FB6817
:1052C000002283F8502003234FE0FB681B689A6894
:1052D000BB681A40BB689A42B9D145E03B68B3F15C
:1052E000FF3F39D03B68002B07D0FBF733F802466D
:1052F0007B69D21A3B689A422ED9FB681B68FA6810
:105300001268526822F0E0025A60FB681B68FA6873
:105310001268126822F040021A60FB689B6AB3F5BB
:10532000005F0FD1FB681B68FA681268126822F4EC
:1053300000521A60FB681B68FA681268126842F42F
:1053400000521A60FB68012283F85120FB6800229A
:1053500083F85020032308E0FB681B689A68BB6849
:105360001A40BB689A42B9D0002318461837BD4688
:1053700080BD000080B582B000AF224A214B9B69FE
:1053800043F0010393611F4B9B6903F001037B60B2
:105390007B680320FBF7FAF8002200216FF00B0076
:1053A000FBF7FFF8002200216FF00A00FBF7F9F885
:1053B000002200216FF00900FBF7F3F80022002122
:1053C0006FF00400FBF7EDF8002200216FF00300FE
:1053D000FBF7E7F8002200216FF00100FBF7E1F88E
:1053E000002200214FF0FF30FBF7DBF8064A064BA6
:1053F0005B6823F0E06343F08063536000BF0837CD
:10540000BD4680BD001002400000014080B588B05C
:1054100000AF78607B681B68154A934223D1154A18
:10542000144B9B6943F480539361124B9B6903F4C3
:105430008053FB60FB68A0233B6102237B61032355
:10544000FB6107F1100319460B48FEF7A5FD402349
:105450003B6100237B610023BB6107F11003194608
:105460000548FEF799FD00BF2037BD4680BD00BF4F
:1054700000300140001002400008014080B584B0B7
:1054800000AF78600B46FB700023FB737B681B7CCE
:10549000002B0ED14FF40073022281217868FFF7B0
:1054A00007F94FF40073022201217868FFF700F931
:1054B0000BE04023022281217868FFF7F9F84023AE
:1054C000022201217868FFF7F3F8082303228221E2
:1054D0007868FFF7EDF84FF40770FFF7ADFA024672
:1054E0007B68C3F818227B68D3F81832002B02D1EE
:1054F0000123FB7326E07B68D3F81832BB607B681E
:10550000D3F81C321B689847BB680022C3F81422EA
:10551000BB680022C3F818227B681B7C002B09D1D2
:10552000BB68D3F804224FF4007301217868FFF7B9
:1055300035FA07E0BB68D3F80422402301217868DC
:10554000FFF72CFAFB7B18461037BD4680BD80B5AF
:1055500084B000AF78600B46FB700023FB738121A1
:105560007868FFF7E3F801217868FFF7DFF8822118
:105570007868FFF7DBF87B68D3F81832002B0ED081
:105580007B68D3F81C325B6898477B68D3F8183285
:105590001846FFF75DFA7B680022C3F81822FB7BF0
:1055A00018461037BD4680BD80B584B000AF786026
:1055B00039607B68D3F81832FB603B681B7803F0D6
:1055C0006003002B3AD0202B00D043E03B68DB88FF
:1055D000002B29D03B681B785BB2002B11DA7B686B
:1055E000D3F81C329B683A685078F9683A68D288D8
:1055F0009847F9683B68DB881A46786800F0DCFE5B
:1056000029E03B685A78FB6883F800223B68DB8816
:10561000DAB2FB6883F80122F9683B68DB881A4636
:10562000786800F0F7FE16E07B68D3F81C329B68C0
:105630003A6850780022396898470CE03B685B78FC
:105640000A2B01D00B2B05E001220549786800F0F8
:10565000B3FE00BF00BF002318461037BD4680BD13
:105660008003002080B485B000AF78600B46FB70EB
:105670007B68D3F81832FB607B68D3F81832002BB4
:1056800005D0FB680022C3F81422002300E00223A7
:1056900018461437BD4680BC704780B584B000AF53
:1056A00078600B46FB707B68D3F81832FB60FB78A0
:1056B00019467868FFF7ACF90246FB68C3F80C227C
:1056C0007B68D3F81832002B0DD07B68D3F81C32DE
:1056D000DB68FA68D2F80402FA6802F50372114630
:1056E0009847002300E0022318461037BD4680BDCE
:1056F00080B584B000AF78607B68D3F81832FB6067
:105700007B68D3F81C32002B15D0FB6893F800326D
:10571000FF2B10D07B68D3F81C329B68FA6892F894
:105720000002F968FA6892F8012292B29847FB6881
:10573000FF2283F80022002318461037BD4680BDA3
:1057400080B483B000AF78607B6843221A80034B3B
:1057500018460C37BD4680BC704700BFC000002013
:1057600080B483B000AF78607B6843221A80034B1B
:1057700018460C37BD4680BC704700BF7C00002037
:1057800080B483B000AF78607B6843221A80034BFB
:1057900018460C37BD4680BC704700BF040100208E
:1057A00080B483B000AF78607B680A221A80034B14
:1057B00018460C37BD4680BC704700BF380000203B
:1057C00080B485B000AF786039600223FB733B681A
:1057D000002B05D07B683A68C3F81C220023FB73BA
:1057E000FB7B18461437BD4680BC704780B487B039
:1057F00000AFF860B9601346FB80FB68D3F818323D
:105800007B617B69BA68C3F80822FA887B69C3F8B0
:105810001022002318461C37BD4680BC704780B458
:1058200085B000AF786039607B68D3F81832FB60D0
:10583000FB683A68C3F80422002318461437BD46B3
:1058400080BC704780B584B000AF78607B68D3F8C7
:105850001832FB607B68D3F81832002B17D0FB6836
:10586000D3F81432002B10D1FB680122C3F81422A4
:10587000FB68D3F80822FB68D3F810329BB2812171
:105880007868FFF751F8002302E0012300E00223CB
:1058900018461037BD4680BD80B584B000AF786033
:1058A0007B68D3F81832FB607B68D3F81832002B82
:1058B00017D07B681B7C002B09D1FB68D3F804222E
:1058C0004FF4007301217868FFF768F807E0FB6880
:1058D000D3F80422402301217868FFF75FF8002302
:1058E00000E0022318461037BD4680BD80B584B065
:1058F00000AF786039600023FB733B685B78092B4D
:1059000039D801A252F823F0595900086D590008FE
:105910007759000863590008775900083B59000877
:1059200031590008775900084F59000845590008B7
:105930003968786800F036F922E03968786800F054
:1059400025FA1DE03968786800F05EFA18E03968D9
:10595000786800F0E1FA13E03968786800F00EFB2F
:105960000EE03968786800F033FB09E03968786840
:1059700000F049FB04E03968786800F0A8FB00BF3C
:10598000FB7B18461037BD4680BD00BF80B584B094
:1059900000AF786039600023FB737B6893F8FC31BB
:1059A000032B1BD13B689B88DBB2012B11D87B6892
:1059B000D3F814329B683968786898473B68DB886D
:1059C000002B10D1FB7B002B0DD1786800F052FD2D
:1059D00009E03968786800F07AFB04E03968786893
:1059E00000F075FB00E000BF002318461037BD46ED
:1059F00080BD80B584B000AF786039600023FB7350
:105A00003B689B88BB733B681B7803F06003202BCB
:105A100008D17B68D3F814329B6839687868984756
:105A20000023BAE03B685B78012B39D0032B02D00E
:105A3000002B6BD0B0E07B6893F8FC31022B02D0D6
:105A4000032B0CD025E0BB7B002B27D0BB7B802B0E
:105A500024D0BB7B19467868FEF79EFE1EE03B68AB
:105A60005B88002B0AD1BB7B002B07D0BB7B802B34
:105A700004D0BB7B19467868FEF78EFE7B68D3F8AE
:105A800014329B68396878689847786800F0F2FCAF
:105A900005E03968786800F01AFB00E000BF7BE0A1
:105AA0007B6893F8FC31022B02D0032B0CD024E04E
:105AB000BB7B002B26D0BB7B802B23D0BB7B194626
:105AC0007868FEF769FE1DE03B685B88002B1BD100
:105AD000BB7B03F07F03002B0BD0BB7B19467868A0
