:020000040800F2
:1000000078040020F5140008CD010008D90100088B
:10001000DF010008E5010008EB0100080000000016
:10002000000000000000000000000000F1010008D6
:10003000FD01000800000000090200081502000888
:1000400055150008551500085515000855150008E8
:1000500055150008551500085515000855150008D8
:1000600055150008551500085515000855150008C8
:1000700055150008551500085515000855150008B8
:1000800055150008551500085515000855150008A8
:100090005515000855150008551500085515000898
:1000A0005515000855150008551500085515000888
:1000B0005515000855150008551500085515000878
:1000C0005515000855150008551500085515000868
:1000D0005515000855150008551500085515000858
:1000E00055150008551500085515000800000000BA
:1000F0000000000000000000000000000000000000
:1001000000000000000000005FF808F180B500AFBB
:10011000084A084B1B6843F010031360032000F0EB
:100120002FF9002000F008F802F09AF90023184691
:1001300080BD00BF0020024080B582B000AF786073
:1001400001F0CEF90246094BA3FB02239B09184696
:1001500000F03DF9002279684FF0FF3000F01BF904
:10016000002318460837BD4680BD00BFD34D62103E
:1001700080B400AF044B1B680133034A136000BF17
:10018000BD4680BC704700BF0C00002080B400AFAB
:10019000024B1B681846BD4680BC70470C0000200F
:1001A00080B584B000AF78600023FB60FFF7EEFFFE
:1001B000F86000BFFFF7EAFF0246FB68D21A7B68CF
:1001C0009A42F7D300BF1037BD4680BD80B400AF60
:1001D00000BFBD4680BC704780B400AFFEE780B46E
:1001E00000AFFEE780B400AFFEE780B400AFFEE7EB
:1001F00080B400AF00BFBD4680BC704780B400AF84
:1002000000BFBD4680BC704780B400AF00BFBD4694
:1002100080BC704780B500AFFFF7AAFF00F000F97F
:1002200000BF80BD80B485B000AF78607B6803F00C
:100230000703FB600C4BDB68BB60BA684FF6FF033B
:100240001340BB60FB681A02BB68134343F0BF63F3
:1002500043F40033BB60044ABB68D36000BF14376B
:10026000BD4680BC704700BF00ED00E080B400AF29
:10027000044BDB681B0A03F007031846BD4680BC2D
:10028000704700BF00ED00E080B483B000AF0346CC
:100290003960FB7197F90730002B0BDA0D49FB79B8
:1002A00003F00F03043B3A68D2B21201D2B20B44FE
:1002B0001A7609E0084997F907303A68D2B2120174
:1002C000D2B20B4483F8002300BF0C37BD4680BC7C
:1002D000704700BF00ED00E000E100E080B489B0AD
:1002E00000AFF860B9607A60FB6803F00703FB6158
:1002F000FB69C3F10703042B28BF0423BB61FB691F
:100300000433062B02D9FB69033B00E000237B6129
:100310000122BB6902FA03F35A1EBB681A407B69CB
:100320009A4001217B6901FA03F3591E7B680B4057
:10033000134318462437BD4680BC704780B582B051
:1003400000AF78607B68013BB3F1807F01D301236C
:100350000FE00A4A7B68013B53600F214FF0FF30EA
:10036000FFF792FF054B00229A60044B07221A60A8
:10037000002318460837BD4680BD00BF10E000E0EE
:1003800080B582B000AF78607868FFF74BFF00BFA0
:100390000837BD4680BD80B586B000AF0346B96062
:1003A0007A60FB7300237B61FFF760FF78617A68F6
:1003B000B9687869FFF792FF024697F90F30114646
:1003C0001846FFF761FF00BF1837BD4680BD80B5F6
:1003D00082B000AF78607868FFF7B0FF0346184638
:1003E0000837BD4680BD000080B483B000AF7860A0
:1003F0007B68042B06D1094A084B1B6843F00403B1
:10040000136005E0054A054B1B6823F004031360E5
:1004100000BF0C37BD4680BC704700BF10E000E055
:1004200080B500AF00F002F800BF80BD80B400AF1F
:1004300000BFBD4680BC704780B400AF154A154B65
:100440001B6843F0010313601249124B5A68124BA8
:1004500013404B600F4A0F4B1B6823F0847323F447
:10046000803313600B4A0B4B1B6823F4802313600B
:10047000084A084B5B6823F4FE035360054B4FF4B6
:100480001F029A60054B4FF000629A6000BFBD46A4
:1004900080BC7047001002400000FFF800ED00E053
:1004A00080B5E4B000AF3B1D18600023C7F88C3165
:1004B0003B1D1B681B6803F00103002B00F040810B
:1004C000B84B5B6803F00C03042B0CD0B54B5B6896
:1004D00003F00C03082B4FD1B24B5B6803F480335D
:1004E000B3F5803F48D14FF40033C7F88831D7F8CF
:1004F000883193FAA3F3C7F88431D7F88431B3FA7B
:1005000083F3DBB25B09DBB243F00103DBB2012B07
:1005100002D1A44B1B680BE04FF40033C7F88031C5
:10052000D7F8803193FAA3F3C7F87C319D4B5B6A0F
:100530004FF40032C7F87821D7F8782192FAA2F266
:10054000C7F87421D7F87421B2FA82F252B242F09D
:10055000200252B2D2B202F01F02D34003F00103D4
:10056000002B00F0EC803B1D1B685B68002B40F00B
:10057000E680012300F0ABBD3B1D1B685B68B3F553
:10058000803F06D1874A874B1B6843F48033136052
:1005900030E03B1D1B685B68002B0CD1814A814B0E
:1005A0001B6823F4803313607E4A7E4B1B6823F460
:1005B000802313601EE03B1D1B685B68B3F5A02F12
:1005C0000CD1784A774B1B6843F480231360754A3B
:1005D000744B1B6843F4803313600BE0714A714B1A
:1005E0001B6823F4803313606E4A6E4B1B6823F440
:1005F000802313603B1D1B685B68002B4FD0FFF707
:10060000C5FDC7F88C010AE0FFF7C0FD0246D7F828
:100610008C31D31A642B02D9032300F058BD4FF458
:100620000033C7F87031D7F8703193FAA3F3C7F8E5
:100630006C31D7F86C31B3FA83F3DBB25B09DBB210
:1006400043F00103DBB2012B02D1564B1B680BE0D8
:100650004FF40033C7F86831D7F8683193FAA3F341
:10066000C7F864314F4B5B6A4FF40032C7F8602122
:10067000D7F8602192FAA2F2C7F85C21D7F85C2182
:10068000B2FA82F252B242F0200252B2D2B202F078
:100690001F02D34003F00103002BB5D050E0FFF759
:1006A00075FDC7F88C010AE0FFF770FD0246D7F828
:1006B0008C31D31A642B02D9032300F008BD4FF408
:1006C0000033C7F85831D7F8583193FAA3F3C7F875
:1006D0005431D7F85431B3FA83F3DBB25B09DBB2A0
:1006E00043F00103DBB2012B02D12E4B1B680BE060
:1006F0004FF40033C7F85031D7F8503193FAA3F3D1
:10070000C7F84C31274B5B6A4FF40032C7F84821D9
:10071000D7F8482192FAA2F2C7F84421D7F8442129
:10072000B2FA82F252B242F0200252B2D2B202F0D7
:100730001F02D34003F00103002BB5D100E000BF3E
:100740003B1D1B681B6803F00203002B00F0528165
:10075000144B5B6803F00C03002B0BD0114B5B6850
:1007600003F00C03082B65D10E4B5B6803F4803358
:10077000002B5FD10223C7F84031D7F8403193FAFC
:10078000A3F3C7F83C31D7F83C31B3FA83F3DBB2BB
:100790005B09DBB243F00103DBB2012B04D1014B57
:1007A0001B680CE0001002400223C7F83831D7F86C
:1007B000383193FAA3F3C7F83431D14B5B6A022284
:1007C000C7F83021D7F8302192FAA2F2C7F82C21CD
:1007D000D7F82C21B2FA82F252B242F0200252B281
:1007E000D2B202F01F02D34003F00103002B07D066
:1007F0003B1D1B681B69012B02D0012300F067BC65
:10080000BF48BF4B1B6823F0F8023B1D1B685969AA
:10081000F823C7F82831D7F8283193FAA3F3C7F89B
:100820002431D7F82431B3FA83F301FA03F31343E5
:100830000360DFE03B1D1B681B69002B7AD001239E
:10084000C7F82031D7F8203193FAA3F3C7F81C3149
:10085000D7F81C31B3FA83F39B0003F1844303F50B
:1008600084031A4601231360FFF790FCC7F88C013C
:100870000AE0FFF78BFC0246D7F88C31D31A022B23
:1008800002D9032300F023BC0223C7F81831D7F89C
:10089000183193FAA3F3C7F81431D7F81431B3FA27
:1008A00083F3DBB25B09DBB243F00103DBB2012B64
:1008B00002D1934B1B680AE00223C7F81031D7F826
:1008C000103193FAA3F3C7F80C318D4B5B6A022207
:1008D000C7F80821D7F8082192FAA2F2C7F8042134
:1008E000D7F80421B2FA82F252B242F0200252B298
:1008F000D2B202F01F02D34003F00103002BB8D0A4
:100900007F487F4B1B6823F0F8023B1D1B68596929
:10091000F823C7F80031D7F8003193FAA3F3C7F8EA
:10092000FC30D7F8FC30B3FA83F301FA03F3134336
:1009300003605FE00123C7F8F830D7F8F83093FA86
:10094000A3F3C7F8F430D7F8F430B3FA83F39B007D
:1009500003F1844303F584031A4600231360FFF771
:1009600015FCC7F88C0109E0FFF710FC0246D7F828
:100970008C31D31A022B01D90323A8E30223C7F831
:10098000F030D7F8F03093FAA3F3C7F8EC30D7F88B
:10099000EC30B3FA83F3DBB25B09DBB243F0010363
:1009A000DBB2012B02D1564B1B680AE00223C7F8C9
:1009B000E830D7F8E83093FAA3F3C7F8E430504BA7
:1009C0005B6A0222C7F8E020D7F8E02092FAA2F290
:1009D000C7F8DC20D7F8DC20B2FA82F252B242F03B
:1009E000200252B2D2B202F01F02D34003F0010340
:1009F000002BB9D13B1D1B681B6803F00803002BBB
:100A000000F0B0803B1D1B689B69002B54D0012374
:100A1000C7F8D830D7F8D83093FAA3F3C7F8D43052
:100A2000D7F8D430B3FA83F39B001A46354B1344FE
:100A30001A4601231360FFF7A9FBC7F88C0109E0F0
:100A4000FFF7A4FB0246D7F88C31D31A022B01D949
:100A500003233CE30223C7F8D030D7F8D03093FA11
:100A6000A3F3C7F8CC300223C7F8C830D7F8C83092
:100A700093FAA3F3C7F8C430214B5A6A0223C7F88C
:100A8000C030D7F8C03093FAA3F3C7F8BC30D7F81A
:100A9000BC30B3FA83F35BB243F060035BB2DBB20A
:100AA00003F01F0322FA03F303F00103002BC7D066
:100AB0000120FFF775FB55E00123C7F8B830D7F8E0
:100AC000B83093FAA3F3C7F8B430D7F8B430B3FA18
:100AD00083F39B001A460B4B13441A460023136002
:100AE000FFF754FBC7F88C010EE0FFF74FFB0246FF
:100AF000D7F88C31D31A022B06D90323E7E200BFC3
:100B000000100240800442420223C7F8B030D7F8F8
:100B1000B03093FAA3F3C7F8AC300223C7F8A8307B
:100B2000D7F8A83093FAA3F3C7F8A430B74B5A6AA2
:100B30000223C7F8A030D7F8A03093FAA3F3C7F880
:100B40009C30D7F89C30B3FA83F35BB243F0600378
:100B50005BB2DBB203F01F0322FA03F303F00103DD
:100B6000002BC2D13B1D1B681B6803F00403002B44
:100B700000F01A81A54AA54BDB6943F08053D3618D
:100B8000A24BDB6903F0805207F108031A6007F1FA
:100B900008031B689E4A9E4B1B6843F480731360D6
:100BA000FFF7F4FAC7F88C0109E0FFF7EFFA024605
:100BB000D7F88C31D31A642B01D9032387E2944BE5
:100BC0001B6803F48073002BEFD03B1D1B68DB68B0
:100BD000012B06D18D4A8D4B1B6A43F00103136232
:100BE0002FE03B1D1B68DB68002B0CD1874A874B2D
:100BF0001B6A23F001031362844A844B1B6A23F0AF
:100C0000040313621DE03B1D1B68DB68052B0CD140
:100C10007E4A7E4B1B6A43F0040313627B4A7B4B84
:100C20001B6A43F0010313620BE0784A774B1B6A9F
:100C300023F001031362754A744B1B6A23F004030B
:100C400013623B1D1B68DB68002B55D0FFF79EFA33
:100C5000C7F88C010BE0FFF799FA0246D7F88C3100
:100C6000D31A41F28832934201D903232FE202239F
:100C7000C7F89830D7F8983093FAA3F3C7F89430B0
:100C800007F1900302221A6007F190031B6893FAA0
:100C9000A3F207F18C031A6007F18C031B68B3FA07
:100CA00083F3DBB25B09DBB243F00203DBB2022B5E
:100CB00002D1564B1B6A01E0544B5B6A07F1880274
:100CC0000221116007F18802126892FAA2F107F17D
:100CD0008402116007F184021268B2FA82F252B201
:100CE00042F0400252B2D2B202F01F02D34003F0EF
:100CF0000103002BAFD057E0FFF748FAC7F88C018B
:100D00000BE0FFF743FA0246D7F88C31D31A41F2D1
:100D10008832934201D90323D9E107F180030222EB
:100D20001A6007F180031B6893FAA3F207F17C03B2
:100D30001A6007F1780302221A6007F178031B6832
:100D400093FAA3F207F174031A6007F174031B68A6
:100D5000B3FA83F3DBB25B09DBB243F00203DBB22D
:100D6000022B02D1294B1B6A01E0284B5B6A07F179
:100D700070020221116007F17002126892FAA2F16A
:100D800007F16C02116007F16C021268B2FA82F28C
:100D900052B242F0400252B2D2B202F01F02D3402D
:100DA00003F00103002BACD13B1D1B68DB69002B5A
:100DB00000F08C81154B5B6803F00C03082B00F0EE
:100DC00083813B1D1B68DB69022B40F0098107F121
:100DD00068034FF080721A6007F168031B6893FA8A
:100DE000A3F207F164031A6007F164031B68B3FA06
:100DF00083F39B0003F1844303F584031A46002325
:100E00001360FFF7C3F9C7F88C010DE00010024032
:100E100000700040FFF7BAF90246D7F88C31D31AB8
:100E2000022B01D9032352E107F160034FF0007256
:100E30001A6007F160031B6893FAA3F207F15C03E1
:100E40001A6007F15C031B68B3FA83F3DBB25B093A
:100E5000DBB243F00103DBB2012B02D19E4B1B68D6
:100E60000EE007F158034FF000721A6007F15803C3
:100E70001B6893FAA3F207F154031A60964B5B6A5E
:100E800007F150024FF00071116007F15002126833
:100E900092FAA2F107F14C02116007F14C021268BC
:100EA000B2FA82F252B242F0200252B2D2B202F050
:100EB0001F02D34003F00103002BABD13B1D1B6885
:100EC0001B6AB3F5803F09D18349834B5B6823F4E8
:100ED00000323B1D1B689B6813434B607E487E4B72
:100EE0005B6823F474123B1D1B68196A3B1D1B6869
:100EF0005B6A0B431343436007F148034FF0807272
:100F00001A6007F148031B6893FAA3F207F1440340
:100F10001A6007F144031B68B3FA83F39B0003F1E3
:100F2000844303F584031A4601231360FFF72EF967
:100F3000C7F88C0109E0FFF729F90246D7F88C3190
:100F4000D31A022B01D90323C1E007F140034FF06C
:100F500000721A6007F140031B6893FAA3F207F1CD
:100F60003C031A6007F13C031B68B3FA83F3DBB25E
:100F70005B09DBB243F00103DBB2012B02D1564B1C
:100F80001B680EE007F138034FF000721A6007F19A
:100F900038031B6893FAA3F207F134031A604E4B2F
:100FA0005B6A07F130024FF00071116007F1300207
:100FB000126892FAA2F107F12C02116007F12C02DB
:100FC0001268B2FA82F252B242F0200252B2D2B2A7
:100FD00002F01F02D34003F00103002BABD075E0F9
:100FE00007F128034FF080721A6007F128031B688D
:100FF00093FAA3F207F124031A6007F124031B6894
:10100000B3FA83F39B0003F1844303F584031A4688
:1010100000231360FFF7BAF8C7F88C0109E0FFF767
:10102000B5F80246D7F88C31D31A022B01D9032325
:101030004DE007F120034FF000721A6007F1200322
:101040001B6893FAA3F207F11C031A6007F11C0353
:101050001B68B3FA83F3DBB25B09DBB243F0010335
:10106000DBB2012B02D11C4B1B680EE007F1180309
:101070004FF000721A6007F118031B6893FAA3F28D
:1010800007F114031A60144B5B6A07F110024FF06A
:101090000071116007F11002126892FAA2F107F1D3
:1010A0000C02116007F10C021268B2FA82F252B21D
:1010B00042F0200252B2D2B202F01F02D34003F03B
:1010C0000103002BABD101E0012300E0002318460F
:1010D00007F5C877BD4680BD0010024080B598B0C6
:1010E00000AF786039600023FB659C4B1B6803F000
:1010F00007023B689A4210D29849984B1B6823F02C
:1011000007023B6813430B60944B1B6803F0070214
:101110003B689A4201D001235FE17B681B6803F0C2
:101120000203002B08D08E498D4B5B6823F0F00240
:101130007B689B6813434B607B681B6803F001036B
:10114000002B00F0F2807B685B68012B35D14FF4F7
:101150000033BB65BB6D93FAA3F37B657B6DB3FA7C
:1011600083F3DBB25B09DBB243F00103DBB2012B9B
:1011700002D17B4B1B6808E04FF400333B653B6DAD
:1011800093FAA3F3FB64764B5B6A4FF40032BA64C4
:10119000BA6C92FAA2F27A647A6CB2FA82F252B221
:1011A00042F0200252B2D2B202F01F02D34003F04A
:1011B0000103002B6ED101230FE17B685B68022BDA
:1011C00035D14FF000733B643B6C93FAA3F3FB63A0
:1011D000FB6BB3FA83F3DBB25B09DBB243F00103D1
:1011E000DBB2012B02D15E4B1B6808E04FF00073AD
:1011F000BB63BB6B93FAA3F37B63594B5B6A4FF002
:1012000000723A633A6B92FAA2F2FA62FA6AB2FA9E
:1012100082F252B242F0200252B2D2B202F01F0267
:10122000D34003F00103002B34D10123D5E0022386
:10123000BB62BB6A93FAA3F37B627B6AB3FA83F364
:10124000DBB25B09DBB243F00103DBB2012B02D15D
:10125000434B1B6807E002233B623B6A93FAA3F30C
:10126000FB613F4B5B6A0222BA61BA6992FAA2F251
:101270007A617A69B2FA82F252B242F0200252B234
:10128000D2B202F01F02D34003F00103002B01D1C0
:101290000123A2E03249324B5B6823F003027B68F2
:1012A0005B6813434B60FEF771FFF8657B685B6812
:1012B000012B12D10AE0FEF769FF0246FB6DD31A3B
:1012C00041F28832934201D9032386E0244B5B68C4
:1012D00003F00C03042BEED127E07B685B68022B44
:1012E0001DD10AE0FEF752FF0246FB6DD31A41F210
:1012F0008832934201D903236FE0194B5B6803F0F6
:101300000C03082BEED110E0FEF740FF0246FB6D08
:10131000D31A41F28832934201D903235DE0104B86
:101320005B6803F00C03002BEED10C4B1B6803F041
:1013300007023B689A4215D90849084B1B6823F0FD
:1013400007023B6813430B60044B1B6803F0070262
:101350003B689A4206D001233FE000BF00200240D4
:10136000001002407B681B6803F00403002B08D0C8
:101370001C491C4B5B6823F4E0627B68DB68134309
:101380004B607B681B6803F00803002B09D01549EC
:10139000144B5B6823F460527B681B69DB001343CA
:1013A0004B6000F025F801460E4B5B6803F0F0023D
:1013B000F0233B613B6993FAA3F3FB60FB68B3FA4C
:1013C00083F322FA03F3084AD35C21FA03F3074AB2
:1013D00013600020FEF7B0FE002318466037BD46BC
:1013E00080BD00BF001002406825000800000020FA
:1013F00090B48EB000AF354B3C1D0FCB84E80F008E
:10140000334B1B883B800023FB620023BB6200231D
:101410007B6300237B6200233B632E4B5B68FB6294
:10142000FB6A03F00C03042B02D0082B03D043E02B
:10143000294B3B6343E0FB6A03F470124FF47013D3
:101440003B623B6A93FAA3F3FB61FB69B3FA83F354
:1014500022FA03F307F13802134413F8343C7B6299
:10146000FB6A03F48033002B1ED01A4B5B6803F435
:1014700000324FF40033BB61BB6993FAA3F37B6185
:101480007B69B3FA83F322FA03F307F138021344BA
:1014900013F8383CBB62104ABB6AB2FBF3F37A6ABA
:1014A00002FB03F37B6304E07B6A0C4A02FB03F359
:1014B0007B637B6B3B6302E0074B3B6300BF3B6B93
:1014C00018463837BD4690BC704700BF80250008DD
:1014D000902500080010024000127A0000093D002B
:1014E00080B400AF024B1B681846BD4680BC7047F5
:1014F0000000002080B582B000AF114B7B60114B23
:101500003B6007E03B681A1D3A607A68111D7960FC
:1015100012681A603B680C4A9342F3D30B480C499B
:101520004FF000028842B8BF40F8042BFADBFEF708
:1015300083FF00F013F800BF0837BD4680BD00BF31
:10154000C2250008000000200C0000200C00002034
:101550007800002080B400AFFEE7000080B582B0C4
:1015600002AFFEF7D3FD00F033F800F0BDF800F055
:1015700081F84FF47A7300930823114A11491248F5
:1015800000F07EFC4FF47A7308220D490E4800F0FB
:10159000EAFA0B4B5B78022B09D1C820FEF700FE5C
:1015A00001224FF40051094800F0B4FAE1E7C820E5
:1015B000FEF7F6FD4FF40051044800F0C3FAD8E7F7
:1015C00070000020040000201800002000100140DE
:1015D00080B590B000AF0123BB614FF48033FB6155
:1015E00000233B620123BB6202237B634FF4803301
:1015F000BB634FF4E013FB6307F118031846FEF7D3
:101600004FFF0346002B03D0A121184800F0AEF88D
:101610000F237B600223BB608023FB6000233B61C0
:1016200000237B613B1D01211846FFF757FD034650
:10163000002B03D0AF210D4800F098F8FFF750FFC2
:1016400002460B4BA3FB02239B091846FEF7BFFE85
:101650000420FEF7C9FE002200214FF0FF30FEF704
:101660009AFE00BF4037BD4680BD00BF94250008EC
:10167000D34D621080B500AF184B194A1A60174B52
:1016800000225A60154B00229A60144B0022DA6047
:10169000124B00221A61114B00225A610F4B4FF47A
:1016A00000729A610D4B0022DA610C4B00221A6223
:1016B0000A4B00225A62094B00229A62074B0A2207
:1016C000DA62064800F058F80346002B03D0D02118
:1016D000044800F04BF800BF80BD00BF1800002098
:1016E000003001409425000880B588B000AF1D4A45
:1016F0001C4B9B6943F0100393611A4B9B6903F0E9
:101700001003FB60FB68174A164B9B6943F02003EC
:101710009361144B9B6903F02003BB60BB68114AC3
:10172000104B9B6943F0040393610E4B9B6903F0DC
:1017300004037B607B6800224FF400510A4800F0EC
:10174000E9F94FF400533B6101237B610223FB6104
:1017500007F110031946044800F07EF800BF203757
:10176000BD4680BD001002400010014080B483B02F
:1017700000AF78603960FEE780B582B000AF786076
:101780007B68002B01D1012356E07B6893F8513030
:10179000DBB2002B02D1786800F0AEFE7B6802223B
:1017A00083F851207B681B687A681268126822F0FF
:1017B00040021A607B681B687A6851687A68926890
:1017C00011437A68D26811437A68126911437A68C2
:1017D000526911437A68926902F4007211437A687F
:1017E000D26911437A68126A11437A68926A0A438D
:1017F0001A607B681B687A689269120C02F0040117
:101800007A68526A0A435A607B681B687A68D26AAF
:101810001A617B681B687A681268D26922F40062D8
:10182000DA61074B00221A707B6800225A657B68D8
:10183000012283F85120002318460837BD4680BD99
:101840001000002080B483B000AF786001231846F8
:101850000C37BD4680BC704780B48BB000AF786059
:1018600039600023FB610023BB6100237B610023FF
:101870003B6200233B6100237B6227E101227B6AFC
:1018800002FA03F3FB613B681A68FB691340BB6112
:10189000BA69FB699A4240F016813B685B68122B7B
:1018A00034D0122B0DD8022B2BD0022B04D8002BB6
:1018B00031D0012B1CD048E0032B43D0112B1BD07F
:1018C00043E0874A934226D0854A934206D8854A08
:1018D000934220D0844A93421DD036E0834A9342FB
:1018E00019D0834A934216D0824A934213D02CE0F7
:1018F0003B68DB683B6228E03B68DB6804333B62A3
:1019000023E03B68DB6808333B621EE03B68DB6832
:101910000C333B6219E03B689B68002B02D1042327
:101920003B6212E03B689B68012B05D108233B62B8
:101930007B68FA691A6108E008233B627B68FA69F0
:101940005A6102E000233B6200BFBB69FF2B01D854
:101950007B6801E07B680433FB60BB69FF2B02D826
:101960007B6A9B0002E07B6A083B9B003B61FB6853
:101970001A680F213B6901FA03F3DB431A40396A05
:101980003B6901FA03F31A43FB681A603B685B6822
:1019900003F08053002B00F09680574A564B9B690A
:1019A00043F001039361544B9B6903F00103BB6057
:1019B000BB68524A7B6A9B08023352F823307B6132
:1019C0007B6A03F003039B000F2202FA03F3DB435D
:1019D0007A6913407B617B68494A934213D07B68E4
:1019E000484A93420DD07B68474A934207D07B68B0
:1019F000464A934201D1032306E0042304E0022374
:101A000002E0012300E000237A6A02F00302920060
:101A100093407A6913437B6138497B6A9B080233A0
:101A20007A6941F823203B685B6803F48033002B1C
:101A300006D03749364B1A68BB6913430B6006E082
:101A40003349334B1A68BB69DB4313400B603B6877
:101A50005B6803F40033002B06D02D492C4B5A68E9
:101A6000BB6913434B6006E02949294B5A68BB699F
:101A7000DB4313404B603B685B6803F48013002B2F
:101A800006D02349224B9A68BB6913438B6006E05A
:101A90001F491F4B9A68BB69DB4313408B603B684F
:101AA0005B6803F40013002B06D01949184BDA6861
:101AB000BB691343CB6006E01549154BDA68BB6977
:101AC000DB431340CB607B6A01337B627B6A0F2B65
:101AD0007FF6D4AE00BF2C37BD4680BC704700BF38
:101AE0000000211000001110000012100000311041
:101AF00000003210000022100010024000000140DF
:101B000000080140000C0140001001400014014099
:101B10000004014080B483B000AF78600B467B8046
:101B200013467B707B78002B03D07A887B681A6120
:101B300003E07B881A047B681A6100BF0C37BD463E
:101B400080BC704780B483B000AF78600B467B8068
:101B50007B68DA687B885A407B68DA6000BF0C37A4
:101B6000BD4680BC704780B588B002AFF860B960F0
:101B70003B601346FB800023FB82FB6893F85130E7
:101B8000DBB2012B40F07781BB68002B02D0FB88D1
:101B9000002B01D101236FE1FB6893F85030012B3A
:101BA00001D1022368E1FB68012283F85020FB6821
:101BB000222283F85120FB6800225A65FB68BA682C
:101BC0009A63FB68FA889A87FB68FA88DA87FB6869
:101BD00000229A64FB680022DA64FB6800221A6320
:101BE000FB6800229A86FB680022DA86FB689B6805
:101BF000B3F5004F07D1FB681B68FA6812681268DA
:101C000022F480421A60FB689B6AB3F5005F0FD133
:101C1000FB681B68FA681268126822F400521A60A6
:101C2000FB681B68FA681268126842F400521A6076
:101C3000FB685B68B3F5827F12D1FB689B68002B61
:101C40000ED1FB68002283F85020FA883B6800938D
:101C50001346BA68B968F86800F012F903460BE158
:101C6000FB681B681B6803F04003402B07D0FB6830
:101C70001B68FA681268126842F040021A60FB683A
:101C8000DB68002B4AD11AE03B6800220121F8688A
:101C900000F042FB0346002B01D00323ECE0FB687D
:101CA0009B6B591CFA689163FA681268D268D2B2C9
:101CB0001A70FB68DB8F013B9AB2FB68DA87FB681E
:101CC000DB8F012BE0D8FB689B6AB3F5005F36D150
:101CD000FB681B68FA681268126842F480521A6046
:101CE0002DE03B6800220121F86800F015FB034657
:101CF000002B01D00323BFE0FB689B6BFA681268DE
:101D0000D26892B21A80FB689B6B9A1CFB689A633C
:101D1000FB68DB8F013B9AB2FB68DA87FB68DB8FDD
:101D2000012BDED8FB689B6AB3F5005F07D1FB6827
:101D30001B68FA681268126842F480521A603B68A5
:101D400000220121F86800F0E7FA0346002B01D0D9
:101D5000032391E0FB68DB68002B0AD1FB689B6BD7
:101D6000591CFA689163FA681268D268D2B21A7084
:101D70000BE0FB689B6BFA681268D26892B21A801B
:101D8000FB689B6B9A1CFB689A63FB68DB8F013BCB
:101D90009AB2FB68DA87FB689B6AB3F5005F16D1DD
:101DA0003B6800220121F86800F0B6FA0346002BD8
:101DB00007D0FB685B6D43F00202FB685A650323A2
:101DC0005AE0FB681B68DB689BB2FB82FB8AFB68FE
:101DD0005B68B3F5827F11D1FB689B68B3F5004F58
:101DE00004D0FB689B68B3F5806F07D1FB681B6864
:101DF000FA681268126822F040021A60FB68012239
:101E000083F85120FB689B6AB3F5005F2DD1FB6816
:101E10001B689B6803F01003102B26D1F868FFF7AE
:101E200011FD0346012B1BD1FB685B6D43F00202E1
:101E3000FB685A65FB681B68FA681268126822F42E
:101E400000521A60FB681B68FA681268126842F454
:101E500000521A60FB68002283F8502001230BE037
:101E6000FB681B686FF010029A60FB68002283F821
:101E70005020002300E0022318461837BD4680BDDD
:101E800080B586B000AFF860B9607A607B800023CF
:101E9000FB82FB6893F85130DBB2012B06D0FB6864
:101EA00093F85130DBB2222B40F03182BB68002B1B
:101EB00005D07B68002B02D07B88002B01D1012349
:101EC00026E2FB6893F85030012B01D102231FE278
:101ED000FB68012283F85020FB6893F85130DBB295
:101EE000012B03D1FB68322283F85120FB680022CA
:101EF0005A65FB687A689A63FB687A889A87FB68F8
:101F00007A88DA87FB68BA681A63FB687A889A86E7
:101F1000FB687A88DA86FB6800229A64FB680022F4
:101F2000DA64FB689B6AB3F5005F0FD1FB681B683E
:101F3000FA681268126822F400521A60FB681B6883
:101F4000FA681268126842F400521A60FB681B6853
:101F50001B6803F04003402B07D0FB681B68FA683E
:101F60001268126842F040021A60FB68DB68B3F541
:101F7000006F40F0BE80FB685B68002B08D0FB68F8
:101F80005B68B3F5827F14D1FB68DB8E012B10D127
:101F9000FB681B68FA68126B1288DA60FB681B6BBF
:101FA0009A1CFB681A63FB68DB8E013B9AB2FB68E4
:101FB000DA86FB68DB8E002B74D1FB689B6AB3F575
:101FC000005F07D1FB681B68FA681268126842F468
:101FD00080521A603B6A00220121F86800F09CF9E7
:101FE0000346002B01D0032392E1FB689B6BFA6848
:101FF0001268D26892B21A80FB689B6B9A1CFB68CD
:102000009A63FB68DB8F013B9AB2FB68DA871FE1BA
:102010003B6A00220221F86800F07EF90346002B9B
:1020200001D0032374E1FB681B68FA68126B128805
:10203000DA60FB681B6B9A1CFB681A63FB68DB8E1B
:10204000013B9AB2FB68DA86FB68DB8E002B0CD171
:10205000FB689B6AB3F5005F07D1FB681B68FA68F1
:102060001268126842F480521A603B6A0022012111
:10207000F86800F051F90346002B01D0032347E133
:10208000FB689B6BFA681268D26892B21A80FB6890
:102090009B6B9A1CFB689A63FB68DB8F013B9AB2CF
:1020A000FB68DA87FB68DB8E002BB1D1FB685B68CD
:1020B000002B40F0CD803B6A00220121F86800F03F
:1020C0002BF90346002B01D0032321E1FB689B6B16
:1020D000FA681268D26892B21A80FB689B6B9A1CED
:1020E000FB689A63FB68DB8F013B9AB2FB68DA8777
:1020F000AEE0FB685B68002B08D0FB685B68B3F55B
:10210000827F12D1FB68DB8E012B0ED1FB681A682F
:10211000FB681B6B581CF96808631B78D360FB686D
:10212000DB8E013B9AB2FB68DA86FB68DB8E002B04
:102130006BD1FB689B6AB3F5005F07D1FB681B6836
:10214000FA681268126842F480521A603B6A0022F0
:102150000121F86800F0E0F80346002B01D00323CA
:10216000D6E0FB689B6BFA681268D268D2B21A702C
:10217000FB68DB8F013B9AB2FB68DA8768E03B6A59
:1021800000220221F86800F0C7F80346002B01D0B6
:102190000323BDE0FB681A68FB681B6B581CF968D9
:1021A00008631B78D360FB68DB8E013B9AB2FB6847
:1021B000DA86FB68DB8E002B0CD1FB689B6AB3F5DB
:1021C000005F07D1FB681B68FA681268126842F466
:1021D00080521A603B6A00220121F86800F09CF8E6
:1021E0000346002B01D0032392E0FB689B6B591C34
:1021F000FA689163FA681268D268D2B21A70FB6802
:10220000DB8F013B9AB2FB68DA87FB68DB8E002B21
:10221000B5D1FB685B68002B1AD13B6A0022012113
:10222000F86800F079F80346002B01D003236FE033
:10223000FB689B6B591CFA689163FA681268D26854
:10224000D2B21A70FB68DB8F013B9AB2FB68DA8767
:10225000FB689B6AB3F5005F16D13B6A002201213F
:10226000F86800F059F80346002B07D0FB685B6D57
:1022700043F00202FB685A65032349E0FB681B68D0
:10228000DB689BB2FB82FB8A3B6A01228021F868F3
:1022900000F042F80346002B07D0FB685B6D43F06B
:1022A0001002FB685A65032332E0FB68012283F8C1
:1022B0005120FB689B6AB3F5005F22D1FB681B6865
:1022C0009B6803F01003102B1BD1FB685B6D43F080
:1022D0000202FB685A65FB681B68FA68126812689C
:1022E00022F400521A60FB681B68FA6812681268D0
:1022F00042F400521A60FB68002283F85020012348
:1023000006E0FB68002283F85020002300E002234F
:1023100018461837BD4680BD80B586B000AFF8605E
:10232000B9603B601346FB7100237B61FDF72EFF14
:102330007861FB79002B40F086803DE03B68B3F18B
:10234000FF3F39D03B68002B07D0FDF71FFF024647
:102350007B69D21A3B689A422ED9FB681B68FA68DF
:102360001268526822F0E0025A60FB681B68FA6843
:102370001268126822F040021A60FB689B6AB3F58B
:10238000005F0FD1FB681B68FA681268126822F4BC
:1023900000521A60FB681B68FA681268126842F4FF
:1023A00000521A60FB68012283F85120FB6800226A
:1023B00083F8502003234FE0FB681B689A68BB68D2
:1023C0001A40BB689A42B9D145E03B68B3F1FF3F80
:1023D00039D03B68002B07D0FDF7D8FE02467B6959
:1023E000D21A3B689A422ED9FB681B68FA681268B9
:1023F000526822F0E0025A60FB681B68FA681268B3
:10240000126822F040021A60FB689B6AB3F5005F15
:102410000FD1FB681B68FA681268126822F4005238
:102420001A60FB681B68FA681268126842F400526E
:102430001A60FB68012283F85120FB68002283F8B0
:102440005020032308E0FB681B689A68BB681A40A9
:10245000BB689A42B9D0002318461837BD4680BDE4
:1024600080B582B000AF224A214B9B6943F0010343
:1024700093611F4B9B6903F001037B607B68032022
:10248000FDF77EFF002200216FF00B00FDF783FFB8
:10249000002200216FF00A00FDF77DFF00220021DD
:1024A0006FF00900FDF777FF002200216FF00400B4
:1024B000FDF771FF002200216FF00300FDF76BFFB5
:1024C000002200216FF00100FDF765FF00220021CE
:1024D0004FF0FF30FDF75FFF064A064B5B6823F0C5
:1024E000E06343F00073536000BF0837BD4680BD12
:1024F000001002400000014080B588B000AF786055
:102500007B681B68154A934223D1154A144B9B697B
:1025100043F480539361124B9B6903F48053FB6037
:10252000FB68A0233B6102237B610323FB6107F16E
:10253000100319460B48FFF78FF940233B61002336
:102540007B610023BB6107F1100319460548FFF7C3
:1025500083F900BF2037BD4680BD00BF0030014079
:1025600000100240000801400000000000000000D0
:102570000102030406070809000000000102030429
:1025800002030405060708090A0B0C0D0E0F1010B4
:1025900001020000433A5C4769744875625C43413C
:1025A0004E5F5350495F4D61737465725C5350497F
:1025B0005F66697273745C5372635C6D61696E2EE1
:0225C0006300B6
:0C25C20000A24A040102030405060708F9
:0400000508000000EF
:00000001FF
